:02000002D0002C
:1040000000400D00D06F0D00000005000D000501FF
:0840100004019301000000000F
:10401800A46B0D0009480A49884208B505D0094A29
:10402800824202D0121A02F059FD0748074A0021BD
:10403800121A02F05EFD014808BD00BF90E303209C
:10404800406F0D00F8E30320F8E30320F0E70320B6
:1040580070B501F053FE074C074BE41AA40800257D
:104068001E46A54204D056F8253098470135F8E792
:1040780070BD00BF406F0D00F86E0D0000F016B85F
:1040880008B500F0A9F8BDE8084001F005BE00F049
:10409800F7BD00F0FDBD00F0FBBD0078B0FA80F080
:1040A80040097047012303707047000008B50748AE
:1040B800002319461A46406800F0BAFD01F0A8FD31
:1040C8004FF4E131BDE8084001F096BD80E40320DB
:1040D8001FB5144B14491548D3E9002300F0E0FD3F
:1040E800134B124A1B788DF8003012493C2302A862
:1040F80000F0ACFF039C7CB16368013B63605BB973
:10410800236820469B689847A368013BA3601BB9B6
:1041180023682046DB68984700F016FC064B1860B9
:1041280004B010BD08E40320B86B0D0018E40320A8
:1041380000E40320BE6B0D00FCE3032010B52DED59
:10414800028B00241E48002100F08AF91C48B0EEBA
:10415800408A00F0BBF9B0B90134052CF2D1194BF3
:1041680019490022C1E900231849C1E9002301F0D7
:104178004FFD174901F01BFB00F0E6FB154B1860DB
:10418800BDEC028B10BD042CE9D018EE100A02F029
:10419800FBF80E4B0C4CC3E90001B0EE480A084886
:1041A80000F07AF910EE100A02F0EEF8C4E9000106
:1041B80001F02EFD022194ED000B01F005FCDBE778
:1041C80058E403200000F87F08E4032010E40320EB
:1041D800C46B0D0004E4032008B500F0B5FB0E4BDA
:1041E8001B68C01A40F6C313984201D9FFF7A6FF0F
:1041F80000F0AAFB094B1B68C01A47F22F539842DC
:1042080008D901F005FD064901F0D1FABDE80840DA
:10421800FFF75EBF08BD00BF04E40320FCE30320F2
:10422800D46B0D0038B50E4B0E4C01251D7000F0F7
:1042380093FB2A460221204600F01CF80A4A0B4943
:10424800204601F0EDFD0A4B00221A705A804FF605
:10425800FF729A800320BDE8384000F07DBC00BFA3
:1042680000E4032058E40320F8E30320D9420D00BA
:1042780074E4032070B5044600236360A360E36020
:104288002361636123766376A2760E200E46FFF7DC
:10429800FEFE054610B1314600F092F92560204631
:1042A80070BD38B500F110050C460068294600F0CD
:1042B80073FA031E1DBF2B6823606B68236063605D
:1042C80014BF0120002038BD00F11001FFF7E9BF3D
:1042D80010B504460068FFF7DCFE204610BD0068F4
:1042E80000F04EBAF8B5837E04460D4616461BB953
:1042F8000B78002B00F0A680206800F06BF9A37EF5
:1043080023B11EB9206800F037FA03E02946206877
:1043180000F020FA00224421206800F0E8F940F279
:10432800EE2000F0D5FC206800F054F9A37E23B1FC
:104338001EB9206800F020FA03E02946206800F042
:1043480009FA0022BE21206800F0D1F92B78262B2B
:1043580004D100221146206800F0C9F9E61C04F1D6
:104368000C07206800F0E6F906F8010FBE42F8D104
:104378000821201D00F08BFA237B20769842637673
:1043880060D12B78222B19D014D8102B5AD1E27A6D
:10439800A388102A08BFA27A4FEAC30302BF23F0FA
:1043A8000F03C2F10C029B181BB200EE103ABAEED2
:1043B800CE0AF8BD262B1FD0282B43D1227A237989
:1043C80002F06002202A05D0402A06D042B923F024
:1043D800070304E023F0030301E023F00103237142
:1043E8002379607943EA002000B201F0BBFF002284
:1043F800164B02F01DF820E0A579284601F0B2FF1F
:1044080006466079C01007EE900AF8EEE77A0F4684
:1044180017EE900A01F0B8FF00220D4B02F008F8E1
:104428000B46290602464CBF0A490B49002001F0F9
:10443800FFFF32463B4601F049FE02F0F1FA00EE7A
:10444800100AF8BD9FED050AF8BD00BF0000B03F97
:104458000000A03F0000F0BF0000F03F0000C07F58
:1044680038B5837E04460D463BB92A4604F110014F
:104478002046BDE83840FFF735BF037C002BF4D158
:10448800FFF72DFF2046FFF71FFF0028EDD19FED16
:10449800010A38BD0000C07F08B510EE100A01F00F
:1044A80073FF08A3D3E9002301F0C2FF0022044BE5
:1044B80001F00CFE02F0B4FA00EE100A08BD00BFCD
:1044C80000004040CDCCCCCCCCCCFC3F027E407E22
:1044D800131A58425841704700F03EBA00F03CBAEF
:1044E80000F03ABA10B503682F2B044604D9074ADE
:1044F80000210A2000F028FB23681F2B83BF03F04C
:104508001F03236002484FF0A04010BD41490D0031
:104518000003005007B50B4B1B68000119181A5C03
:104528004B7802A803F01F0343EA421340F8043D06
:10453800FFF7D8FF019A01239340C0F80C3503B068
:104548005DF804FB7CE4032007B50B4B1B680001F6
:1045580019181A5C4B7802A803F01F0343EA4213A8
:1045680040F8043DFFF7BEFF019A01239340C0F8CD
:10457800083503B05DF804FB7CE4032013B50F4B4A
:104588001B6800011A181C5C537802A803F01F036B
:1045980043EA441440F8044DFFF7A4FFD0F810355F
:1045A80002A840F8084DFFF79DFFD0F81035009895
:1045B80023FA00F000F0010002B010BD7CE40320F3
:1045C80038B504460D462846002101F0D5FB258064
:1045D800204638BD38B5054600F01CFF0021288864
:1045E80000F0C2F900F018FF7D24013C14F0FF042C
:1045F8002BD0022000F0A0F92888FFF7BFFF002881
:10460800F3D000F007FF2888FFF784FF01212888EE
:1046180000F0AAF900F000FF4FF4F07000F08CF9F8
:1046280000F0F8FE0021288800F09EF9462000F0EE
:1046380083F92888FFF7A2FFB0FA80F400F0ECFEB7
:104648004FF4CD70640900F077F9204638BD38B5CD
:1046580011F00105044613D000F0DCFE2088FFF7B6
:1046680059FF0121208800F07FF90A2000F064F941
:104678002088002100F078F900F0CEFE372012E003
:1046880000F0C8FE2088FFF745FF0121208800F0D0
:104698006BF9412000F050F92088294600F064F9B0
:1046A80000F0BAFE0520BDE8384000F045B910B565
:1046B800044600F0AFFE2088FFF72CFF0121208878
:1046C80000F052F9032000F037F90021208800F0AB
:1046D8004BF90A2000F030F92088FFF74FFF044615
:1046E80000F09AFE352000F027F9204610BD2DE98C
:1046F800F0410546884617460826012418EA040FA3
:1047080014BF012100212846FFF7A1FF6400013EE4
:10471800E4B2F3D167B100F07DFE2888FFF714FFFB
:104728002888012100F020F9BDE8F04100F074BEAE
:10473800BDE8F081F8B5074608260025012438466B
:10474800FFF7B5FF00B125436400013EE4B2F6D19E
:104758002846F8BD70B500220C4655210646FFF7DD
:10476800C6FF651E073415F8011F00223046FFF703
:10477800BEFFA542F7D170BD0022CC21FFF7B7BF1D
:10478800002383720373C37200F10A02023002F835
:10479800013D8242FBD170472DE9F047057B044675
:1047A8008846002D5ED1FFF715FF20B9A07220734F
:1047B800E072BDE8F0872A46F0212046FFF797FF10
:1047C8000126AA4637462046FFF771FF8146204654
:1047D800FFF76DFFB9F1010F02D101281BD137E0B6
:1047E800814504EB05031ED1A27A974207D29A7835
:1047F800164214BF4FF001094FF0000904E00CBF46
:104808004FF001094FF00009B9F1000F03D1082F4B
:1048180008D8E77206E062194FF00109937833432C
:10482800937004E0BA469A7822EA06029A704946DA
:1048380020467600FFF70BFF16F0FF0604BF013590
:10484800EDB207F1010708BF0126072DFFB2BAD95B
:10485800402F07D984F80AA0BAF1000F12D101231A
:1048680023730FE00020A0722073E072631C08F12C
:10487800FF38093413F8012F08F8012FA342F9D1A2
:10488800BDE8F087A378002BECD00120EEE730B527
:10489800054600200139C9B2FF2913D015F8014B8C
:1048A800082280EA040313F0010F4FEA50001CBFEE
:1048B80080F08C03D8B2531E13F0FF024FEA540461
:1048C800EFD1E7E730BD000008B500F045F8014B2F
:1048D800186008BD7CE4032008B5024B1B689B6880
:1048E800019308BD4802030008B5024B1B681B6909
:1048F800019308BD4802030008B5024B1B685B69B9
:10490800019308BD4802030008B5024B1B681B6BE6
:10491800019308BD4802030008B5024B1B685B6C95
:10492800019308BD4802030008B5024B1B685B6889
:10493800019308BD1802030008B5024B1B68DB6829
:10494800019308BD1802030008B5024B1B685B6998
:10495800019308BD1802030008B5024B1B681B68C9
:10496800019308BD2C02030008B5024B1B689B6825
:10497800019308BD2C02030008B5024B1B681B6A93
:10498800019308BD2C02030008B5024B1B685B6A43
:10499800019308BD2C02030008B5024B1B681B6A73
:1049A800019308BD2802030008B5024B1B685B6A27
:1049B800019308BD2802030008B5024B1B689B6AD7
:1049C800019308BD2802030008B5024B1B68DB6A87
:1049D800019308BD2802030008B5024B1B681B6B36
:1049E800019308BD2802030008B5024B1B685B6BE6
:1049F800019308BD2802030008B5024B1B681B6C15
:104A0800019308BD2802030008B5024B1B685B69C7
:104A1800019308BD6402030008B5024B1B689B683C
:104A2800019308BD6802030008B5024B1B68DB68E8
:104A3800019308BD6802030008B5024B1B68DB69D7
:104A4800019308BD3002030008B5024B1B681B6ABE
:104A5800019308BD3002030008B5024B1B681B68B0
:104A6800019308BD3C02030008B5024B1B68DB68D4
:104A7800019308BD3C02030008B5024B1B681B6983
:104A8800019308BD3C02030008B5024B1B685B6933
:104A9800019308BD3C02030008B5024B1B689B69E3
:104AA800019308BD3C02030008B5024B1B68DB6993
:104AB800019308BD3C02030008B5024B1B681B6A42
:104AC800019308BD3C02030008B5024B1B689B6AB2
:104AD800019308BD3C02030008B5024B1B681B6824
:104AE800019308BD4C02030008B5024B1B685B68C4
:104AF800019308BD4C02030008B5024B1B681B69F3
:104B0800019308BD4C02030008B5024B1B685B69A2
:104B1800019308BD4C02030008B5024B1B689B6952
:104B2800019308BD4C02030008B5024B1B68DB6902
:104B3800019308BD4C02030008B5024B1B681B6AB1
:104B4800019308BD4C02030008B5024B1B685B6B60
:104B5800019308BD6002030008B5024B1B685B683F
:104B6800019308BD2002030008B5024B1B685B696E
:104B7800019308BD2002030008B5024B1B68DB6CDB
:104B8800019308BD2002030008B5024B1B685B6D4A
:104B9800019308BD2002030008B5034B1B68D3F836
:104BA8008830019308BD00002002030008B5034BBC
:104BB8001B68D3F89430019308BD0000200203005D
:104BC80008B5024B1B681B6A019308BD4402030029
:104BD80008B5024B1B68DB6B019308BD4402030058
:104BE80008B5024B1B685B68019308BD40020300CF
:104BF80008B5024B1B689B68019308BD400203007F
:104C080008B5024B1B68DB68019308BD400203002E
:104C180008B5024B1B681B69019308BD40020300DD
:104C280008B5024B1B685B69019308BD400203008D
:104C380008B5024B1B689B69019308BD400203003D
:104C480008B5024B1B68DB69019308BD40020300ED
:104C580008B5024B1B681B6A019308BD400203009C
:104C680008B5024B1B681B6B019308BD400203008B
:104C780008B5024B1B685B6B019308BD400203003B
:104C880008B5024B1B681B68019308BD1C02030092
:104C980008B5024B1B685B68019308BD1C02030042
:104CA80008B5024B1B68DB68019308BD1C020300B2
:104CB80008B5024B1B68DB6A019308BD1C020300A0
:104CC80008B5024B1B681B6B019308BD1C0203004F
:104CD8000021FFF749BF10B5836804460BB901F0FE
:104CE800A4F8C3689847A3681BB10322214620464D
:104CF80098472046BDE81040FFF7CBB9002211467F
:104D08004068FFF785BF002211464068FFF7A0BF43
:104D1800002211464068FFF7ABBF00224068FFF74A
:104D28009FBF002281F001014068FFF789BF00237F
:104D38001A4619464068FFF77BBF00231A461946F2
:104D48004068FFF76DBF002211464068FFF750BF6B
:104D5800002202214068FFF753BF00231A4640682B
:104D6800FFF73EBF38B50C4D2824224600212846BF
:104D780001F0BFFE4FF0FF336B602C80074D04231A
:104D880028466B60064B40F8083B2246002101F09C
:104D9800B0FE2C8138BD00BFB0E4032080E40320BE
:104DA800EC6B0D0070470020704710B50446FFF704
:104DB80070F9204610BD08B508B1FFF7F6FF08BD29
:104DC80010B58368044613B103220146984720466C
:104DD80010BD38B5C468D4B12378022B02D1E0687D
:104DE800FFF756FF65682DB12846FFF7E9FF28460B
:104DF800FFF74FF9A5682DB12846FFF7E1FF2846D0
:104E0800FFF747F92046BDE83840FFF742B938BDFB
:104E180038B5046805467CB16368013B63605BB9DB
:104E2800236820469B689847A368013BA3601BB989
:104E380023682046DB689847284638BD13B50446E2
:104E480091E8050000234B600B602060626001A8B8
:104E580001930093FFF7DCFF204602B010BD0B68FA
:104E6800036013B15A6801325A607047F7B50C46AF
:104E780002AD54F8043B45F8083D06460F4601A824
:104E88002146FFF7ECFF29463046FFF7D7FF01A878
:104E9800FFF7BEFF2046FFF7BBFF3846FFF7F9F8DC
:104EA800304603B0F0BD13B50B46044603C88DE881
:104EB800030093E8030084E803009DE8030083E807
:104EC800030002B010BD826810B50AB900F0ADFF4A
:104ED800C368BDE81040184708B5006800F1100124
:104EE800FFF7F1FF08BD826810B50AB900F09DFF11
:104EF800C368BDE81040184708B5006800F1100104
:104F0800FFF7F1FF08BD38B5002383608B680446BE
:104F18000D462BB102229847EB68E360AB68A360AB
:104F2800204638BD2DE9F0414FF69C7386B00468E1
:104F3800B1F904208B8000230F688DF800300B60D6
:104F48004FF00200D4E84F1F994203D1C4E8450F3F
:104F5800002DF7D102D08DF800106AE014F10C058D
:104F68001EBFE76022821F460123BFF35F8F002028
:104F7800637004F10803BFF35F8F53E8006F43E8E1
:104F88000002002AF9D1BFF35F8F002E51D0FFF73E
:104F9800F3FD20B129463046FFF795FF43E031463F
:104FA8006846FFF7B0FFE068B4F9105008B101F0A7
:104FB800D1FD04901020ADF81450FFF768F80546AD
:104FC80030B34FF00008C0F808801820FFF75FF8EA
:104FD8000446C0B1C0F8088001466846FFF763FF81
:104FE800029BA268A360039B0292E268E360BDF89B
:104FF8001430A3824FF69C73ADF81430049B0392CF
:105008002361CDF810800E4BEB600E4B2C60AB602B
:105018000498FFF73DFE6846FFF7D2FE00222946B6
:105028000948FFF7B1FD3046FFF7CAFE3046FFF7E3
:1050380030F83846FFF72CFE06B0BDE8F08100BF17
:10504800E14E0D003D510D00DF4C0D002DE9F04FF4
:105058008BB007AD4FF0000B0646994614200C2381
:105068000F4690469DF850A0C5F804B0C5F808B0A2
:105078000793FFF70CF8044638B180F800B080F8C1
:1050880001B0C0F804B0C0F808B0002310200394A1
:105098000493FEF7FCFF28B1012343608360234B90
:1050A8000360C4600490224B08930820FEF7EFFFCA
:1050B800044628B1039B40F8043B04A9FFF7CFFE40
:1050C80000955FFA8AF34A46414638460994FFF745
:1050D80077FDB8B9039B5B7803F0FF0293B94FF6ED
:1050E8009C7305A903A80592ADF81830FFF71AFFBD
:1050F8000598FFF7CDFD05A80999FFF7B7FE06A8A3
:10510800FFF786FE039B059304A906A8FFF7A7FEF1
:1051180005A93046FFF792FE06A8FFF779FE04A816
:10512800FFF776FE30460BB0BDE8F08F206C0D001F
:10513800A5520D00022AF8B5044606D0032A17D056
:10514800012A20D10B6803601DE018200E68FEF7C5
:105158009EFF054650B13146FFF7D5FE3069B6F9D6
:10516800147008B101F0F6FC2861AF8225600AE0EE
:10517800046844B12069FFF78BFD2046FFF720FE45
:105188002046FEF786FF0020F8BD38B5002383606F
:105198008B6804460D462BB102229847EB68E36002
:1051A800AB68A360204638BD022A70B5044606D015
:1051B800032A11D0012A17D10B68036014E01420C8
:1051C8000E68FEF764FF054620B13146FFF7DDFFA4
:1051D800337C2B74256007E004682CB12046FFF768
:1051E800EFFD2046FEF755FF002070BDF0B5002307
:1051F80087B00C46BFF35F8F50E8006F40E800327D
:10520800002AF9D1BFF35F8F002E3ED01846FFF772
:10521800B3FC074620B121463046FFF764FE2EE076
:10522800314601A8FFF7B1FF23788DF8143010201C
:10523800FEF72DFF0546D0B187601420FEF727FF43
:10524800044678B18760014601A8FFF72CFE039B4E
:10525800A268A360049B0392E268E3609DF814309F
:10526800049223740A4BEB600A4B2C60AB6001A8D4
:10527800FFF7A6FD002229460748FFF785FC3046C0
:10528800FFF79EFD3046FEF704FF07B0F0BD00BFF4
:10529800014F0D00B1510D00DF4C0D0030B585B048
:1052A80004460D4668461146FFF7E0FD7CB124B27E
:1052B80028460DB101F04EFC029002A96846ADF8EF
:1052C8000C40FFF72FFE0298FFF7E2FC1DE0009864
:1052D8008DF808404FF00102D0E84F3FA34203D1B8
:1052E800C0E8412F0029F7D102D08DF808300CE032
:1052F80010F10C014FF0010318BF0373BFF35F8F68
:10530800043000F8033CFFF771FF01A8FFF780FDA8
:1053180005B030BD002211464068FFF799BC002255
:1053280011464068FFF7A4BC00224068FFF798BC0C
:10533800002281F001014068FFF782BC00231A4671
:1053480019464068FFF774BC00231A46194640689E
:10535800FFF766BC002211464068FFF759BC0022DF
:1053680011464068FFF744BC002202214068FFF75D
:1053780047BC00231A464068FFF732BC024B0322A1
:105388005A60024A1A607047D8E403203C6C0D004A
:105398007047F8B5064615460C468F18BC4206D02D
:1053A800336814F8011B9B6830469847F6E728468F
:1053B800F8BD0022007CFFF7EFBA0021007CFFF760
:1053C800F3BA0021007CFFF7F7BA0021007CFFF751
:1053D800FBBA0021007CFFF7FFBA10B50446FEF7C0
:1053E80058FE204610BD000010B504464FF47A73ED
:1053F8000846A3600021044B207461602360FFF716
:10540800FBFA204610BD00BF706C0D000021007C27
:10541800FFF7EABAFFF7B8BAFFF7AEBA704710B5A8
:105428000446FEF736FE204610BDF0B5037D062B78
:105438008DB00E4600F104074FF0000402D000F1D1
:10544800080518E00CAD394605F8304D2F232A46DB
:105458000A20FFF7D9FA284601F097FB336802467D
:10546800DB682946304698470FE024B12E213046A4
:1054780000F08EF9044415F8011D0A22304600F0A8
:10548800CDF9BD420444F0D120460DB0F0BD000076
:1054980010B5054B0446112240F8043B002101F0E9
:1054A80028FB204610BD00BF986C0D000346074A34
:1054B80010B543F8042B01F1100251F8044B43F8DE
:1054C800044B9142F9D10A781A7010BD986C0D00FE
:1054D80010B59DF8084044EA032343EA024242EA31
:1054E800016104234160037510BD37B50D788B78D1
:1054F8004A78C97800912946FFF7EAFF03B030BD22
:10550800014B024A1A607047E0E403205A6D0D000F
:10551800002211464068FFF79BBB002211464068F5
:10552800FFF7A6BB00224068FFF79ABB002281F074
:1055380001014068FFF784BB00231A4619464068FA
:10554800FFF776BB00231A4619464068FFF768BB89
:10555800002211464068FFF75BBB002211464068F5
:10556800FFF746BB002202214068FFF749BB002332
:105578001A464068FFF734BB10B103685B681847E8
:10558800704738B504460068D0B1FFF7A5F9B8B937
:10559800237C1BB9206808B1FFF7A6F9656855B1E7
:1055A800AB681BB103222946284698472846FEF7D0
:1055B80070FD002363602068FFF79EF900232360D5
:1055C80038BD000038B50B4B03600446D0F8CC0159
:1055D80008B1FEF760FDD4F8C4512DB12846FFF795
:1055E800D0FF2846FEF755FDA06808B1FFF7C4FFB5
:1055F800204638BD8C6D0D0038B50D4C0D4B236021
:105608000025022304F5E4706360A560C4F8C45162
:10561800C4F8C851FFF780F9074BC4F8CC51236090
:105628002046064A0649BDE8384000F0F9BB00BFED
:10563800E4E40320C06D0D008C6D0D00F8E3032039
:10564800CD550D0000231A464068FFF7C9BA00225D
:1056580002214068FFF7D4BA002211464068FFF7DC
:10566800C7BA002211464068FFF7D2BA00231A468B
:1056780019464068FFF7D4BA00231A46194640680D
:10568800FFF7D6BA002281F001014068FFF7D8BAC7
:1056980000224068FFF7E4BA002211464068FFF78D
:1056A800E7BA002211464068FFF7D2BA70B58CB04D
:1056B80014460646FFF7ECFE0CAB0022114643F8F1
:1056C800302D2046FFF7B0F9014658BB009B4BB37D
:1056D8005A68022A0ED00A2A24D15C69112201A82C
:1056E80001F007FA06238DF8143001AD04F1080320
:1056F800183405E0596930460431FFF7F6FE11E029
:10570800186859682A4603C20833A3421546F7D1D8
:1057180001A906A807ADFFF7C9FE0FCD341D0FC4B8
:105728002B6823700098FFF777F930460CB070BDEE
:10573800024B034A1A6000225A607047B4E60320FD
:10574800C06D0D00F8B506460D468F180024BD4201
:105758000CD0336815F8011B9B6830469847002821
:1057680001DB0444F3E7002C08BF04462046F8BDDB
:1057780070B505460C46084649B101F006FA2B6893
:10578800024621462846DB68BDE87040184770BDD0
:1057980003689B68184738B50D210546FFF7F8FFE1
:1057A8000A2104462846FFF7F3FF204438BD38B5E0
:1057B8000546FFF7DDFF04462846FFF7ECFF2044C7
:1057C80038BD30B58BB00B4600218DF82410012A66
:1057D80098BF0A220DF12304B3FBF2F505FB12333F
:1057E80003F0FF03092B94BF30333733DBB2214674
:1057F80004F801392B46002DEED1FFF7B9FF0BB0A5
:1058080030BD10B42AB903685DF8044B9B68C9B26F
:105818001847D2B25DF8044BFFF7D3BFFFF7F1BFCB
:105828002DE9F04107460E4615462AB90368C9B264
:105838009B68BDE8F04118470A2A02D1002901DA1D
:1058480004E0D2B2BDE8F041FFF7BBBF2D21FFF75E
:105858009FFF2A46044671423846FFF7B2FF2044AC
:10586800BDE8F0812DE9F04757EC106B82460D46F4
:1058780010EE102A3B4610EE100A394601F072F875
:1058880008B1484912E027F000494FF0FF32464B73
:105898003046494601F066F868B94FF0FF32424B8E
:1058A8003046494601F040F828B940495046FFF7CC
:1058B8005FFFBDE8F0874FF060423D4B3046394608
:1058C80001F046F808B13B49F0E74FF060423A4B27
:1058D8003046394601F01EF80028F4D10022002392
:1058E8003046394601F016F840B12D215046FFF7F1
:1058F8004FFF07F1004304461F4600E004462F49C6
:105908004FF0000800205FFA88F39D4206D9002274
:105918002B4B00F0B7FE08F10108F4E732463B468E
:1059280000F0D4FB0F46064601F05AF80A22014659
:1059380080465046FFF745FF04447DB3404600F0DB
:1059480001FD02460B463046394600F0BDFB0646CF
:105958000F4650461B49FFF70BFF0444184B002223
:105968003046394600F064FD0F46064601F010F84F
:105978000A22014680465046FFF752FF044440463B
:1059880000F0F0FC02460B463046394600F09CFB1E
:10599800013D15F0FF0506460F46DFD12046BDE85C
:1059A800F08700BFEC6D0D00FFFFEF7FF46D0D0079
:1059B800FFFFEF41F06D0D00FFFFEFC10000E03F7A
:1059C80000002440E26B0D0038B5C9B20546FFF768
:1059D80049FF04462846FFF7DEFE204438BD10B5CF
:1059E8000446FFF7EDF9204610BD00000348044ABD
:1059F80004490023836000F013BA00BFBCE603200B
:105A0800F8E30320E7590D00704710B50446FEF788
:105A180040FB204610BD000070B5084B03600446EB
:105A280000250E4640F80C5FFEF76EFF30462671E3
:105A3800FFF702F8A560204670BD00BF006E0D009C
:105A48000079FFF701B80000044B00204FF6FF7201
:105A5800187058809A80FFF77FB800BFCCE6032003
:105A6800024B1A68024B1A60704700BF90E303208C
:105A7800D4E60320704741747047007CFFF724B8D0
:105A8800007CFEF7F9BF007CFFF706B8007CFEF744
:105A9800FBBF007CFFF708B810B50446FEF7F9FA1B
:105AA800204610BD70B5457C04460E4625B9007CDD
:105AB800FFF70AF8002805DD3146207CBDE8704074
:105AC800FEF7D2BF284670BD10B5044608461146F9
:105AD800002262604FF47A72A260054A22600122B5
:105AE800207462741A46FEF7B7FF204610BD00BF47
:105AF8003C6E0D00007CFEF7DFBF0000F8B5194CC6
:105B080025684DB98420FEF7C2FA064618B18422EA
:105B1800294600F0EEFF2660134D2E684EB984200A
:105B2800FEF7B5FA074618B18422314600F0E1FFC6
:105B38002F600E4F396811F0010611D13846FEF773
:105B4800ACFA68B122682B6809483146FFF7BCFFF8
:105B58003846FEF7A7FA074A0749054800F060F9F2
:105B68000348F8BDF4E60320ECE60320F0E6032042
:105B7800D8E60320F8E303207D5A0D0041747047EE
:105B880070470021007CFEF7C7BF0121007CFEF7AB
:105B9800C3BF007CFEF7B8BF007CFEF7ADBF38B5C9
:105BA8000446007C0D46FEF7AFFF002801DC607C50
:105BB80020B12946207CFEF7B7FF012038BD007CC4
:105BC800FEF7BABF10B50446FEF763FA204610BDCB
:105BD80010B50446002363604FF47A73A360054B45
:105BE800236001230846217463741146FEF774FF8D
:105BF800204610BD6C6E0D000022007CFEF774BFBD
:105C080010B514220446002100F073FF204610BD91
:105C180030B50E4D87B001A8FFF7F2FF296811F0E3
:105C2800010410D12846FEF738FA60B101AA2146CE
:105C38000748FFF7CDFF2846FEF734FA054A06491C
:105C4800034800F0EDF8024807B030BDF8E603203D
:105C5800FCE60320F8E30320895B0D0008B50C4B34
:105C680033B1FFF7D5FF03681B699847002809DCA3
:105C7800084B63B1FFF742FF03681B699847002888
:105C880003DC08BDAFF30080F2E7AFF3008008BD86
:105C9800000000000000000008B5FFF7DFFFFEF776
:105CA80053FE014B186008BD14E7032007B5002315
:105CB80000931A466FF07701FEF778FF03B05DF89E
:105CC80004FB000007B543880A2B08D0502B09D1E4
:105CD800094B1B683BB103B05DF804EB1847FFF7AD
:105CE800E5FF06E0002300931A466FF07701FEF700
:105CF8005DFF03B05DF804FB10E7032010B5FEF765
:105D080013FE044600F0FEFE074B13B12046AFF326
:105D1800008000210448FEF75BFF00210348BDE82E
:105D28001040FEF739BF00BF00000000CD5C0D0039
:105D380010B504460F48FFF783FE28B1A4F10B0302
:105D4800022B01D8002010BD00F028F8FFF75EFBF9
:105D580008B1012CF6D9FFF7D1FEFFF7CBFE18B139
:105D6800A4F10903012BEDD9232C8CBF00200120BD
:105D780010BD00BF30E70320232838B504460D4680
:105D88000AD8FF2908D0FFF7D3FF28B129462046B3
:105D9800BDE83840FEF7E8BD38BD000038B50B4D0A
:105DA800296811F001040FD12846FEF776F958B199
:105DB80021460748FFF718FB2846FEF773F9054AFE
:105DC8000549034800F02CF8014838BD18E70320BE
:105DD8001CE70320F8E3032099530D0070B50C4C21
:105DE8000C4E0D4D00212046FFF716FE20460B4CA9
:105DF8003246294600F014F801212046FFF70CFE30
:105E0800324629462046BDE8704000F009B800BF78
:105E180030E70320F8E30320115A0D0040E7032080
:105E28000B460146184600F04BBE08B5FEF740FF8A
:105E3800244B1A68D0075CBF01221A60224B1A68EB
:105E4800D1075CBF01221A60204B1A68D2075CBFD9
:105E580001221A601E4B1A68D0075CBF01221A6023
:105E68001C4B1A68D1075CBF01221A601A4B1A68CA
:105E7800D2075CBF01221A60184B1A68D0075CBFB2
:105E880001221A60164B1A68D1075CBF01221A60FA
:105E9800144B1A68D2075CBF01221A60124B1A68A9
:105EA800D0075CBF01221A60104B1A68D1075CBF8B
:105EB80001221A600E4B1A68D2075CBF01221A60D1
:105EC800704700BF7CE7032078E7032074E70320CE
:105ED80070E703206CE7032068E7032064E70320EA
:105EE80060E703205CE7032058E7032054E703201A
:105EF80050E70320184B1A68D1075CBF01221A60CB
:105F0800164B1A68D2075CBF01221A60144B1A6834
:105F1800D0075CBF01221A60124B1A68D1075CBF18
:105F280001221A60104B1A68D2075CBF01221A605E
:105F38000E4B1A68D0075CBF01221A600C4B1A6816
:105F4800D1075CBF01221A600A4B1A68D2075CBFEE
:105F580001221A60704700BF9CE7032098E70320DE
:105F680094E7032090E703208CE7032088E70320C9
:105F780084E7032080E70320184B1A68D1075CBF29
:105F880001221A60164B1A68D2075CBF01221A60F8
:105F9800144B1A68D0075CBF01221A60124B1A68AA
:105FA800D1075CBF01221A60104B1A68D2075CBF88
:105FB80001221A600E4B1A68D0075CBF01221A60D2
:105FC8000C4B1A68D1075CBF01221A600A4B1A6889
:105FD800D2075CBF01221A60704700BFBCE70320EC
:105FE800B8E70320B4E70320B0E70320ACE70320B9
:105FF800A8E70320A4E70320A0E70320244B1A689E
:10600800D0075CBF01221A60224B1A68D1075CBF17
:1060180001221A60204B1A68D2075CBF01221A605D
:106028001E4B1A68D0075CBF01221A601C4B1A6805
:10603800D1075CBF01221A601A4B1A68D2075CBFED
:1060480001221A60184B1A68D0075CBF01221A6037
:10605800164B1A68D1075CBF01221A60144B1A68E4
:10606800D2075CBF01221A60124B1A68D0075CBFC6
:1060780001221A60104B1A68D1075CBF01221A600E
:106088000E4B1A68D2075CBF01221A60704700BF26
:10609800ECE70320E8E70320E4E70320E0E7032038
:1060A800DCE70320D8E70320D4E70320D0E7032068
:1060B800CCE70320C8E70320C4E70320C0E7032098
:1060C80081F0004102E000BF83F0004330B54FEAA1
:1060D80041044FEA430594EA050F08BF90EA020F0E
:1060E8001FBF54EA000C55EA020C7FEA645C7FEAA1
:1060F800655C00F0E2804FEA5454D4EB5555B8BFC4
:106108006D420CDD2C4480EA020281EA030382EA34
:10611800000083EA010180EA020281EA0303362DC6
:1061280088BF30BD11F0004F4FEA01314FF4801C99
:106138004CEA113102D0404261EB410113F0004FAB
:106148004FEA03334CEA133302D0524263EB430362
:1061580094EA050F00F0A780A4F10104D5F1200E00
:106168000DDB02FA0EFC22FA05F2801841F100015B
:1061780003FA0EF2801843FA05F359410EE0A5F12F
:1061880020050EF1200E012A03FA0EFC28BF4CF060
:10619800020C43FA05F3C01851EBE37101F0004516
:1061A80007D54FF0000EDCF1000C7EEB00006EEB23
:1061B8000101B1F5801F1BD3B1F5001F0CD34908AD
:1061C8005FEA30004FEA3C0C04F101044FEA445204
:1061D80012F5800F80F09A80BCF1004F08BF5FEA8B
:1061E800500C50F1000041EB045141EA050130BD6B
:1061F8005FEA4C0C404141EB010111F4801FA4F10E
:106208000104E9D191F0000F04BF01460020B1FA62
:1062180081F308BF2033A3F10B03B3F120020CDA9A
:106228000C3208DD02F1140CC2F10C0201FA0CF078
:1062380021FA02F10CE002F11402D8BFC2F1200CDD
:1062480001FA02F120FA0CFCDCBF41EA0C01904093
:10625800E41AA2BF01EB0451294330BD6FEA0404DC
:106268001F3C1CDA0C340EDC04F11404C4F12002C7
:1062780020FA04F001FA02F340EA030021FA04F3D9
:1062880045EA030130BDC4F10C04C4F1200220FA30
:1062980002F001FA04F340EA0300294630BD21FA6E
:1062A80004F0294630BD94F0000F83F4801306BF34
:1062B80081F480110134013D4EE77FEA645C18BF28
:1062C8007FEA655C29D094EA050F08BF90EA020FBF
:1062D80005D054EA000C04BF1946104630BD91EAB7
:1062E800030F1EBF0021002030BD5FEA545C05D1BA
:1062F8004000494128BF41F0004130BD14F58004F9
:106308003CBF01F5801130BD01F0004545F0FE416C
:1063180041F470014FF0000030BD7FEA645C1ABFA1
:10632800194610467FEA655C1CBF0B46024650EAD8
:10633800013406BF52EA033591EA030F41F4002104
:1063480030BD00BF90F0000F04BF0021704730B58A
:106358004FF4806404F132044FF000054FF000015F
:1063680050E700BF90F0000F04BF0021704730B520
:106378004FF4806404F1320410F0004548BF4042F5
:106388004FF000013EE700BF42004FEAE2014FEA4A
:1063980031014FEA02701FBF12F07F4393F07F4F25
:1063A80081F06051704792F0000F14BF93F07F4F57
:1063B800704730B54FF4607401F0004521F000419A
:1063C80020E700BF50EA010208BF704730B54FF020
:1063D80000050AE050EA010208BF704730B511F025
:1063E800004502D5404261EB41014FF4806404F15D
:1063F80032045FEA915C3FF4DCAE4FF003025FEADF
:10640800DC0C18BF03325FEADC0C18BF033202EB66
:10641800DC02C2F1200300FA03FC20FA02F001FAC0
:1064280003FE40EA0E0021FA02F11444C1E600BF5F
:1064380070B54FF0FF0C4CF4E06C1CEA11541DBF12
:106448001CEA135594EA0C0F95EA0C0F00F0DEF8DD
:106458002C4481EA030621EA4C5123EA4C5350EAC2
:10646800013518BF52EA033541F4801143F4801313
:1064780038D0A0FB02CE4FF00005E1FB02E506F0A4
:106488000042E0FB03E54FF00006E1FB03569CF0F9
:10649800000F18BF4EF0010EA4F1FF04B6F5007FFF
:1064A80064F5407404D25FEA4E0E6D4146EB060671
:1064B80042EAC62141EA55514FEAC52040EA5E50FA
:1064C8004FEACE2EB4F1FD0C88BFBCF5E06F1ED8A4
:1064D800BEF1004F08BF5FEA500E50F1000041EBDB
:1064E800045170BD06F0004646EA010140EA020088
:1064F80081EA0301B4EB5C04C2BFD4EB0C0541EAAA
:10650800045170BD41F480114FF0000E013C00F3BE
:10651800AB8014F1360FDEBF002001F0004170BDE2
:10652800C4F10004203C35DA0C341BDC04F11404FB
:10653800C4F1200500FA05F320FA04F001FA05F287
:1065480040EA020001F0004221F0004110EBD37054
:1065580021FA04F642EB06015EEA430E08BF20EA80
:10656800D37070BDC4F10C04C4F1200500FA04F323
:1065780020FA05F001FA04F240EA020001F00041B5
:1065880010EBD37041F100015EEA430E08BF20EA28
:10659800D37070BDC4F1200500FA05F24EEA020E70
:1065A80020FA04F301FA05F243EA020321FA04F09F
:1065B80001F0004121FA04F220EA020000EBD37056
:1065C8005EEA430E08BF20EAD37070BD94F0000F56
:1065D8000FD101F00046400041EB010111F4801F8A
:1065E80008BF013CF7D041EA060195F0000F18BF3B
:1065F800704703F00046520043EB030313F4801F77
:1066080008BF013DF7D043EA0603704794EA0C0F30
:106618000CEA135518BF95EA0C0F0CD050EA410646
:1066280018BF52EA4306D1D181EA030101F00041C3
:106638004FF0000070BD50EA410606BF10461946EB
:1066480052EA430619D094EA0C0F02D150EA0136F7
:1066580013D195EA0C0F05D152EA03361CBF104638
:1066680019460AD181EA030101F0004141F0FE41D7
:1066780041F470014FF0000070BD41F0FE4141F45B
:10668800780170BD70B54FF0FF0C4CF4E06C1CEA5B
:1066980011541DBF1CEA135594EA0C0F95EA0C0F10
:1066A80000F0A7F8A4EB050481EA030E52EA0335CB
:1066B8004FEA013100F088804FEA03334FF08055EC
:1066C80045EA131343EA12634FEA022245EA111519
:1066D80045EA10654FEA00260EF000419D4208BFCA
:1066E800964244F1FD0404F5407402D25B084FEA77
:1066F8003202B61A65EB03055B084FEA32024FF423
:1067080080104FF4002CB6EB020E75EB030E22BF7F
:10671800B61A754640EA0C005B084FEA3202B6EB3F
:10672800020E75EB030E22BFB61A754640EA5C00EE
:106738005B084FEA3202B6EB020E75EB030E22BF7E
:10674800B61A754640EA9C005B084FEA3202B6EB7F
:10675800020E75EB030E22BFB61A754640EADC003E
:1067680055EA060E18D04FEA051545EA16754FEAA0
:1067780006164FEAC30343EA52734FEAC2025FEABE
:106788001C1CC0D111F4801F0BD141EA00014FF04D
:1067980000004FF0004CB6E711F4801F04BF01431E
:1067A8000020B4F1FD0C88BFBCF5E06F3FF6AFAE3A
:1067B800B5EB030C04BFB6EB020C5FEA500C50F1CA
:1067C800000041EB045170BD0EF0004E4EEA11314D
:1067D80014EB5C04C2BFD4EB0C0541EA045170BD54
:1067E80041F480114FF0000E013C90E645EA060E98
:1067F8008DE60CEA135594EA0C0F08BF95EA0C0FC6
:106808003FF43BAF94EA0C0F0AD150EA01347FF40D
:1068180034AF95EA0C0F7FF425AF104619462CE7E4
:1068280095EA0C0F06D152EA03353FF4FDAE104647
:10683800194622E750EA410618BF52EA43067FF498
:10684800C5AE50EA41047FF40DAF52EA43057FF428
:10685800EBAE12E74FF0FF3C06E000BF4FF0010C33
:1068680002E000BF4FF0010C4DF804CD4FEA410C97
:106878007FEA6C5C4FEA430C18BF7FEA6C5C1BD064
:1068880001B050EA410C0CBF52EA430C91EA030FE5
:1068980002BF90EA020F0020704710F1000F91EA42
:1068A800030F58BF994208BF90422CBFD8176FEA10
:1068B800E37040F0010070474FEA410C7FEA6C5CDE
:1068C80002D150EA013C07D14FEA430C7FEA6C5CE5
:1068D800D6D152EA033CD3D05DF8040B704700BF11
:1068E8008446104662468C461946634600E000BF5F
:1068F80001B5FFF7B7FF002848BF10F1000F01BD31
:106908004DF808EDFFF7F4FF0CBF012000205DF8FB
:1069180008FB00BF4DF808EDFFF7EAFF34BF012080
:1069280000205DF808FB00BF4DF808EDFFF7E0FF19
:1069380094BF012000205DF808FB00BF4DF808ED6A
:10694800FFF7CEFF94BF012000205DF808FB00BFD1
:106958004DF808EDFFF7C4FF34BF012000205DF8B3
:1069680008FB00BF4FEA410C7FEA6C5C02D150EA99
:10697800013C0AD14FEA430C7FEA6C5C02D152EA2F
:10698800033C02D14FF0000070474FF00100704700
:106998004FEA410212F5001215D211D56FF478733F
:1069A800B3EB625212D94FEAC12343F0004343EAE2
:1069B800505311F0004F23FA02F018BF40427047BD
:1069C8004FF00000704750EA013005D111F0004047
:1069D80008BF6FF0004070474FF00000704700BFDD
:1069E8004A0011D212F5001211D20DD56FF4787346
:1069F800B3EB62520ED44FEAC12343F0004343EA9B
:106A0800505323FA02F070474FF00000704750EAE5
:106A1800013002D14FF0FF3070474FF0000070474F
:106A28004FEA4102B2F1E04324BFB3F5001CDCF1A8
:106A3800FE5C0DD901F0004C4FEAC0024CEA5070E0
:106A4800B2F1004F40EB830008BF20F0010070470F
:106A580011F0804F21D113F13872BCBF01F0004012
:106A6800704741F480114FEA5252C2F11802C2F144
:106A7800200C10FA0CF320FA02F018BF40F00100C5
:106A88004FEAC1234FEAD32303FA0CFC40EA0C0077
:106A980023FA02F34FEA4303CCE77FEA625307D1B4
:106AA80050EA01331EBF4FF0FE4040F440007047EB
:106AB80001F0004040F0FE4040F40000704700BF85
:106AC80010B5054C13462CB10A4601460220AFF317
:106AD800008010BD204610BD0000000010B5431E08
:106AE8000A44914204D011F8014B03F8014FF8E72A
:106AF80010BD02440346934202D003F8011BFAE793
:106B08007047000038B5124B1C68A36B0546D3B913
:106B18001820FEF7B5F843F20E33A06303804AF657
:106B2800CD33438041F2342383804EF26D63C380BA
:106B38004DF6EC630381052343810B2383810122F6
:106B48000023C0E90423A36B00221D615A6138BDEC
:106B5800F4E30320024B0146186800F003B800BFB5
:106B6800F4E3032070B5064608460C4600F00DF81D
:106B7800451C29463046FEF7A3F8064618B12A46B2
:106B88002146FFF7ABFF304670BD034613F8012BD3
:106B9800002AFBD1181A0138704700001D400D006B
:106BA80059400D0085400D0089400D00000000008F
:106BB80025322E3266006473546D7000496E76611A
:106BC8006C69642072656164696E67005075626CF7
:106BD800697368696E67206E6F772E000000000089
:106BE80000000000634D0D00594D0D004F4D0D0084
:106BF800054D0D00434D0D00374D0D002B4D0D007B
:106C0800234D0D00194D0D000F4D0D00B5560D000B
:106C18000000000000000000AD4D0D00B34D0D0058
:106C2800DB4D0D00BF4D0D00AF4D0D000000000005
:106C3800000000007B530D0071530D0067530D00D9
:106C48005D530D0051530D0045530D0039530D0090
:106C580031530D0027530D001D530D00B5560D007F
:106C6800000000000000000099530D00E3530D00E0
:106C7800BB530D009B530D00C3530D00CB530D00A8
:106C8800D3530D00DB530D0000000000000000008E
:106C980033540D0025540D0027540D006C6E00660A
:106CA8006E00636F64650064657461696C000D0A49
:106CB80000253031307520005D20002564002C202F
:106CC8000028293A2000205B00636F6465203D207E
:106CD8000025690064657461696C73203D20006259
:106CE8006175640053657269616C0053657269610E
:106CF8006C31007479706500706172616D00636D4C
:106D08006400696400686E64007374726D0066697B
:106D18006C74006C766C0061646448616E646C65C8
:106D2800720072656D6F766548616E646C6572009D
:106D3800656E756D48616E646C657273004A534F79
:106D48004E53747265616D4C6F6748616E646C6513
:106D58007200617070006E6F6E65007472616365B9
:106D680000696E666F007761726E006572726F728D
:106D78000070616E696300616C6C000000000000C7
:106D88000000000077550D006D550D0063550D008E
:106D980059550D004D550D0041550D0035550D0047
:106DA8002D550D0023550D0019550D00B5560D0034
:106DB80000000000000000004D560D0057560D0061
:106DC80061560D006B560D0075560D0081560D006D
:106DD8008D560D0099560D00A1560D00AB560D00AD
:106DE800B5560D006E616E006F766600696E6600BE
:106DF8000000000000000000115A0D00135A0D0099
:106E08005A00252B3033643A253032750025592D28
:106E1800256D2D25645425483A254D3A2553257A64
:106E28000061736374696D65000000000000000074
:106E3800000000007D5A0D00A15A0D00AD5A0D004A
:106E48004D570D00895A0D00955A0D008F5A0D00A7
:106E58009B5A0D007F5A0D00835A0D000000000058
:106E680000000000895B0D00CD5B0D00A75B0D00E5
:106E78004D570D00A15B0D008B5B0D00935B0D0062
:106E8800C75B0D009B5B0D00855B0D0000000000DB
:106E980000000000000000000000000000000000EA
:106EA80000000000000000000000000000000000DA
:106EB80000000000000000000000000000000000CA
:106EC80000000000000000000000000000000000BA
:106ED80000000000000000000000000000000000AA
:106EE8000000000000000000000000004300000057
:106EF8002D420D00E1440D00E5440D00E9440D006C
:106F0800D1480D006D4D0D0085530D0009550D003C
:106F180001560D0039570D00F5590D00515A0D0055
:106F2800695A0D00E55D0D00395E0D00FD5E0D002E
:086F3800815F0D0005600D00F2
:106F4000296E0D0000000000946E0D00B46E0D005F
:106F5000D46E0D00000000000000000000000000E2
:106F600000000000F46E0D000000000000000000B2
:106F70000000000000000000000000000000000011
:106F80000000000000000000000000000000000001
:106F900000000000000000000000000000000000F1
:086FA0000000000094E303204F
:106FA800FFFFFFFF00000102030405060708090AA6
:106FB8000B0C0D0E0F101112131415161718191AA1
:086FC8001B1C1D1E1F202800E8
:046FD00078563412A9
:04000003D0004018D1
:00000001FF
