:02000002D0002C
:1040000000400D00B4550D00000005000D00050135
:0840100004019301000000000F
:10401800D8510D0009480A49884208B505D0094A0F
:10402800824202D0121A01F08FF80748074A00218D
:10403800121A01F094F8014808BD00BF08E40320F3
:1040480020550D0074E4032074E40320F0E70320F6
:1040580070B500F073FE074C074BE41AA40800255E
:104068001E46A54204D056F8253098470135F8E792
:1040780070BD00BF14550D00DC540D0000F016B8DB
:1040880008B500F027F8BDE8084000F025BE00F0AC
:10409800EDB900F0F3B900F0F1B90078B0FA80F0AA
:1040A80040097047012303707047000008B50748AE
:1040B800002319461A46406800F0B0F9044B012164
:1040C8001888BDE8084000F077BE00BF80E40320F0
:1040D80008E4032010B5094C0121208800F07DFE7A
:1040E8004FF47A7000F0D2F92088002100F075FEB4
:1040F8004FF47A70BDE8104000F0C8B908E4032016
:1041080008B500F047F8064B00221A705A804FF69F
:10411800FF729A800220BDE8084000F02BB900BF6A
:1041280078E4032008B5024B1B689B68019308BD1F
:104138004802030008B5024B1B681B69019308BDC0
:104148004802030008B5024B1B685B69019308BD70
:104158004802030008B5024B1B681B6B019308BD9E
:104168004802030008B5024B1B685B6C019308BD4D
:104178004802030008B5024B1B685B68019308BD41
:104188001802030008B5024B1B685B69019308BD60
:104198001802030008B5024B1B681B68019308BD91
:1041A8002C02030008B5024B1B689B68019308BDED
:1041B8002C02030008B5024B1B68DB68019308BD9D
:1041C8002C02030008B5024B1B681B69019308BD4C
:1041D8002C02030008B5024B1B681B6A019308BD3B
:1041E8002802030008B5024B1B685B6A019308BDEF
:1041F8002802030008B5024B1B689B6A019308BD9F
:104208002802030008B5024B1B68DB6A019308BD4E
:104218002802030008B5024B1B681B6B019308BDFD
:104228002802030008B5024B1B685B6B019308BDAD
:104238002802030008B5024B1B681B6C019308BDDC
:104248002802030008B5024B1B685B69019308BD8F
:104258006402030008B5024B1B689B68019308BD04
:104268006802030008B5024B1B68DB68019308BDB0
:104278006802030008B5024B1B68DB69019308BD9F
:104288003002030008B5024B1B681B6A019308BD86
:104298003002030008B5024B1B681B68019308BD78
:1042A8003C02030008B5024B1B68DB68019308BD9C
:1042B8003C02030008B5024B1B681B69019308BD4B
:1042C8003C02030008B5024B1B685B69019308BDFB
:1042D8003C02030008B5024B1B689B69019308BDAB
:1042E8003C02030008B5024B1B68DB69019308BD5B
:1042F8003C02030008B5024B1B681B6A019308BD0A
:104308003C02030008B5024B1B689B6A019308BD79
:104318003C02030008B5024B1B681B68019308BDEB
:104328004C02030008B5024B1B681B69019308BDCA
:104338004C02030008B5024B1B685B69019308BD7A
:104348004C02030008B5024B1B689B69019308BD2A
:104358004C02030008B5024B1B68DB69019308BDDA
:104368004C02030008B5024B1B681B6A019308BD89
:104378004C02030008B5024B1B685B68019308BD3B
:104388002002030008B5024B1B685B69019308BD56
:104398002002030008B5034B1B68D3F8883001934B
:1043A80008BD00002002030008B5034B1B68D3F8C2
:1043B8009430019308BD00002002030008B5024BA9
:1043C8001B68DB6B019308BD4402030008B5024B70
:1043D8001B685B68019308BD4002030008B5024BE7
:1043E8001B689B68019308BD4002030008B5024B97
:1043F8001B68DB68019308BD4002030008B5024B47
:104408001B681B69019308BD4002030008B5024BF5
:104418001B685B69019308BD4002030008B5024BA5
:104428001B689B69019308BD4002030008B5024B55
:104438001B68DB69019308BD4002030008B5024B05
:104448001B681B6A019308BD4002030008B5024BB4
:104458001B681B6B019308BD4002030008B5024BA3
:104468001B685B6B019308BD4002030008B5024B53
:104478001B681B68019308BD1C02030008B5024BAA
:104488001B685B68019308BD1C0203000021FFF74D
:1044980079BF002211464068FFF7B0BF00221146DD
:1044A8004068FFF7CBBF002211464068FFF7D6BF30
:1044B80000224068FFF7CABF002281F0010140686E
:1044C800FFF7B4BF00231A4619464068FFF7A6BF96
:1044D80000231A4619464068FFF798BF0022114684
:1044E8004068FFF77BBF002202214068FFF77EBFCC
:1044F80000231A464068FFF769BF000038B50C4D25
:10450800282422460021284600F029FE4FF0FF33D8
:104518006B602C80074D042328466B60064B40F8DF
:10452800083B2246002100F01AFE2C8138BD00BF4E
:10453800B0E4032080E40320F4510D0010B5836833
:10454800044613B1032201469847204610BD0022B5
:1045580011464068FFF772BF002211464068FFF716
:104568007DBF00224068FFF771BF002281F0010182
:104578004068FFF75BBF00231A4619464068FFF7FB
:104588004DBF00231A4619464068FFF73FBF002277
:1045980011464068FFF732BF002211464068FFF716
:1045A8001DBF002202214068FFF720BF00231A46E2
:1045B8004068FFF70BBF0000024B03225A60024A13
:1045C8001A607047D8E4032028520D007047F8B5E8
:1045D800064615460C468F18BC4206D0336814F8B8
:1045E800011B9B6830469847F6E72846F8BD00222D
:1045F800007CFFF7EFBD0021007CFFF7F3BD002131
:10460800007CFFF7F7BD0021007CFFF7FBBD002110
:10461800007CFFF7FFBD10B50446FFF73AFD2046C2
:1046280010BD000010B504464FF47A730846A36025
:104638000021044B207461602360FFF7FBFD2046D6
:1046480010BD00BF5C520D000021007CFFF7EABDE1
:10465800704710B50446FFF71CFD204610BDF0B5A5
:10466800037D062B8DB00E4600F104074FF00004C1
:1046780002D000F1080518E00CAD394605F8304DB8
:104688002F232A460A20FFF7DDFD284600F098FD73
:1046980033680246DB682946304698470FE024B164
:1046A8002E21304600F08EF9044415F8011D0A2227
:1046B800304600F0B7F9BD420444F0D120460DB0B1
:1046C800F0BD000010B5054B0446112240F8043B2C
:1046D800002100F044FD204610BD00BF84520D00AB
:1046E8000346074A10B543F8042B01F1100251F8AC
:1046F800044B43F8044B9142F9D10A781A7010BD63
:1047080084520D0010B59DF8084044EA032343EA9B
:10471800024242EA016104234160037510BD37B5C6
:104728000D788B784A78C97800912946FFF7EAFF17
:1047380003B030BD014B024A1A607047E0E4032021
:1047480048530D00002211464068FFF777BE00224B
:1047580011464068FFF782BE00224068FFF776BE28
:10476800002281F001014068FFF760BE00231A466D
:1047780019464068FFF752BE00231A46194640689A
:10478800FFF744BE002211464068FFF737BE0022FB
:1047980011464068FFF722BE002202214068FFF759
:1047A80025BE00231A464068FFF710BE10B1036803
:1047B8005B681847704738B504460068D0B1FFF702
:1047C800B1FCB8B9237C1BB9206808B1FFF7B2FC6B
:1047D800656855B1AB681BB103222946284698473E
:1047E8002846FFF756FC002363602068FFF7AAFC01
:1047F8000023236038BD000038B50B4B0360044626
:10480800D0F8CC0108B1FFF746FCD4F8C4512DB15B
:104818002846FFF7D0FF2846FFF73BFCA06808B101
:10482800FFF7C4FF204638BD7C530D0038B50D4C4A
:104838000D4B23600025022304F5E4706360A56036
:10484800C4F8C451C4F8C851FFF78CFC074BC4F82E
:10485800CC5123602046064A0649BDE8384000F09E
:1048680017BB00BFE4E40320B0530D007C530D00D8
:1048780074E4032001480D0000231A464068FFF73E
:10488800A5BD002202214068FFF7B0BD00221146F5
:104898004068FFF7A3BD002211464068FFF7AEBD90
:1048A80000231A4619464068FFF7B0BD00231A4690
:1048B80019464068FFF7B2BD002281F00101406847
:1048C800FFF7B4BD00224068FFF7C0BD00221146C3
:1048D8004068FFF7C3BD002211464068FFF7AEBD30
:1048E80070B58CB014460646FFF7ECFE0CAB002200
:1048F800114643F8302D2046FFF7B4FC014658BB5B
:10490800009B4BB35A68022A0ED00A2A24D15C694C
:10491800112201A800F023FC06238DF8143001AD04
:1049280004F10803183405E0596930460431FFF7EB
:10493800F6FE11E0186859682A4603C20833A342F4
:104948001546F7D101A906A807ADFFF7C9FE0FCD97
:10495800341D0FC42B6823700098FFF77BFC30468A
:104968000CB070BD024B034A1A6000225A607047AF
:10497800B4E60320B0530D00F8B506460D468F186F
:104988000024BD420CD0336815F8011B9B683046E3
:104998009847002801DB0444F3E7002C08BF0446CD
:1049A8002046F8BD70B505460C46084649B100F0EA
:1049B80007FC2B68024621462846DB68BDE87040A4
:1049C800184770BD03689B68184730B58BB00B4615
:1049D80000218DF82410012A98BF0A220DF1230422
:1049E800B3FBF2F505FB123303F0FF03092B94BF69
:1049F80030333733DBB2214604F801392B46002D1A
:104A0800EED1FFF7CFFF0BB030BD10B42AB9036861
:104A18005DF8044B9B68C9B21847D2B25DF8044BE5
:104A2800FFF7D3BFFFF7F1BF10B50446FFF786FDC8
:104A3800204610BD0348044A04490023836000F05F
:104A480027BA00BFBCE6032074E40320314A0D00F6
:104A5800704710B50446FFF71CFB204610BD000048
:104A680070B5084B0360044600250E4640F80C5FFD
:104A7800FFF770FB30462671FFF7FCFBA560204668
:104A880070BD00BFE4530D000079FFF7FBBB0000C9
:104A9800044B00204FF6FF72187058809A80FFF779
:104AA80069BC00BFCCE60320024B1A68024B1A60AF
:104AB800704700BF0CE40320D4E60320704741741C
:104AC8007047007CFFF71EBC007CFFF7F3BB007C3F
:104AD800FFF700BC007CFFF7F5BB007CFFF702BCCA
:104AE80010B50446FFF7D5FA204610BD70B5457CD1
:104AF80004460E4625B9007CFFF704FC002805DDB6
:104B08003146207CBDE87040FFF7CCBB284670BD1D
:104B180010B5044608461146002262604FF47A72C6
:104B2800A260054A22600122207462741A46FFF7C7
:104B3800B1FB204610BD00BF20540D00007CFFF7DC
:104B4800D9BB0000F8B5194C25684DB98420FFF78A
:104B58009EFA064618B18422294600F000FB26601A
:104B6800134D2E684EB98420FFF791FA074618B105
:104B78008422314600F0F3FA2F600E4F396811F0A5
:104B8800010611D13846FFF788FA68B122682B6808
:104B980009483146FFF7BCFF3846FFF783FA074A52
:104BA8000749054800F074F90348F8BDF4E6032006
:104BB800ECE60320F0E60320D8E6032074E40320A3
:104BC800C54A0D004174704770470021007CFFF70B
:104BD800B9BB0121007CFFF7B5BB007CFFF7AABB7E
:104BE800007CFFF79FBB38B50446007C0D46FFF7F5
:104BF800A1FB002801DC607C20B12946207CFFF75E
:104C0800A9FB012038BD007CFFF7ACBB10B50446FA
:104C1800FFF73FFA204610BD10B504460023636035
:104C28004FF47A73A360054B23600123084621746F
:104C380063741146FFF76EFB204610BD50540D00FB
:104C480010B514220446002100F089FA204610BD50
:104C580030B50E4D87B001A8FFF7F2FF296811F0B3
:104C6800010410D12846FFF718FA60B101AA2146BD
:104C78000748FFF7D1FF2846FFF714FA054A064907
:104C8800034800F005F9024807B030BDF8E60320F4
:104C9800FCE6032074E40320D14B0D0008B50C4B4F
:104CA80033B1FFF7D5FF03681B699847002809DC73
:104CB800084B63B1FFF746FF03681B699847002854
:104CC80003DC08BDAFF30080F2E7AFF3008008BD56
:104CD800000000000000000008B5FFF7DFFFFFF745
:104CE80051FA014B186008BD14E7032007B50023EB
:104CF80000931A466FF07701FFF756FB03B05DF893
:104D080004FB000007B543880A2B08D0502B09D1B3
:104D1800094B1B683BB103B05DF804EB1847FFF77C
:104D2800E5FF06E0002300931A466FF07701FFF7CE
:104D38003BFB03B05DF804FB10E7032010B5FFF759
:104D480019FA044600F014FA074B13B12046AFF3E2
:104D5800008000210448FFF731FB00210348BDE82B
:104D68001040FFF717BB00BF000000000D4D0D00FD
:104D780010B504460F48FFF787FE28B1A4F10B03CE
:104D8800022B01D8002010BD00F040F8FFF75CFCB2
:104D980008B1012CF6D9FFF7D5FEFFF7CFFE18B101
:104DA800A4F10903012BEDD9232C8CBF002001208D
:104DB80010BD00BF30E70320232838B504460D4650
:104DC8000AD8FF2908D0FFF7D3FF28B12946204683
:104DD800BDE83840FFF7E6B938BD38B504460D469A
:104DE800FFF7E8F9FF2810D0062804D84D2323FA46
:104DF80000F0C30709D42046FFF7BAFF28B12946B7
:104E08002046BDE83840FFF7DDB938BD38B50B4D51
:104E1800296811F001040FD12846FFF73EF958B16F
:104E280021460748FFF7FEFB2846FFF73BF9054AEE
:104E38000549034800F02CF8014838BD18E703205D
:104E48001CE7032074E40320D5450D0070B50C4C15
:104E58000C4E0D4D00212046FFF702FE20460B4C5C
:104E68003246294600F014F801212046FFF7F8FDE4
:104E7800324629462046BDE8704000F009B800BF18
:104E880030E7032074E40320594A0D0040E703206B
:104E98000B460146184600F049B90000244B1A6831
:104EA800D0075CBF01221A60224B1A68D1075CBF89
:104EB80001221A60204B1A68D2075CBF01221A60CF
:104EC8001E4B1A68D0075CBF01221A601C4B1A6877
:104ED800D1075CBF01221A601A4B1A68D2075CBF5F
:104EE80001221A60184B1A68D0075CBF01221A60A9
:104EF800164B1A68D1075CBF01221A60144B1A6856
:104F0800D2075CBF01221A60124B1A68D0075CBF37
:104F180001221A60104B1A68D1075CBF01221A607F
:104F28000E4B1A68D2075CBF01221A60704700BF97
:104F38007CE7032078E7032074E7032070E7032069
:104F48006CE7032068E7032064E7032060E7032099
:104F58005CE7032058E7032054E7032050E70320C9
:104F6800184B1A68D1075CBF01221A60164B1A68E1
:104F7800D2075CBF01221A60144B1A68D0075CBFC5
:104F880001221A60124B1A68D1075CBF01221A600D
:104F9800104B1A68D2075CBF01221A600E4B1A68C0
:104FA800D0075CBF01221A600C4B1A68D1075CBF9E
:104FB80001221A600A4B1A68D2075CBF01221A60E4
:104FC800704700BF9CE7032098E7032094E703207D
:104FD80090E703208CE7032088E7032084E7032079
:104FE80080E70320184B1A68D1075CBF01221A60BA
:104FF800164B1A68D2075CBF01221A60144B1A6854
:10500800D0075CBF01221A60124B1A68D1075CBF37
:1050180001221A60104B1A68D2075CBF01221A607D
:105028000E4B1A68D0075CBF01221A600C4B1A6835
:10503800D1075CBF01221A600A4B1A68D2075CBF0D
:1050480001221A60704700BFBCE70320B8E70320BD
:10505800B4E70320B0E70320ACE70320A8E7032068
:10506800A4E70320A0E70320244B1A68D0075CBFFD
:1050780001221A60224B1A68D1075CBF01221A600C
:10508800204B1A68D2075CBF01221A601E4B1A68AF
:10509800D0075CBF01221A601C4B1A68D1075CBF9D
:1050A80001221A601A4B1A68D2075CBF01221A60E3
:1050B800184B1A68D0075CBF01221A60164B1A6891
:1050C800D1075CBF01221A60144B1A68D2075CBF73
:1050D80001221A60124B1A68D0075CBF01221A60BD
:1050E800104B1A68D1075CBF01221A600E4B1A6870
:1050F800D2075CBF01221A60704700BFECE70320AB
:10510800E8E70320E4E70320E0E70320DCE70320E7
:10511800D8E70320D4E70320D0E70320CCE7032017
:10512800C8E70320C4E70320C0E7032010B5054CF7
:1051380013462CB10A4601460220AFF3008010BD89
:10514800204610BD0000000010B5431E0A449142DD
:1051580004D011F8014B03F8014FF8E710BD0244E1
:105168000346934202D003F8011BFAE77047000098
:1051780038B5124B1C68A36B0546D3B91820FFF746
:1051880075F943F20E33A06303804AF6CD334380AA
:1051980041F2342383804EF26D63C3804DF6EC6395
:1051A8000381052343810B23838101220023C0E966
:1051B8000423A36B00221D615A6138BD70E40320EB
:1051C800034613F8012B002AFBD1181A013870473F
:1051D8001D400D0059400D0085400D0089400D000F
:1051E800000000000000000000000000F9440D006D
:1051F800EF440D00E5440D009B440D00D9440D001B
:10520800CD440D00C1440D00B9440D00AF440D005C
:10521800A5440D00E9480D00000000000000000052
:10522800B5450D00AB450D00A1450D0097450D0096
:105238008B450D007F450D0073450D006B450D0036
:1052480061450D0057450D00E9480D0000000000BC
:1052580000000000D5450D001F460D00F7450D0064
:10526800D7450D00FF450D0007460D000F460D0000
:1052780017460D00000000000000000067460D0002
:1052880059460D005B460D0066006C6E00666E00A8
:10529800636F64650064657461696C000D0A0025BC
:1052A8003031307520005D20002564002C20002856
:1052B800293A2000205B00636F6465203D200025AB
:1052C800690064657461696C73203D2000626175D2
:1052D800640053657269616C0053657269616C3171
:1052E800007479706500706172616D00636D6400AF
:1052F800696400686E64007374726D0066696C742A
:10530800006C766C0061646448616E646C65720060
:1053180072656D6F766548616E646C657200656E66
:10532800756D48616E646C657273004A534F4E53D5
:10533800747265616D4C6F6748616E646C6572006C
:10534800617070006E6F6E650074726163650069EC
:105358006E666F007761726E006572726F720070B0
:10536800616E696300616C6C000000000000000061
:1053780000000000AB470D00A1470D0097470D0046
:105388008D470D0081470D0075470D0069470D00D9
:1053980061470D0057470D004D470D00E9480D00C6
:1053A800000000000000000081480D008B480D003F
:1053B80095480D009F480D00A9480D00B5480D00FF
:1053C800C1480D00CD480D00D5480D00DF480D003F
:1053D800E9480D000000000000000000594A0D00D7
:1053E8005B4A0D005A00252B3033643A253032755C
:1053F8000025592D256D2D25645425483A254D3A0B
:105408002553257A0061736374696D650000000097
:105418000000000000000000C54A0D00E94A0D0028
:10542800F54A0D0081490D00D14A0D00DD4A0D00F5
:10543800D74A0D00E34A0D00C74A0D00CB4A0D00BC
:105448000000000000000000D14B0D00154C0D00BD
:10545800EF4B0D0081490D00E94B0D00D34B0D00BA
:10546800DB4B0D000F4C0D00E34B0D00CD4B0D0039
:105478000000000000000000000000000000000024
:105488000000000000000000000000000000000014
:105498000000000000000000000000000000000004
:1054A80000000000000000000000000000000000F4
:1054B80000000000000000000000000000000000E4
:1054C80000000000000000000000000000000000D4
:1054D8004300000009410D0005450D00C1450D00C0
:1054E8003D470D0035480D006D490D003D4A0D0042
:1054F800994A0D00B14A0D00554E0D00A54E0D00FC
:10550800694F0D00ED4F0D0071500D0000000000B7
:0855180000000000000000008B
:10552000070000000D540D000000000078540D002D
:1055300098540D00B8540D00000000000000000059
:105540000000000000000000D8540D000000000022
:10555000000000000000000000000000000000004B
:10556000000000000000000000000000000000003B
:10557000000000000000000000000000000000002B
:0C558000000000000000000010E4032008
:10558C00FFFFFFFF00000102030405060708090ADC
:10559C000B0C0D0E0F101112131415161718191AD7
:0855AC001B1C1D1E1F2028001E
:0455B40078563412DF
:04000003D0004018D1
:00000001FF
