:02000002D0002C
:1040000000400D0090640D00000005000D0005014A
:0840100004019301000000000F
:10401800A8600D0009480A49884208B505D0094A30
:10402800824202D0121A01F0F7FF0748074A00211E
:10403800121A01F0FCFF014808BD00BFD8E30320B5
:1040480000640D0040E4032040E40320F0E703206F
:1040580070B501F03DF9074C074BE41AA408002598
:104068001E46A54204D056F8253098470135F8E792
:1040780070BD00BFF4630D00B8630D0000F016B802
:1040880008B500F03FF8BDE8084001F0EFB800F0CF
:10409800B1BB00F0B7BB00F0B5BB0078B0FA80F058
:1040A80040097047012303707047000010B512489B
:1040B800124C4068002319461A4600F073FB01F0C1
:1040C80021F900F085FC01F08DF84FF4165101F04C
:1040D8007DF8204600F0A3F8204600F07BF8082180
:1040E800204600F0DBF910EE100A01F0FFFB044B4C
:1040F800C3E9000110BD00BF80E403204CE40320A5
:1041080078E4032010B5144C02222046002100F068
:10411800A1F9124B02222046012183ED000A00F08A
:1041280099F90F4B2046082183ED000A00F0B6F9F3
:1041380010EE100A01F0DAFB0A4CC4E9000101F0A4
:1041480051F894ED000B022100F030FF4FF47A7023
:10415800BDE8104000F05EBB4CE4032044E40320BB
:1041680048E4032068E4032008B500F0DFF976216D
:10417800074800F011F8074B00221A705A804FF6D2
:10418800FF729A800320BDE8084000F0B7BA00BF6C
:104198004CE4032070E4032038B504460D4601F0D2
:1041A800B1F800F015FC2572204638BD38B5054633
:1041B8000C4601F0A7F8297A00F022FC01F0A2F8D9
:1041C800036821469B68984701F09CF8BDE8384091
:1041D80000F01DBCF8B5054600F10806A0242146EC
:1041E8002846FFF7E3FF01F08DF80222297A00F054
:1041F800FEFB01F087F803685B699847074601F002
:1042080081F803685B6998470234C0B2E4B240EAB7
:104218000720B02C26F8020FE1D10020F8BD08B520
:104228001E21FFF7C3FF0320BDE8084000F0F2BAE3
:1042380002F14003194470B5C9B205461446FFF7A8
:10424800B5FF012000F0E6FA082C11D8DFE804F0E9
:104258000510071009100B100D00012006E00320BF
:1042680004E0042002E0062000E00A2000F0D2FA70
:1042780000212846FFF79AFF01F044F8297A032223
:1042880000F0B5FB00252C462E4601F03BF80368EC
:104298001B69984790B101F035F803685B69984746
:1042A800C6B201F02FF803685B699847C4B201F001
:1042B80029F803685B699847C5B2E6E7200200EB76
:1042C8000640284470BD00002DE9F04F0A460E460E
:1042D80085B010210446FFF7ABFF324605460021A2
:1042E8002046FFF7A5FFA38A0746E08AA5EB03252A
:1042F80080FB0501C30D43EA412303F5FA66B6F5D1
:10430800FA6F85FB05AB03FB03F825DA08EB4802D7
:1043180052101046D1174C4ACDE9000108EB88002D
:104328004FEA6B0EC01096420EEB4E0E4FEAE0714C
:1043380028DADDE9008903F6AC535B43C3EBC3021B
:1043480018EB02084FEA830349EBE279C018CDE97C
:10435800008941EBE37115E00723AAFB030103FB86
:104368000B1101F0E1FA0022384B01F013FB4FEA80
:10437800281801F007FE4246D317CDE900238646E8
:1043880000210020B4F81280E28988FB05894FEAF1
:10439800024A4FEAD81242EA49621AEB02084FF081
:1043A800000B4FEAE9134BEB0309CDE90289B4F896
:1043B8001080A28988FB05894FEAC23A4FEA182281
:1043C80042EA096212EB0A024FF0000B4FEA292376
:1043D80043EB0B03121A63EB0103F917514307FB75
:1043E8000311A2FB07230B44002ACEEB060673F148
:1043F8000001266003DA1648002112184B41500DBF
:1044080040EAC3205915DDE902ABDDE90023BAEB28
:10441800020A6BEB030BB0EB0A0A61EB0B0BBAF168
:10442800000F7BF1000306DA47F6FF7200231AEB50
:10443800020A4BEB030B4FEADA3343EA4B43636060
:1044480005B0BDE8F08F00BF24FAFFFF0000A03DD3
:10445800FFFF1F0038B504460D461146FFF734FF2D
:10446800D4ED007ADFED0B6AF8EEE77A012D01BF93
:1044780087EEA67AF2EE027A27EE277AF1EE046A40
:1044880003BFC7EE267A9FED040A37EE800A87EE4F
:10449800A60A38BD0000C8420000004210B5044614
:1044A800FFF712FF94ED010AB8EEC00AF2EE047AA3
:1044B80080EE270A10BD00F039B8000008B5024B9D
:1044C8001B689B68019308BD4802030008B5024BAE
:1044D8001B681B69019308BD4802030008B5024B1D
:1044E8001B685B69019308BD4802030008B5024BCD
:1044F8001B681B6B019308BD4802030008B5024BFB
:104508001B685B6C019308BD4802030008B5024BA9
:104518001B685B68019308BD1802030008B5024BCD
:104528001B685B69019308BD1802030008B5024BBC
:104538001B681B68019308BD2C02030008B5024BD9
:104548001B68DB68019308BD2802030008B5024B0D
:104558001B685B69019308BD2802030008B5024B7C
:104568001B689B69019308BD2802030008B5024B2C
:104578001B68DB69019308BD2802030008B5024BDC
:104588001B681B6A019308BD2802030008B5024B8B
:104598001B685B6A019308BD2802030008B5024B3B
:1045A8001B689B6A019308BD2802030008B5024BEB
:1045B8001B68DB6A019308BD2802030008B5024B9B
:1045C8001B681B6B019308BD2802030008B5024B4A
:1045D8001B681B6C019308BD2802030008B5024B39
:1045E8001B685B69019308BD6402030008B5024BB0
:1045F8001B689B68019308BD6802030008B5024B5D
:104608001B68DB68019308BD6802030008B5024B0C
:104618001B68DB69019308BD3002030008B5024B33
:104628001B681B68019308BD3C02030008B5024BD8
:104638001B68DB68019308BD3C02030008B5024B08
:104648001B681B69019308BD3C02030008B5024BB7
:104658001B685B69019308BD3C02030008B5024B67
:104668001B689B69019308BD3C02030008B5024B17
:104678001B68DB69019308BD3C02030008B5024BC7
:104688001B689B6A019308BD3C02030008B5024BF6
:104698001B681B68019308BD4C02030008B5024B58
:1046A8001B685B68019308BD4C02030008B5024B08
:1046B8001B681B69019308BD4C02030008B5024B37
:1046C8001B685B69019308BD4C02030008B5024BE7
:1046D8001B689B69019308BD4C02030008B5024B97
:1046E8001B68DB69019308BD4C02030008B5024B47
:1046F8001B681B6A019308BD4C02030008B5024BF6
:104708001B685B68019308BD2002030008B5024BD3
:104718001B685B69019308BD2002030008B5034BC1
:104728001B68D3F88830019308BD000020020300FD
:1047380008B5034B1B68D3F89430019308BD0000FB
:104748002002030008B5024B1B68DB6B019308BD10
:104758004402030008B5024B1B685B68019308BD5F
:104768004002030008B5024B1B689B68019308BD13
:104778004002030008B5024B1B68DB68019308BDC3
:104788004002030008B5024B1B681B69019308BD72
:104798004002030008B5024B1B685B69019308BD22
:1047A8004002030008B5024B1B689B69019308BDD2
:1047B8004002030008B5024B1B68DB69019308BD82
:1047C8004002030008B5024B1B681B6A019308BD31
:1047D8004002030008B5024B1B681B6B019308BD20
:1047E8004002030008B5024B1B685B6B019308BDD0
:1047F8004002030008B5024B1B681B68019308BD03
:104808001C02030008B5024B1B685B68019308BDD6
:104818001C0203000021FFF779BF002211464068FF
:10482800FFF7B0BF002211464068FFF7CBBF002258
:1048380011464068FFF7D6BF00224068FFF7CABF9D
:10484800002281F001014068FFF7B4BF00231A4637
:1048580019464068FFF7A6BF00231A461946406864
:10486800FFF798BF002211464068FFF77BBF002280
:1048780002214068FFF77EBF00231A464068FFF711
:1048880069BF000038B50C4D28242246002128466F
:1048980001F0CDFB4FF0FF336B602C80074D0423F4
:1048A80028466B60064B40F8083B2246002101F081
:1048B800BEFB2C8138BD00BFB0E4032080E4032098
:1048C800C4600D0010B58368044613B10322014685
:1048D8009847204610BD002211464068FFF772BF76
:1048E800002211464068FFF77DBF00224068FFF7AD
:1048F80071BF002281F001014068FFF75BBF002310
:104908001A4619464068FFF74DBF00231A46194654
:104918004068FFF73FBF002211464068FFF732BFEB
:10492800002211464068FFF71DBF0022022140689F
:10493800FFF720BF00231A464068FFF70BBF0000AF
:10494800024B03225A60024A1A607047D8E40320D7
:10495800F8600D007047F8B5064615460C468F18E6
:10496800BC4206D0336814F8011B9B683046984750
:10497800F6E72846F8BD0022007CFFF7FFBD0021BE
:10498800007CFFF703BE0021007CFFF707BE002173
:10499800007CFFF70BBE0021007CFFF70FBE10B5AF
:1049A8000446FFF776FB204610BD000010B504460C
:1049B8004FF47A730846A3600021044B20746160A9
:1049C8002360FFF703FE204610BD00BF2C610D00D9
:1049D80000231A461946007CFFF7B0BD13B5002422
:1049E800007C0094FFF7B2FDC0B202B010BD0123F5
:1049F800D2B2C9B2FFF7F2BF0022007CFFF7AEBD0A
:104A0800C9B2FFF7F9BF0022007CFFF7AFBD012153
:104A1800FFF7F9BF704710B50446FFF73AFB204689
:104A280010BDF0B5037D062B8DB00E4600F10407CE
:104A38004FF0000402D000F1080518E00CAD39462B
:104A480005F8304D2F232A460A20FFF7C7FD2846D0
:104A580001F01EFB33680246DB682946304698475A
:104A68000FE024B12E21304600F08EF9044415F8E9
:104A7800011D0A22304600F0C3F9BD420444F0D1BA
:104A880020460DB0F0BD000010B5054B04461122BC
:104A980040F8043B002101F0CAFA204610BD00BFCF
:104AA80054610D000346074A10B543F8042B01F181
:104AB800100251F8044B43F8044B9142F9D10A789B
:104AC8001A7010BD54610D0010B59DF8084044EAF5
:104AD800032343EA024242EA016104234160037569
:104AE80010BD37B50D788B784A78C978009129467A
:104AF800FFF7EAFF03B030BD014B024A1A60704766
:104B0800E0E4032016620D00002211464068FFF71A
:104B180059BE002211464068FFF764BE0022406873
:104B2800FFF758BE002281F001014068FFF742BE3E
:104B380000231A4619464068FFF734BE00231A4678
:104B480019464068FFF726BE002211464068FFF765
:104B580019BE002211464068FFF704BE0022022158
:104B68004068FFF707BE00231A464068FFF7F2BD0A
:104B780010B103685B681847704738B50446006889
:104B8800D0B1FFF79BFCB8B9237C1BB9206808B1EA
:104B9800FFF79CFC656855B1AB681BB10322294639
:104BA800284698472846FFF774FA00236360206870
:104BB800FFF794FC0023236038BD000038B50B4B89
:104BC80003600446D0F8CC0108B1FFF764FAD4F8C2
:104BD800C4512DB12846FFF7D0FF2846FFF759FAF0
:104BE800A06808B1FFF7C4FF204638BD48620D0031
:104BF80038B50D4C0D4B23600025022304F5E470F5
:104C08006360A560C4F8C451C4F8C851FFF776FCC6
:104C1800074BC4F8CC5123602046064A0649BDE834
:104C2800384000F0B1BB00BFE4E403207C620D0013
:104C380048620D0040E40320C54B0D0000231A46CE
:104C48004068FFF787BD002202214068FFF792BD48
:104C5800002211464068FFF785BD002211464068D2
:104C6800FFF790BD00231A4619464068FFF792BD2A
:104C780000231A4619464068FFF794BD002281F0C8
:104C880001014068FFF796BD00224068FFF7A2BD0A
:104C9800002211464068FFF7A5BD00221146406872
:104CA800FFF790BD70B58CB014460646FFF7ECFED2
:104CB8000CAB0022114643F8302D2046FFF79EFC2E
:104CC800014658BB009B4BB35A68022A0ED00A2AE9
:104CD80024D15C69112201A801F0A9F906238DF8F5
:104CE800143001AD04F10803183405E05969304661
:104CF8000431FFF7F6FE11E0186859682A4603C226
:104D08000833A3421546F7D101A906A807ADFFF756
:104D1800C9FE0FCD341D0FC42B6823700098FFF710
:104D280065FC30460CB070BD024B034A1A60002285
:104D38005A607047B4E603207C620D00F8B5064659
:104D48000D468F180024BD420CD0336815F8011B9E
:104D58009B6830469847002801DB0444F3E7002CA1
:104D680008BF04462046F8BD70B505460C460846FF
:104D780049B101F08DF92B68024621462846DB68C7
:104D8800BDE87040184770BD03689B68184738B580
:104D98000D210546FFF7F8FF0A2104462846FFF7CC
:104DA800F3FF204438BD30B58BB00B4600218DF899
:104DB8002410012A98BF0A220DF12304B3FBF2F54F
:104DC80005FB123303F0FF03092B94BF303337334D
:104DD800DBB2214604F801392B46002DEED1FFF74E
:104DE800C3FF0BB030BD10B42AB903685DF8044B9B
:104DF8009B68C9B21847D2B25DF8044BFFF7D3BF1E
:104E0800FFF7F1BF2DE9F04107460E4615462AB9CE
:104E18000368C9B29B68BDE8F04118470A2A02D165
:104E2800002901DA04E0D2B2BDE8F041FFF7BBBFC8
:104E38002D21FFF7A9FF2A46044671423846FFF79D
:104E4800B2FF2044BDE8F0812DE9F04757EC106B24
:104E580082460D4610EE102A3B4610EE100A3946DF
:104E680001F032F808B1484912E027F000494FF044
:104E7800FF32464B3046494601F026F868B94FF0F4
:104E8800FF32424B3046494601F000F828B9404904
:104E98005046FFF769FFBDE8F0874FF060423D4B91
:104EA8003046394601F006F808B13B49F0E74FF0C3
:104EB80060423A4B3046394600F0DEFF0028F4D114
:104EC800002200233046394600F0D6FF40B12D219C
:104ED8005046FFF759FF07F1004304461F4600E01C
:104EE80004462F494FF0000800205FFA88F39D42DE
:104EF80006D900222B4B00F077FE08F10108F4E7F1
:104F080032463B4600F094FB0F46064601F01AF87D
:104F18000A22014680465046FFF745FF04447DB308
:104F2800404600F0C1FC02460B463046394600F0C8
:104F38007DFB06460F4650461B49FFF715FF044404
:104F4800184B00223046394600F024FD0F4606462D
:104F580000F0D0FF0A22014680465046FFF752FF74
:104F68000444404600F0B0FC02460B463046394641
:104F780000F05CFB013D15F0FF0506460F46DFD14A
:104F88002046BDE8F08700BFA8620D00FFFFEF7F55
:104F9800B2620D00FFFFEF41AC620D00FFFFEFC1F1
:104FA8000000E03F00002440B0620D0038B5C9B2EF
:104FB8000546FFF749FF04462846FFF7E8FE204468
:104FC80038BD10B50446FFF77DFC204610BD000033
:104FD8000348044A04490023836000F0D5B900BFA0
:104FE800BCE6032040E40320CB4F0D00704710B50A
:104FF8000446FFF74EF8204610BD000070B5084B78
:105008000360044600250E4640F80C5FFFF76EFA71
:1050180030462671FFF7FAFAA560204670BD00BF3A
:10502800C0620D00044B00204FF6FF7218705880C4
:105038009A80FFF763BB00BFCCE60320024B1A68D7
:10504800024B1A60704700BFD8E30320D4E6032060
:10505800704741747047007CFFF710BB007CFFF776
:10506800EDBA007CFFF7FABA007CFFF7EFBA007CD4
:10507800FFF7FCBA10B50446FFF70BF8204610BD41
:1050880070B5457C04460E4625B9007CFFF7F6FA54
:10509800002805DD3146207CBDE87040FFF7C6BA20
:1050A800284670BD10B504460846114600226260C5
:1050B8004FF47A72A260054A226001222074627459
:1050C8001A46FFF7ABFA204610BD00BFFC620D0080
:1050D800F8B5194C25684DB98420FEF7D8FF064667
:1050E80018B18422294600F0A2FF2660134D2E68CD
:1050F8004EB98420FEF7CBFF074618B1842231460B
:1051080000F095FF2F600E4F396811F0010611D19C
:105118003846FEF7C2FF68B122682B680948314655
:10512800FFF7C0FF3846FEF7BDFF074A07490548A5
:1051380000F02AF90348F8BDF4E60320ECE6032062
:10514800F0E60320D8E6032040E4032059500D0080
:105158004174704770470021007CFFF7B7BA0121FE
:10516800007CFFF7B3BA007CFFF7A8BA007CFFF712
:105178009DBA38B50446007C0D46FFF79FFA002813
:1051880001DC607C20B12946207CFFF7A7FA0120CA
:1051980038BD007CFFF7AABA10B50446FEF779FFC0
:1051A800204610BD10B50446002363604FF47A739F
:1051B800A360054B236001230846217463741146DC
:1051C800FFF764FA204610BD2C630D000022007C16
:1051D800FFF764BA10B514220446002100F027FF37
:1051E800204610BD30B50E4D87B001A8FFF7F2FF7D
:1051F800296811F0010410D12846FEF74EFF60B16E
:1052080001AA21460748FFF7CDFF2846FEF74AFFC7
:10521800054A0649034800F0B7F8024807B030BD10
:10522800F8E60320FCE6032040E403205D510D006E
:1052380008B50C4B33B1FFF7D5FF03681B699847D6
:10524800002809DC084B63B1FFF742FF03681B69BC
:105258009847002803DC08BDAFF30080F2E7AFF3FE
:10526800008008BD000000000000000008B5FFF73E
:10527800DFFFFFF753F9014B186008BD14E703205F
:1052880007B5002300931A466FF07701FFF750FA2D
:1052980003B05DF804FB000007B543880A2B08D06B
:1052A800502B09D1094B1B683BB103B05DF804EBE7
:1052B8001847FFF7E5FF06E0002300931A466FF052
:1052C8007701FFF735FA03B05DF804FB10E7032018
:1052D80010B5FFF71BF9044600F0B2FE074B13B1F7
:1052E8002046AFF3008000210448FFF72BFA002185
:1052F8000348BDE81040FFF711BA00BF00000000E6
:10530800A1520D0038B50B4D296811F001040FD1D9
:105318002846FEF7C2FE58B121460748FFF746FB6C
:105328002846FEF7BFFE054A0549034800F02CF859
:10533800014838BD18E703201CE7032040E4032098
:105348005D490D0070B50C4C0C4E0D4D00212046EA
:10535800FFF754FE20460B4C3246294600F014F85D
:1053680001212046FFF74AFE324629462046BDE87D
:10537800704000F009B800BF30E7032040E4032084
:10538800F54F0D0040E703200B460146184600F094
:1053980035BE0000244B1A68D0075CBF01221A6092
:1053A800224B1A68D1075CBF01221A60204B1A6889
:1053B800D2075CBF01221A601E4B1A68D0075CBF77
:1053C80001221A601C4B1A68D1075CBF01221A60BF
:1053D8001A4B1A68D2075CBF01221A60184B1A6868
:1053E800D0075CBF01221A60164B1A68D1075CBF50
:1053F80001221A60144B1A68D2075CBF01221A6096
:10540800124B1A68D0075CBF01221A60104B1A6849
:10541800D1075CBF01221A600E4B1A68D2075CBF25
:1054280001221A60704700BF7CE7032078E7032059
:1054380074E7032070E703206CE7032068E7032084
:1054480064E7032060E703205CE7032058E70320B4
:1054580054E7032050E70320184B1A68D1075CBFB4
:1054680001221A60164B1A68D2075CBF01221A6023
:10547800144B1A68D0075CBF01221A60124B1A68D5
:10548800D1075CBF01221A60104B1A68D2075CBFB3
:1054980001221A600E4B1A68D0075CBF01221A60FD
:1054A8000C4B1A68D1075CBF01221A600A4B1A68B4
:1054B800D2075CBF01221A60704700BF9CE7032037
:1054C80098E7032094E7032090E703208CE7032064
:1054D80088E7032084E7032080E70320184B1A6835
:1054E800D1075CBF01221A60164B1A68D2075CBF4D
:1054F80001221A60144B1A68D0075CBF01221A6097
:10550800124B1A68D1075CBF01221A60104B1A6847
:10551800D2075CBF01221A600E4B1A68D0075CBF25
:1055280001221A600C4B1A68D1075CBF01221A606D
:105538000A4B1A68D2075CBF01221A60704700BF85
:10554800BCE70320B8E70320B4E70320B0E7032053
:10555800ACE70320A8E70320A4E70320A0E7032083
:10556800244B1A68D0075CBF01221A60224B1A68C4
:10557800D1075CBF01221A60204B1A68D2075CBFB2
:1055880001221A601E4B1A68D0075CBF01221A60FC
:105598001C4B1A68D1075CBF01221A601A4B1A68A3
:1055A800D2075CBF01221A60184B1A68D0075CBF8B
:1055B80001221A60164B1A68D1075CBF01221A60D3
:1055C800144B1A68D2075CBF01221A60124B1A6882
:1055D800D0075CBF01221A60104B1A68D1075CBF64
:1055E80001221A600E4B1A68D2075CBF01221A60AA
:1055F800704700BFECE70320E8E70320E4E7032057
:10560800E0E70320DCE70320D8E70320D4E7032002
:10561800D0E70320CCE70320C8E70320C4E7032032
:10562800C0E7032081F0004102E000BF83F000439F
:1056380030B54FEA41044FEA430594EA050F08BF25
:1056480090EA020F1FBF54EA000C55EA020C7FEAE9
:10565800645C7FEA655C00F0E2804FEA5454D4EB66
:105668005555B8BF6D420CDD2C4480EA020281EA30
:10567800030382EA000083EA010180EA020281EA68
:105688000303362D88BF30BD11F0004F4FEA0131BA
:105698004FF4801C4CEA113102D0404261EB4101C9
:1056A80013F0004F4FEA03334CEA133302D052424F
:1056B80063EB430394EA050F00F0A780A4F101040B
:1056C800D5F1200E0DDB02FA0EFC22FA05F2801845
:1056D80041F1000103FA0EF2801843FA05F359412B
:1056E8000EE0A5F120050EF1200E012A03FA0EFCAA
:1056F80028BF4CF0020C43FA05F3C01851EBE371D4
:1057080001F0004507D54FF0000EDCF1000C7EEBF0
:1057180000006EEB0101B1F5801F1BD3B1F5001F2E
:105728000CD349085FEA30004FEA3C0C04F101044D
:105738004FEA445212F5800F80F09A80BCF1004F76
:1057480008BF5FEA500C50F1000041EB045141EAF8
:10575800050130BD5FEA4C0C404141EB010111F4F9
:10576800801FA4F10104E9D191F0000F04BF0146A4
:105778000020B1FA81F308BF2033A3F10B03B3F182
:1057880020020CDA0C3208DD02F1140CC2F10C0212
:1057980001FA0CF021FA02F10CE002F11402D8BF70
:1057A800C2F1200C01FA02F120FA0CFCDCBF41EA3C
:1057B8000C019040E41AA2BF01EB0451294330BD0B
:1057C8006FEA04041F3C1CDA0C340EDC04F11404E8
:1057D800C4F1200220FA04F001FA02F340EA0300BF
:1057E80021FA04F345EA030130BDC4F10C04C4F105
:1057F800200220FA02F001FA04F340EA03002946E5
:1058080030BD21FA04F0294630BD94F0000F83F42E
:10581800801306BF81F480110134013D4EE77FEA11
:10582800645C18BF7FEA655C29D094EA050F08BF5D
:1058380090EA020F05D054EA000C04BF194610463E
:1058480030BD91EA030F1EBF0021002030BD5FEA82
:10585800545C05D14000494128BF41F0004130BDAA
:1058680014F580043CBF01F5801130BD01F00045FE
:1058780045F0FE4141F470014FF0000030BD7FEA71
:10588800645C1ABF194610467FEA655C1CBF0B466C
:10589800024650EA013406BF52EA033591EA030F83
:1058A80041F4002130BD00BF90F0000F04BF00217B
:1058B800704730B54FF4806404F132044FF00005AE
:1058C8004FF0000150E700BF90F0000F04BF002127
:1058D800704730B54FF4806404F1320410F000458D
:1058E80048BF40424FF000013EE700BF42004FEA88
:1058F800E2014FEA31014FEA02701FBF12F07F4305
:1059080093F07F4F81F06051704792F0000F14BF01
:1059180093F07F4F704730B54FF4607401F0004545
:1059280021F0004120E700BF50EA010208BF70479C
:1059380030B54FF000050AE050EA010208BF704791
:1059480030B511F0004502D5404261EB41014FF4FA
:10595800806404F132045FEA915C3FF4DCAE4FF0FE
:1059680003025FEADC0C18BF03325FEADC0C18BFE5
:10597800033202EBDC02C2F1200300FA03FC20FA36
:1059880002F001FA03FE40EA0E0021FA02F1144483
:10599800C1E600BF70B54FF0FF0C4CF4E06C1CEA98
:1059A80011541DBF1CEA135594EA0C0F95EA0C0F0D
:1059B80000F0DEF82C4481EA030621EA4C5123EA80
:1059C8004C5350EA013518BF52EA033541F48011AF
:1059D80043F4801338D0A0FB02CE4FF00005E1FB62
:1059E80002E506F00042E0FB03E54FF00006E1FBAC
:1059F80003569CF0000F18BF4EF0010EA4F1FF04EF
:105A0800B6F5007F64F5407404D25FEA4E0E6D412E
:105A180046EB060642EAC62141EA55514FEAC5203F
:105A280040EA5E504FEACE2EB4F1FD0C88BFBCF5BB
:105A3800E06F1ED8BEF1004F08BF5FEA500E50F16C
:105A4800000041EB045170BD06F0004646EA010132
:105A580040EA020081EA0301B4EB5C04C2BFD4EB64
:105A68000C0541EA045170BD41F480114FF0000E5D
:105A7800013C00F3AB8014F1360FDEBF002001F0CB
:105A8800004170BDC4F10004203C35DA0C341BDC45
:105A980004F11404C4F1200500FA05F320FA04F017
:105AA80001FA05F240EA020001F0004221F000414B
:105AB80010EBD37021FA04F642EB06015EEA430EBE
:105AC80008BF20EAD37070BDC4F10C04C4F12005EE
:105AD80000FA04F320FA05F001FA04F240EA0200A1
:105AE80001F0004110EBD37041F100015EEA430E72
:105AF80008BF20EAD37070BDC4F1200500FA05F292
:105B08004EEA020E20FA04F301FA05F243EA020310
:105B180021FA04F001F0004121FA04F220EA02001F
:105B280000EBD3705EEA430E08BF20EAD37070BD65
:105B380094F0000F0FD101F00046400041EB010145
:105B480011F4801F08BF013CF7D041EA060195F027
:105B5800000F18BF704703F00046520043EB0303E1
:105B680013F4801F08BF013DF7D043EA06037047CE
:105B780094EA0C0F0CEA135518BF95EA0C0F0CD0D9
:105B880050EA410618BF52EA4306D1D181EA03011F
:105B980001F000414FF0000070BD50EA410606BF19
:105BA8001046194652EA430619D094EA0C0F02D15E
:105BB80050EA013613D195EA0C0F05D152EA0336A3
:105BC8001CBF104619460AD181EA030101F00041C1
:105BD80041F0FE4141F470014FF0000070BD41F00A
:105BE800FE4141F4780170BD70B54FF0FF0C4CF4E4
:105BF800E06C1CEA11541DBF1CEA135594EA0C0F03
:105C080095EA0C0F00F0A7F8A4EB050481EA030E4F
:105C180052EA03354FEA013100F088804FEA033336
:105C28004FF0805545EA131343EA12634FEA022204
:105C380045EA111545EA10654FEA00260EF00041C5
:105C48009D4208BF964244F1FD0404F5407402D217
:105C58005B084FEA3202B61A65EB03055B084FEAA8
:105C680032024FF480104FF4002CB6EB020E75EBA5
:105C7800030E22BFB61A754640EA0C005B084FEACD
:105C88003202B6EB020E75EB030E22BFB61A75464A
:105C980040EA5C005B084FEA3202B6EB020E75EB95
:105CA800030E22BFB61A754640EA9C005B084FEA0D
:105CB8003202B6EB020E75EB030E22BFB61A75461A
:105CC80040EADC0055EA060E18D04FEA051545EA09
:105CD80016754FEA06164FEAC30343EA52734FEAB2
:105CE800C2025FEA1C1CC0D111F4801F0BD141EA2B
:105CF80000014FF000004FF0004CB6E711F4801F90
:105D080004BF01430020B4F1FD0C88BFBCF5E06F6F
:105D18003FF6AFAEB5EB030C04BFB6EB020C5FEA7F
:105D2800500C50F1000041EB045170BD0EF0004ED4
:105D38004EEA113114EB5C04C2BFD4EB0C0541EA06
:105D4800045170BD41F480114FF0000E013C90E603
:105D580045EA060E8DE60CEA135594EA0C0F08BFC7
:105D680095EA0C0F3FF43BAF94EA0C0F0AD150EAC6
:105D780001347FF434AF95EA0C0F7FF425AF104659
:105D880019462CE795EA0C0F06D152EA03353FF481
:105D9800FDAE1046194622E750EA410618BF52EAFE
:105DA80043067FF4C5AE50EA41047FF40DAF52EAD2
:105DB80043057FF4EBAE12E74FF0FF3C06E000BF6F
:105DC8004FF0010C02E000BF4FF0010C4DF804CD7C
:105DD8004FEA410C7FEA6C5C4FEA430C18BF7FEA3C
:105DE8006C5C1BD001B050EA410C0CBF52EA430C6A
:105DF80091EA030F02BF90EA020F0020704710F1EA
:105E0800000F91EA030F58BF994208BF90422CBF78
:105E1800D8176FEAE37040F0010070474FEA410C71
:105E28007FEA6C5C02D150EA013C07D14FEA430C8F
:105E38007FEA6C5CD6D152EA033CD3D05DF8040B00
:105E4800704700BF8446104662468C461946634632
:105E580000E000BF01B5FFF7B7FF002848BF10F109
:105E6800000F01BD4DF808EDFFF7F4FF0CBF01204E
:105E780000205DF808FB00BF4DF808EDFFF7EAFFCA
:105E880034BF012000205DF808FB00BF4DF808ED85
:105E9800FFF7E0FF94BF012000205DF808FB00BF7A
:105EA8004DF808EDFFF7CEFF94BF012000205DF804
:105EB80008FB00BF4DF808EDFFF7C4FF34BF012011
:105EC80000205DF808FB00BF4FEA410C7FEA6C5CDC
:105ED80002D150EA013C0AD14FEA430C7FEA6C5CDC
:105EE80002D152EA033C02D14FF0000070474FF054
:105EF800010070474FEA410212F5001215D211D580
:105F08006FF47873B3EB625212D94FEAC12343F0AE
:105F1800004343EA505311F0004F23FA02F018BF30
:105F2800404270474FF00000704750EA013005D1F9
:105F380011F0004008BF6FF0004070474FF00000BC
:105F4800704700BF4A0011D212F5001211D20DD5C8
:105F58006FF47873B3EB62520ED44FEAC12343F067
:105F6800004343EA505323FA02F070474FF0000011
:105F7800704750EA013002D14FF0FF3070474FF0C0
:105F88000000704738B50022002304460D46FFF78D
:105F980073FF28B920462946BDE8384000F00AB802
:105FA800204605F1004100F005F8404261EB41014F
:105FB80038BD00BFD0B500220E4B06460F46FFF78E
:105FC800E9FCFFF7BFFF0446FFF76EFC00220A4B0F
:105FD800FFF7E0FC02460B4630463946FFF726FB42
:105FE800FFF7B0FF2346002242EA00021046194696
:105FF800D0BD00BF0000F03D0000F04110B5054CD9
:1060080013462CB10A4601460220AFF3008010BDAA
:10601800204610BD0000000010B5431E0A449142FE
:1060280004D011F8014B03F8014FF8E710BD024402
:106038000346934202D003F8011BFAE770470000B9
:1060480038B5124B1C68A36B0546D3B91820FEF768
:10605800D1FB43F20E33A06303804AF6CD3343806D
:1060680041F2342383804EF26D63C3804DF6EC63B6
:106078000381052343810B23838101220023C0E987
:106088000423A36B00221D615A6138BD3CE4032040
:10609800034613F8012B002AFBD1181A0138704760
:1060A8001D400D0059400D0085400D0089400D0030
:1060B80000000000000000000000000081480D0002
:1060C80077480D006D480D0023480D0061480D000C
:1060D80055480D0049480D0041480D0037480D004E
:1060E8002D480D00AD4C0D00000000000000000020
:1060F8003D490D0033490D0029490D001F490D0088
:1061080013490D0007490D00FB480D00F3480D0029
:10611800E9480D00DF480D00AD4C0D0000000000FF
:10612800000000005D490D00A7490D007F490D00E2
:106138005F490D0087490D008F490D0097490D00F3
:106148009F490D0000000000000000002B4A0D00D0
:106158001D4A0D001F4A0D006C6E00666E00636FCD
:1061680064650064657461696C000D0A002530314E
:10617800307520005D20002564002C200028293A75
:106188002000205B00636F6465203D2000256900C6
:1061980064657461696C73203D20006261756400F8
:1061A80053657269616C0053657269616C31007482
:1061B80079706500706172616D00636D6400696477
:1061C80000686E64007374726D0066696C74006CAC
:1061D800766C0061646448616E646C657200726517
:1061E8006D6F766548616E646C657200656E756D7D
:1061F80048616E646C657273004A534F4E537472F3
:1062080065616D4C6F6748616E646C6572006170A2
:1062180070006E6F6E6500747261636500696E660A
:106228006F007761726E006572726F720070616ED6
:10623800696300616C6C0000000000000000000051
:106248006F4B0D00654B0D005B4B0D00514B0D0066
:10625800454B0D00394B0D002D4B0D00254B0D0006
:106268001B4B0D00114B0D00AD4C0D000000000044
:1062780000000000454C0D004F4C0D00594C0D001E
:10628800634C0D006D4C0D00794C0D00854C0D00D4
:10629800914C0D00994C0D00A34C0D00AD4C0D0018
:1062A8006E616E006F7666002E00696E66000000F3
:1062B8000000000000000000F54F0D00F74F0D0032
:1062C8005A00252B3033643A253032750025592D74
:1062D800256D2D25645425483A254D3A2553257AB0
:1062E8000061736374696D650000000000000000C0
:1062F8000000000059500D007D500D0089500D0020
:10630800454D0D0065500D0071500D006B500D008E
:1063180077500D005B500D005F500D00000000002D
:10632800000000005D510D00A1510D007B510D00D2
:10633800454D0D0075510D005F510D0067510D0061
:106348009B510D006F510D0059510D0000000000C8
:106358000000000000000000000000000000000035
:106368000000000000000000000000000000000025
:106378000000000000000000000000000000000015
:106388000000000000000000000000000000000005
:1063980000000000000000000000000000000000F5
:1063A80000000000000000000000000043000000A2
:1063B80071410D00BF440D008D480D0049490D0085
:1063C800014B0D00F94B0D00314D0D00D94F0D005B
:1063D8002D500D0045500D004D530D009D530D00DF
:1063E80061540D00E5540D0069550D0000000000D2
:0863F80000000000000000009D
:10640000E9620D000000000054630D0074630D008C
:1064100094630D0000000000000000000000000078
:1064200000000000B4630D00000000000000000048
:10643000000000000000000000000000000000005C
:10644000000000000000000000000000000000004C
:10645000000000000000000000000000000000003C
:0864600000000000DCE3032052
:10646800FFFFFFFF00000102030405060708090AF1
:106478000B0C0D0E0F101112131415161718191AEC
:086488001B1C1D1E1F20280033
:0464900078563412F4
:04000003D0004018D1
:00000001FF
