:02000002D0002C
:1040000000400D0010550D00000005000D000501D9
:0840100004019301000000000F
:104018005C510D0009480A49884208B505D0094A8B
:10402800824202D0121A00F0F3FF0748074A002123
:10403800121A00F0F8FF014808BD00BFF0E30320A2
:1040480080540D0058E4032058E40320F0E70320CF
:1040580070B500F045FE074C074BE41AA40800258C
:104068001E46A54204D056F8253098470135F8E792
:1040780070BD00BF74540D003C540D0000F016B81C
:1040880008B500F033F8BDE8084000F0F7BD00F0CF
:10409800BBB900F0C1B900F0BFB90078B0FA80F040
:1040A80040097047012303707047000008B50748AE
:1040B800002319461A46406800F07EF900F014FD06
:1040C8004FF41651BDE8084000F00ABD98E40320FB
:1040D80008B50349034800F0DFFF034B186008BD2B
:1040E80070510D0061E403205CE4032010B500F07A
:1040F800FBFC0368124C1B69984700280BDD00F095
:10410800F3FC302322460D2100F075FC0D4B18708E
:10411800C0B2002323540A2000F086F92378303BEC
:10412800092B01D8FFF7D4FF00F064FD064B19688E
:1041380000F0E3FB3220BDE8104000F075B900BF85
:1041480061E4032060E403205CE4032008B500F088
:1041580047F8064B00221A705A804FF6FF729A8071
:104168000320BDE8084000F0D3B800BF92E4032064
:1041780008B5024B1B689B68019308BD4802030001
:1041880008B5024B1B681B69019308BD4802030070
:1041980008B5024B1B685B69019308BD4802030020
:1041A80008B5024B1B681B6B019308BD480203004E
:1041B80008B5024B1B685B6C019308BD48020300FD
:1041C80008B5024B1B685B68019308BD1802030021
:1041D80008B5024B1B685B69019308BD1802030010
:1041E80008B5024B1B681B68019308BD2C0203002D
:1041F80008B5024B1B685B69019308BD64020300A4
:1042080008B5024B1B689B68019308BD6802030050
:1042180008B5024B1B68DB68019308BD6802030000
:1042280008B5024B1B68DB69019308BD3002030027
:1042380008B5024B1B681B68019308BD3C020300CC
:1042480008B5024B1B68DB68019308BD3C020300FC
:1042580008B5024B1B681B69019308BD3C020300AB
:1042680008B5024B1B685B69019308BD3C0203005B
:1042780008B5024B1B689B69019308BD3C0203000B
:1042880008B5024B1B68DB69019308BD3C020300BB
:1042980008B5024B1B689B6A019308BD3C020300EA
:1042A80008B5024B1B68DB6A019308BD3C0203009A
:1042B80008B5024B1B681B68019308BD4C0203003C
:1042C80008B5024B1B681B69019308BD4C0203002B
:1042D80008B5024B1B685B69019308BD4C020300DB
:1042E80008B5024B1B689B69019308BD4C0203008B
:1042F80008B5024B1B68DB69019308BD4C0203003B
:1043080008B5024B1B681B6A019308BD4C020300E9
:1043180008B5024B1B685B68019308BD20020300C7
:1043280008B5024B1B685B69019308BD20020300B6
:1043380008B5034B1B68D3F88830019308BD00000B
:104348002002030008B5034B1B68D3F8943001938F
:1043580008BD00002002030008B5024B1B68DB6B98
:10436800019308BD4402030008B5024B1B685B6853
:10437800019308BD4002030008B5024B1B689B6807
:10438800019308BD4002030008B5024B1B68DB68B7
:10439800019308BD4002030008B5024B1B681B6966
:1043A800019308BD4002030008B5024B1B685B6916
:1043B800019308BD4002030008B5024B1B689B69C6
:1043C800019308BD4002030008B5024B1B68DB6976
:1043D800019308BD4002030008B5024B1B681B6A25
:1043E800019308BD4002030008B5024B1B681B6B14
:1043F800019308BD4002030008B5024B1B685B6BC4
:10440800019308BD4002030008B5024B1B681B68F6
:10441800019308BD1C02030008B5024B1B685B68CA
:10442800019308BD1C0203000021FFF779BF002299
:1044380011464068FFF7B0BF002211464068FFF7F9
:10444800CBBF002211464068FFF7D6BF0022406864
:10445800FFF7CABF002281F001014068FFF7B4BF2F
:1044680000231A4619464068FFF7A6BF00231A46DC
:1044780019464068FFF798BF002211464068FFF7C9
:104488007BBF002202214068FFF77EBF00231A4647
:104498004068FFF769BF000038B50C4D2824224654
:1044A8000021284600F0BFFD4FF0FF336B602C80E1
:1044B800074D042328466B60064B40F8083B22460C
:1044C800002100F0B0FD2C8138BD00BFC8E40320F6
:1044D80098E403207C510D0010B58368044613B19D
:1044E800032201469847204610BD00221146406825
:1044F800FFF772BF002211464068FFF77DBF002218
:104508004068FFF771BF002281F001014068FFF7A2
:104518005BBF00231A4619464068FFF74DBF0023CA
:104528001A4619464068FFF73FBF00221146406807
:10453800FFF732BF002211464068FFF71DBF002277
:1045480002214068FFF720BF00231A464068FFF7A2
:104558000BBF0000024B03225A60024A1A607047E0
:10456800F0E40320B0510D00704710B50446FFF782
:1045780090FD204610BDF0B5037D062B8DB00E468C
:1045880000F104074FF0000402D000F1080518E01C
:104598000CAD394605F8304D2F232A460A20FFF77F
:1045A80027FE284600F070FD33680246DB6829467E
:1045B800304698470FE024B12E21304600F08EF99E
:1045C800044415F8011D0A22304600F0CDF9BD4219
:1045D8000444F0D120460DB0F0BD000010B5054BE5
:1045E8000446112240F8043B002100F01CFD20463F
:1045F80010BD00BFE4510D000346074A10B543F84B
:10460800042B01F1100251F8044B43F8044B91427A
:10461800F9D10A781A7010BDE4510D0010B59DF853
:10462800084044EA032343EA024242EA01610423C0
:104638004160037510BD37B50D788B784A78C97815
:1046480000912946FFF7EAFF03B030BD014B024A4B
:104658001A607047F8E40320A8520D0000221146A2
:104668004068FFF7B9BE002211464068FFF7C4BE94
:1046780000224068FFF7B8BE002281F001014068BF
:10468800FFF7A2BE00231A4619464068FFF794BEFA
:1046980000231A4619464068FFF786BE00221146D5
:1046A8004068FFF779BE002211464068FFF764BEF4
:1046B800002202214068FFF767BE00231A464068BF
:1046C800FFF752BE10B103685B681847704738B5EA
:1046D80004460068D0B1FFF74BFDB8B9237C1BB97D
:1046E800206808B1FFF74CFD656855B1AB681BB190
:1046F80003222946284698472846FFF7CAFC002384
:1047080063602068FFF744FD0023236038BD000084
:1047180038B50B4B03600446D0F8CC0108B1FFF75D
:10472800BAFCD4F8C4512DB12846FFF7D0FF28466B
:10473800FFF7AFFCA06808B1FFF7C4FF204638BDFB
:10474800DC520D0038B50D4C0D4B236000250223BB
:1047580004F5E4706360A560C4F8C451C4F8C85196
:10476800FFF726FD074BC4F8CC5123602046064AC4
:104778000649BDE8384000F0EFBA00BFFCE403206A
:1047880010530D00DC520D0058E4032019470D00AA
:1047980000231A464068FFF7E7BD0022022140685F
:1047A800FFF7F2BD002211464068FFF7E5BD002281
:1047B80011464068FFF7F0BD00231A4619464068C5
:1047C800FFF7F2BD00231A4619464068FFF7F4BD0B
:1047D800002281F001014068FFF7F6BD0022406821
:1047E800FFF702BE002211464068FFF705BE00220F
:1047F80011464068FFF7F0BD70B58CB01446064608
:10480800FFF7ECFE0CAB0022114643F8302D204692
:10481800FFF7FEFC014658BB009B4BB35A68022ABF
:104828000ED00A2A24D15C69112201A800F0FBFBF2
:1048380006238DF8143001AD04F10803183405E09F
:10484800596930460431FFF7F6FE11E018685968D7
:104858002A4603C20833A3421546F7D101A906A880
:1048680007ADFFF7C9FE0FCD341D0FC42B682370A9
:104878000098FFF7C5FC30460CB070BD024B034AE8
:104888001A6000225A607047CCE6032010530D00CE
:10489800F8B506460D468F180024BD420CD0336883
:1048A80015F8011B9B6830469847002801DB044433
:1048B800F3E7002C08BF04462046F8BD70B505464E
:1048C8000C46084649B100F0DFFB2B68024621463A
:1048D8002846DB68BDE87040184770BD03689B68D0
:1048E800184738B50D210546FFF7F8FF0A21044699
:1048F8002846FFF7F3FF204438BD38B50546FFF7D3
:10490800DDFF04462846FFF7ECFF204438BD30B5EC
:104918008BB00B4600218DF82410012A98BF0A227B
:104928000DF12304B3FBF2F505FB123303F0FF038B
:10493800092B94BF30333733DBB2214604F80139F1
:104948002B46002DEED1FFF7B9FF0BB030BD10B4E8
:104958002AB903685DF8044B9B68C9B21847D2B2FC
:104968005DF8044BFFF7D3BFFFF7F1BF10B504465E
:10497800FFF7B2FD204610BD0348044A044900234E
:10498800836000F0E9B900BFD4E6032058E40320AF
:1049980075490D00704710B50446FFF77AFB2046AD
:1049A80010BD000070B5084B0360044600250E4694
:1049B80040F80C5FFFF7F4FB30462671FFF730FC38
:1049C800A560204670BD00BF44530D0010B50446D5
:1049D800FFF7FEFBE060236820465B6998470028E4
:1049E80008DAFFF7F5FBE368C01AA3689842F2D328
:1049F8004FF0FF3010BD2DE9F84380468946164632
:104A08007BB1D7181546BD42A5EB06040AD040462F
:104A1800FFF7DCFF002805DB484503D005F8010B4C
:104A2800F1E71C462046BDE8F8830000044B00204F
:104A38004FF6FF72187058809A80FFF769BC00BF64
:104A4800E4E60320024B1A68024B1A60704700BF65
:104A5800F0E30320ECE60320704741747047007CC4
:104A6800FFF716BC007CFFF7F3BB007CFFF700BC28
:104A7800007CFFF7F5BB007CFFF702BC10B50446CD
:104A8800FFF707FB204610BD70B5457C04460E466F
:104A980025B9007CFFF7FCFB002805DD3146207CAA
:104AA800BDE87040FFF7CCBB284670BD10B5044682
:104AB80008461146002262604FF47A72A260054AE5
:104AC80022600122207462741A46FFF7B1FB204667
:104AD80010BD00BF80530D000023007CFFF7E0BB32
:104AE8000022FFF7F9BF0000F8B5194C25684DB949
:104AF8008420FFF7CCFA064618B18422294600F034
:104B080092FA2660134D2E684EB98420FFF7BFFA3B
:104B1800074618B18422314600F085FA2F600E4FFF
:104B2800396811F0010611D13846FFF7B6FA68B1B5
:104B380022682B6809483146FFF7B8FF3846FFF767
:104B4800B1FA074A0749054800F006F90348F8BDD5
:104B58000CE7032004E7032008E70320F0E603201E
:104B680058E40320614A0D004174704770470021E2
:104B7800007CFFF7B5BB0121007CFFF7B1BB007CCF
:104B8800FFF7A6BB007CFFF79BBB38B50446007C4B
:104B98000D46FFF79DFB002801DC607C20B129460B
:104BA800207CFFF7A5FB012038BD007CFFF7A8BBE0
:104BB80010B50446FFF76DFA204610BD10B504463F
:104BC800002363604FF47A73A360054B23600123CD
:104BD8000846217463741146FFF76AFB204610BD2E
:104BE800B0530D0010B514220446002100F01BFA42
:104BF800204610BD30B50E4D87B001A8FFF7F2FF73
:104C0800296811F0010410D12846FFF746FA60B16F
:104C180001AA21460748FFF7D1FF2846FFF742FAC5
:104C2800054A0649034800F097F8024807B030BD26
:104C380010E7032014E7032058E40320754B0D0008
:104C480008B50C4B33B1FFF7D5FF03681B699847CC
:104C5800002809DC084B63B1FFF746FF03681B69AE
:104C68009847002803DC08BDAFF30080F2E7AFF3F4
:104C7800008008BD000000000000000008B5FFF734
:104C8800DFFFFFF7A5FA014B186008BD2CE70320EA
:104C980007B5002300931A466FF07701FFF752FB20
:104CA80003B05DF804FB000007B543880A2B08D061
:104CB800502B09D1094B1B683BB103B05DF804EBDD
:104CC8001847FFF7E5FF06E0002300931A466FF048
:104CD8007701FFF737FB03B05DF804FB28E70320F3
:104CE80010B5FFF76DFA044600F0A6F9074B13B1AB
:104CF8002046AFF3008000210448FFF72DFB002178
:104D08000348BDE81040FFF713BB00BF00000000D8
:104D1800B14C0D0070B50C4C0C4E0D4D00212046C9
:104D2800FFF740FE20460B4C3246294600F014F8A7
:104D380001212046FFF736FE324629462046BDE8C7
:104D4800704000F009B800BF30E7032058E40320A2
:104D58009D490D0040E703200B460146184600F028
:104D680049B90000244B1A68D0075CBF01221A60B9
:104D7800224B1A68D1075CBF01221A60204B1A68BF
:104D8800D2075CBF01221A601E4B1A68D0075CBFAD
:104D980001221A601C4B1A68D1075CBF01221A60F5
:104DA8001A4B1A68D2075CBF01221A60184B1A689E
:104DB800D0075CBF01221A60164B1A68D1075CBF86
:104DC80001221A60144B1A68D2075CBF01221A60CC
:104DD800124B1A68D0075CBF01221A60104B1A6880
:104DE800D1075CBF01221A600E4B1A68D2075CBF5C
:104DF80001221A60704700BF7CE7032078E7032090
:104E080074E7032070E703206CE7032068E70320BA
:104E180064E7032060E703205CE7032058E70320EA
:104E280054E7032050E70320184B1A68D1075CBFEA
:104E380001221A60164B1A68D2075CBF01221A6059
:104E4800144B1A68D0075CBF01221A60124B1A680B
:104E5800D1075CBF01221A60104B1A68D2075CBFE9
:104E680001221A600E4B1A68D0075CBF01221A6033
:104E78000C4B1A68D1075CBF01221A600A4B1A68EA
:104E8800D2075CBF01221A60704700BF9CE703206D
:104E980098E7032094E7032090E703208CE703209A
:104EA80088E7032084E7032080E70320184B1A686B
:104EB800D1075CBF01221A60164B1A68D2075CBF83
:104EC80001221A60144B1A68D0075CBF01221A60CD
:104ED800124B1A68D1075CBF01221A60104B1A687E
:104EE800D2075CBF01221A600E4B1A68D0075CBF5C
:104EF80001221A600C4B1A68D1075CBF01221A60A4
:104F08000A4B1A68D2075CBF01221A60704700BFBB
:104F1800BCE70320B8E70320B4E70320B0E7032089
:104F2800ACE70320A8E70320A4E70320A0E70320B9
:104F3800244B1A68D0075CBF01221A60224B1A68FA
:104F4800D1075CBF01221A60204B1A68D2075CBFE8
:104F580001221A601E4B1A68D0075CBF01221A6032
:104F68001C4B1A68D1075CBF01221A601A4B1A68D9
:104F7800D2075CBF01221A60184B1A68D0075CBFC1
:104F880001221A60164B1A68D1075CBF01221A6009
:104F9800144B1A68D2075CBF01221A60124B1A68B8
:104FA800D0075CBF01221A60104B1A68D1075CBF9A
:104FB80001221A600E4B1A68D2075CBF01221A60E0
:104FC800704700BFECE70320E8E70320E4E703208D
:104FD800E0E70320DCE70320D8E70320D4E7032039
:104FE800D0E70320CCE70320C8E70320C4E7032069
:104FF800C0E7032010B5054C13462CB10A460146FC
:105008000220AFF3008010BD204610BD0000000054
:1050180010B5431E0A44914204D011F8014B03F81D
:10502800014FF8E710BD02440346934202D003F84B
:10503800011BFAE77047000038B5124B1C68A36BD8
:105048000546D3B91820FFF7DFF943F20E33A06302
:1050580003804AF6CD33438041F2342383804EF2F5
:105068006D63C3804DF6EC630381052343810B23F5
:10507800838101220023C0E90423A36B00221D6160
:105088005A6138BD54E40320034613F8012B002A63
:10509800FBD1181A01387047174B2DE9F0411D68EC
:1050A800AC6D06460F46FCB95020FFF7ADF9A86570
:1050B8008460AB6D046044601C61DC60AB6D9C6116
:1050C8005C61AB6DDC629C62AB6D5C631C63AB6D59
:1050D800DC639C63AB6D5C641C64AB6DDC649C64DA
:1050E800AB6D1C77AB6D5C62AA6D39463046012307
:1050F800BDE8F04100F002B854E40320F0B548B927
:10510800106838B9F0BD17F8016B5EB1B542FAD135
:105118002BB1204604460F4614F8015BF3E71460F0
:105128000370F0BD4DB915602846F0BD17F8016B46
:10513800B54207D0002EF9D11C4623460F4613F876
:10514800015BF3E715B10021217000E02B461360E5
:10515800F0BD00001D400D0059400D0085400D00B8
:1051680089400D00000000002C0000000000000035
:105178000000000095440D008B440D0081440D0093
:1051880037440D0075440D0069440D005D440D0061
:1051980055440D004B440D0041440D0001480D00DD
:1051A800000000000000000051450D0047450D00BB
:1051B8003D450D0033450D0027450D001B450D00ED
:1051C8000F450D0007450D00FD440D00F3440D008B
:1051D80001480D0000000000000000007F450D00A0
:1051E80071450D0073450D0066006C6E00666E001B
:1051F800636F64650064657461696C000D0A00255D
:105208003031307520005D20002564002C200028F6
:10521800293A2000205B00636F6465203D2000254B
:10522800690064657461696C73203D200062617572
:10523800640053657269616C0053657269616C3111
:10524800007479706500706172616D00636D64004F
:10525800696400686E64007374726D0066696C74CA
:10526800006C766C0061646448616E646C65720001
:1052780072656D6F766548616E646C657200656E07
:10528800756D48616E646C657273004A534F4E5376
:10529800747265616D4C6F6748616E646C6572000D
:1052A800617070006E6F6E6500747261636500698D
:1052B8006E666F007761726E006572726F72007051
:1052C800616E696300616C6C000000000000000002
:1052D80000000000C3460D00B9460D00AF460D00A2
:1052E800A5460D0099460D008D460D0081460D001E
:1052F80079460D006F460D0065460D0001480D000A
:10530800000000000000000099470D00A3470D00B1
:10531800AD470D00B7470D00C1470D00CD470D0043
:10532800D9470D00E5470D00ED470D00F7470D0083
:1053380001480D0000000000000000009D490D001C
:105348009F490D005A00252B3033643A25303275B9
:105358000025592D256D2D25645425483A254D3AAB
:105368002553257A0061736374696D650000000038
:105378000000000000000000614A0D00854A0D0091
:10538800914A0D0099480D006D4A0D00794A0D00AB
:10539800734A0D007F4A0D00634A0D00674A0D00ED
:1053A8000000000000000000754B0D00B94B0D0017
:1053B800934B0D0099480D008D4B0D00774B0D0058
:1053C8007F4B0D00B34B0D00874B0D00714B0D004B
:1053D80000000000000000000000000000000000C5
:1053E80000000000000000000000000000000000B5
:1053F80000000000000000000000000000000000A5
:105408000000000000000000000000000000000094
:105418000000000000000000000000000000000084
:105428000000000000000000000000000000000074
:105438004300000055410D00A1440D005D450D00DD
:1054480055460D004D470D0085480D0081490D005A
:10545800354A0D004D4A0D001D4D0D006D4D0D00D6
:10546800314E0D00B54E0D00394F0D000000000003
:0854780000000000000000002C
:105480006D530D0000000000D8530D00F8530D00BF
:1054900018540D0000000000000000000000000093
:1054A0000000000038540D00000000000000000063
:1054B00000000000000000000000000000000000EC
:1054C00000000000000000000000000000000000DC
:1054D00000000000000000000000000000000000CC
:0854E00000000000F4E30320CA
:1054E800FFFFFFFF00000102030405060708090A81
:1054F8000B0C0D0E0F101112131415161718191A7C
:085508001B1C1D1E1F202800C2
:045510007856341283
:04000003D0004018D1
:00000001FF
