:02000002D0002C
:1040000000400D00F08B0D00000005000D000501C3
:0840100004019301000000000F
:1040180064860D0009480A49884208B505D0094A4E
:10402800824202D0121A04F078FA0748074A00219F
:10403800121A04F07DFA014808BD00BFCCDE032047
:10404800608B0D0034DF032038DF0320F4E7032002
:1040580070B503F011FB074C074BE41AA4080025C0
:104068001E46A54204D056F8253098470135F8E792
:1040780070BD00BF5C8B0D00D48A0D0000F06AB9DA
:1040880008B500F09BF8BDE8084003F0C3BA02F099
:1040980051BC02F057BC02F055BC0078B0FA80F071
:1040A8004009704701230370704770477FB5024687
:1040B80008461379956833B13DB90C4904B0BDE899
:1040C800704002F001BF0A4B00E00A4B167B0A4C15
:1040D8000A49527B0292012E08BF214601910095A0
:1040E800074A002103F023F804B070BDBA860D001A
:1040F80090880D00A9860D00B2860D00B6860D00C9
:10410800D0860D0010B50446FFF7C3FF204610BD4A
:10411800083001F047B907B502AB012203F8011DC9
:104128000830194601F03EF903B05DF804FB0000C1
:1041380008B50349034804F033FA034B186008BD77
:10414800EE860D00BCDF0320B8DF0320000000006E
:1041580013B500240021164800F002FB14488DED29
:10416800010A00F019FB9DED010A80B90134052C04
:10417800F0D10DA1D1E900010E4BC3E9000103F014
:1041880005FA0D4902B0BDE8104002F0B4BE042C97
:10419800EFD010EE100A03F0CBFD064BC3E9000187
:1041A80002B010BDAFF300800000000000388FC0DF
:1041B80048DF032040DF0320F0860D0070B503F0D0
:1041C8005BF90368374C1B69984700280BDD03F03F
:1041D80053F9302322460D2103F0D3F8324B1870DF
:1041E800C0B2002323542378303B092B01D8FFF7B2
:1041F8009FFF0A2002F0B6FBFFF7AAFF08212B4811
:104208002B4D2C4C00F02EFC10EE100A03F090FD04
:1042180041EC100B0221284802F086FF2749264866
:1042280002F052FE95ED000B0221234802F07CFFBC
:104238002249214802F048FE21681F4802F05BFE2F
:1042480003F0A4F908210646184800F00BFC10EE0C
:10425800100A03F06DFD41EC100B0221304602F00C
:1042680063FF03F093F9154902F02EFE03F08EF96F
:1042780095ED000B022102F057FF03F087F90F4973
:1042880002F022FE03F082F9216802F01DFE03F01D
:104298007DF90B4902F02FFE3220BDE8704002F094
:1042A80061BB00BFBCDF032088DF03206CDF032075
:1042B80040DF0320B8DF03208CDF032000870D00D8
:1042C80090880D0008B5044603F060F994F860344E
:1042D800054613B3184902F018FE94F86034202BF1
:1042E80003D11649284602F010FE94F8603403B34F
:1042F8001349284602F0EFFD102294F8601428466E
:1043080002F032FE0F49284602F0E5FD102294F82B
:104318006914284602F02AFE0BE0E3790BB90A4932
:1043280005E094F83C340BB9084900E0084902F06C
:10433800ECFD02F0BBF8FCE703870D002A870D00AF
:104348005A870D006B870D006F870D008C870D0055
:10435800A7870D0070B54F484F4C406800238EB0BA
:104368001A46194602F0BEFA03F010F94FF4165136
:1043780003F000F903F080F84FF4165103F076F8D3
:1043880001210A2003F0B6F9444800F050FA4348E6
:1043980000F028FAFA2002F0E5FA414B414A059369
:1043A80004F58C6600238DF81830079201258DF8E6
:1043B80021300E2205AB04F26C4130468DF82050B6
:1043C80001F044FE70B3266004F23C4000F094FF14
:1043D8002946204601F0DFFC014640B12E4C04F28C
:1043E8003C452146284600F0B2FDD8B105E02046FC
:1043F80001F0D1FC0028F1D114E094F83C3413F01A
:10440800700F0FD0284C294A20686168156001ABED
:1044180003C32089A17A188000249970ADF80F4051
:10442800154609E01C48FFF74DFF9DF80930392B68
:104438000FD001338DF80930002301AA1C498DF8EB
:10444800144005A88DF8154000F05DFF0028ECD158
:1044580010E09DF80830392B06D0302201338DF852
:1044680009208DF80830E7E703F090F8114902F0C9
:1044780042FDE1E740F6012301AA29680E4800F051
:1044880042FF20B903F082F80C4902F034FD0EB067
:1044980070BD00BF84E40320ECDF03206CDF032041
:1044A80080860D0080F0FA029C860D0074E40320DB
:1044B80028E40320B7870D0094DF0320CE870D0082
:1044C80038B5214C214D02F049F80122022120463D
:1044D80000F050F82A461E49204603F077F9762165
:1044E8001C4800F061F91C4B1C481D49642283F8E4
:1044F80060241C4AC3F870240122002483F8742421
:10450800194ADC7183F83C4483F83D4483F86A44D3
:10451800C3F8784483F87C4483F87D44C3F86C245A
:104528000472124B44722A464460036003F04EF949
:104538000F4B4FF6FF721C705C809A800320BDE819
:10454800384002F073B900BF48DF032038DF03208A
:10455800D9450D006CDF0320ECDF03208CDF03203E
:10456800B3400D0080860D0034E703208C860D00D3
:1045780064DF032070B5044600236360A360E36032
:104588002361636123766376A2760E200E46FFF7D9
:104598007EFD054610B1314600F0E4FA256020465C
:1045A80070BD38B500F110050C460068294600F0CA
:1045B800C5FB031E1DBF2B6823606B682360636007
:1045C80014BF0120002038BD00F11001FFF7E9BF3A
:1045D80010B504460068FFF75CFD204610BD006872
:1045E80000F0A0BBF8B5837E04460D4616461BB9FD
:1045F8000B78002B00F0A680206800F0BDFAA37E9F
:1046080023B11EB9206800F089FB03E02946206821
:1046180000F072FB00224421206800F03AFB40F2CF
:10462800EE2002F09FF9206800F0A6FAA37E23B1DD
:104638001EB9206800F072FB03E02946206800F0EC
:104648005BFB0022BE21206800F023FB2B78262B81
:1046580004D100221146206800F01BFBE61C04F17F
:104668000C07206800F038FB06F8010FBE42F8D1AD
:104678000821201D00F0DDFB237B2076984263761D
:1046880060D12B78222B19D014D8102B5AD1E27A6A
:10469800A388102A08BFA27A4FEAC30302BF23F0F7
:1046A8000F03C2F10C029B181BB200EE103ABAEECF
:1046B800CE0AF8BD262B1FD0282B43D1227A237986
:1046C80002F06002202A05D0402A06D042B923F021
:1046D800070304E023F0030301E023F0010323713F
:1046E8002379607943EA002000B203F00FFB00222F
:1046F800164B03F071FB20E0A579284603F006FB72
:1047080006466079C01007EE900AF8EEE77A0F4681
:1047180017EE900A03F00CFB00220D4B03F05CFB34
:104728000B46290602464CBF0A490B49002003F0F4
:1047380053FB32463B4603F09DF903F045FE00EE7D
:10474800100AF8BD9FED050AF8BD00BF0000B03F94
:104758000000A03F0000F0BF0000F03F0000C07F55
:1047680038B5837E04460D463BB92A4604F110014C
:104778002046BDE83840FFF735BF037C002BF4D155
:10478800FFF72DFF2046FFF71FFF0028EDD19FED13
:10479800010A38BD0000C07F027E407E131A5842CD
:1047A8005841704701F0DABE38B504460D4602F0AC
:1047B800CBFF02F0B5F92572204638BD38B505465D
:1047C8000C4602F0C1FF297A02F0C2F902F0BCFFE0
:1047D800036821469B68984702F0B6FFBDE8384059
:1047E80002F0BDB9F8B5054600F10806A024214637
:1047F8002846FFF7E3FF02F0A7FF0222297A02F01A
:104808009EF902F0A1FF03685B699847074602F02A
:104818009BFF03685B6998470234C0B2E4B240EA80
:104828000720B02C26F8020FE1D10020F8BD08B50A
:104838001E21FFF7C3FF0320BDE8084002F092B82D
:1048480002F14003194470B5C9B205461446FFF792
:10485800B5FF012002F086F8082C11D8DFE804F033
:104868000510071009100B100D00012006E00320A9
:1048780004E0042002E0062000E00A2002F072F8BA
:1048880000212846FFF79AFF02F05EFF297A0322EB
:1048980002F055F900252C462E4602F055FF036814
:1048A8001B69984790B102F04FFF03685B6998470E
:1048B800C6B202F049FF03685B699847C4B202F0C8
:1048C80043FF03685B699847C5B2E6E7200200EB3F
:1048D8000640284470BD00002DE9F04F0A460E46F8
:1048E80085B010210446FFF7ABFF3246054600218C
:1048F8002046FFF7A5FFA38A0746E08AA5EB032514
:1049080080FB0501C30D43EA412303F5FA66B6F5BA
:10491800FA6F85FB05AB03FB03F825DA08EB4802C1
:1049280052101046D1174C4ACDE9000108EB880017
:104938004FEA6B0EC01096420EEB4E0E4FEAE07136
:1049480028DADDE9008903F6AC535B43C3EBC30205
:1049580018EB02084FEA830349EBE279C018CDE966
:10496800008941EBE37115E00723AAFB030103FB70
:104978000B1103F0FBF90022384B03F02DFA4FEA34
:10498800281803F071FD4246D317CDE90023864667
:1049980000210020B4F81280E28988FB05894FEADB
:1049A800024A4FEAD81242EA49621AEB02084FF06B
:1049B800000B4FEAE9134BEB0309CDE90289B4F880
:1049C8001080A28988FB05894FEAC23A4FEA18226B
:1049D80042EA096212EB0A024FF0000B4FEA292360
:1049E80043EB0B03121A63EB0103F917514307FB5F
:1049F8000311A2FB07230B44002ACEEB060673F132
:104A08000001266003DA1648002112184B41500DA8
:104A180040EAC3205915DDE902ABDDE90023BAEB12
:104A2800020A6BEB030BB0EB0A0A61EB0B0BBAF152
:104A3800000F7BF1000306DA47F6FF7200231AEB3A
:104A4800020A4BEB030B4FEADA3343EA4B4363604A
:104A580005B0BDE8F08F00BF24FAFFFF0000A03DBD
:104A6800FFFF1F0010B50446FFF736FF94ED010A5B
:104A7800B8EEC00AF2EE047A80EE270A10BD01F003
:104A88006DBD01F06BBD000010B503682F2B044607
:104A980004D9074A00210A2001F0C0FE23681F2B11
:104AA80083BF03F01F03236002484FF0A04010BDEE
:104AB80035650D000003005007B50B4B1B6800015E
:104AC80019181A5C4B7802A803F01F0343EA421333
:104AD80040F8043DFFF7D8FF019A01239340C0F83E
:104AE8000C3503B05DF804FB70E4032007B50B4BED
:104AF8001B68000119181A5C4B7802A803F01F0301
:104B080043EA421340F8043DFFF7BEFF019A012330
:104B18009340C0F8083503B05DF804FB70E4032047
:104B280013B50F4B1B6800011A181C5C537802A8B8
:104B380003F01F0343EA441440F8044DFFF7A4FFB1
:104B4800D0F8103502A840F8084DFFF79DFFD0F8BF
:104B58001035009823FA00F000F0010002B010BDF3
:104B680070E4032038B504460D462846002102F0BB
:104B7800C1FD2580204638BD38B5054601F0F6FF51
:104B88000021288801F0F2FC01F0F2FF7D24013CAD
:104B980014F0FF042BD0022001F0C8FC2888FFF78E
:104BA800BFFF0028F3D001F0E1FF2888FFF784FF5A
:104BB8000121288801F0DAFC01F0DAFF4FF4F070E7
:104BC80001F0B4FC01F0D2FF0021288801F0CEFCEE
:104BD800462001F0ABFC2888FFF7A2FFB0FA80F46A
:104BE80001F0C6FF4FF4CD70640901F09FFC204628
:104BF80038BD38B511F00105044613D001F0B6FFF1
:104C08002088FFF759FF0121208801F0AFFC0A2016
:104C180001F08CFC2088002101F0A8FC01F0A8FF1D
:104C2800372012E001F0A2FF2088FFF745FF01219D
:104C3800208801F09BFC412001F078FC208829465F
:104C480001F094FC01F094FF0520BDE8384001F024
:104C58006DBC10B5044601F089FF2088FFF72CFFD2
:104C68000121208801F082FC032001F05FFC002173
:104C7800208801F07BFC0A2001F058FC2088FFF70F
:104C88004FFF044601F074FF352001F04FFC204629
:104C980010BD2DE9F041054688461746082601242F
:104CA80018EA040F14BF012100212846FFF7A1FFCD
:104CB8006400013EE4B2F3D167B101F057FF2888E0
:104CC800FFF714FF2888012101F050FCBDE8F041EE
:104CD80001F04EBFBDE8F081F8B50746082600256B
:104CE80001243846FFF7B5FF00B125436400013EB3
:104CF800E4B2F6D12846F8BD70B500220C4655211D
:104D08000646FFF7C6FF651E073415F8011F002287
:104D18003046FFF7BEFFA542F7D170BD0022CC2177
:104D2800FFF7B7BF002383720373C37200F10A024F
:104D3800023002F8013D8242FBD170472DE9F0476D
:104D4800057B04468846002D5ED1FFF715FF20B984
:104D5800A0722073E072BDE8F0872A46F021204651
:104D6800FFF797FF0126AA4637462046FFF771FF4F
:104D780081462046FFF76DFFB9F1010F02D10128E6
:104D88001BD137E0814504EB05031ED1A27A974277
:104D980007D29A78164214BF4FF001094FF0000964
:104DA80004E00CBF4FF001094FF00009B9F1000F02
:104DB80003D1082F08D8E77206E062194FF00109FD
:104DC80093783343937004E0BA469A7822EA06024D
:104DD8009A70494620467600FFF70BFF16F0FF064B
:104DE80004BF0135EDB207F1010708BF0126072D01
:104DF800FFB2BAD9402F07D984F80AA0BAF1000F38
:104E080012D1012323730FE00020A0722073E072F7
:104E1800631C08F1FF38093413F8012F08F8012F33
:104E2800A342F9D1BDE8F087A378002BECD001208C
:104E3800EEE730B5054600200139C9B2FF2913D085
:104E480015F8014B082280EA040313F0010F4FEA1A
:104E580050001CBF80F08C03D8B2531E13F0FF0221
:104E68004FEA5404EFD1E7E730BD000008B501F080
:104E780075FB014B186008BD70E4032001F06EBBA0
:104E880010B50446243000F077FE28B104F50C7004
:104E9800BDE8104000F070BE10BD8378016943F092
:104EA8000403837000F11002806800F01BBF00004B
:104EB8002DE9F041037803F02003044603F0FF05D1
:104EC8000BB100262EE04269184B9A42F9D8FFF739
:104ED800E4FF06460028F4D02169A06800F097FE98
:104EE8000746A06805223946243000F06CFE80464B
:104EF8000028E6D029464FF4007203F019FB01257B
:104F0800A3681A79AA4209D94246E919186801F032
:104F1800DBF90028D5D00135EDB2F1E7636903EB81
:104F2800422363613046BDE8F08100BFFFFD1F00EA
:104F380010B5044680680A462430A16900F043FE93
:104F480020B1A38803F00F0300EB431010BD70B528
:104F5800047805460E4684B92422214603F0E8FA6F
:104F6800AE60F379102B03D0202B06D1402300E04C
:104F7800202301202B70A87070BD002070BD2DE982
:104F8800F74F03780446894615464BB18278D10716
:104F980006D50CE05A46216900F03FFE00283DDAAC
:104FA800637843F0020363704FF0FF3097E01A070D
:104FB80003D5E36962699B1A07E09A0608D5A368D6
:104FC8001A896369C3EB42139BB29D4228BF1D46F1
:104FD8002E464FF0000804F1100B002E35D0227831
:104FE8006369A06812F0200FC3F3080A4FEA53213F
:104FF80002D0036A19441DE090F8058001EA080808
:10500800BAF1000F10D1B8F1000F0DD1002BC1D1AA
:1050180053064CBF036A236A236105E004D1237851
:1050280013F0700F11D1BBE72169A06800F0EFFD04
:1050380008EB0001A068BAF1000F35D1B6F5007F82
:1050480032D3C36A994202D12EE0A81B47E0B6F5D5
:10505800806F1BD3227897064FEA562A06D4027926
:10506800C8EB0202D2B2924528BF924699424FEA53
:105078004A2707D2A06853464A46006801F0E2F87A
:1050880060B98DE75344994221D3F3E74A46006853
:1050980001F090F8002883D04FF4007763693B440F
:1050A800B9446361F61B98E70022243000F08BFDB9
:1050B80000283FF475AFCAF50077B74228BF3746D6
:1050C80000EB0A013A46484603F027FAE6E724309F
:1050D800019100F051FD01990028CBD160E703B0A0
:1050E800BDE8F08F37B54369C3F34315044605B1EE
:1050F80069B901220DF107012046FFF740FF40B2D0
:10510800012801D0002008E063691F3300E0203344
:10511800A0686361303000EB451003B030BD2DE965
:10512800F0410E46017807690446002939D04569DF
:10513800B5423AD00EB9066131E00B0703D5C36911
:105148009E422ED807E0880605D5A3681B89B6EBD2
:10515800431F26D823E0D4F808E09EF806306A1EDC
:1051680003F10900731EC240C3409A4200D84DB9EA
:105178004A064CBFDEF82020226A22611D4604F14F
:1051880010080AE09B1AF9E742462169A06800F076
:1051980044FD002805F1FF3503DD002DF4D16661DB
:1051A80003E027610020BDE8F0810120BDE8F0811F
:1051B800F8B50F4615460021242204461E4603F082
:1051C800B7F9B868A06005F00F02A58000F13001BA
:1051D80052013B6AE3601144CB7A1D074CD4831813
:1051E80093F83B3003F017032370C97A11F0180FB6
:1051F80004BF43F0080323709DF81830E37006F0ED
:105208000303012B09D0022B05D0002B34D17105E3
:1052180032D4012302E0032300E00223A370A17823
:105228008B0703D5237813F0110F25D14BB216F451
:10523800005F06F0080114BF6FF07F0700271943CD
:105248003943A170C36AA36102447505B2F84410DA
:10525800B2F84A3043EA014104D581B100F07DFD3E
:1052680068B909E02162D36CE36173040CD5E16984
:105278002046FFF754FF38B900202070F8BDA37806
:1052880043F00403A370F0E70120F8BD38B50378B4
:1052980004460BB9012038BD83785A0723D501216C
:1052A800FFF746FE054628B9637843F001036370AB
:1052B800002038BD0378E52BF6D023781B0744BFC0
:1052C800E369C361238C4383638C8382094B1B6826
:1052D8002BB100F11601183098472B8B6B82A378FD
:1052E80023F00403A370A068FFF7CAFD0028DBD0F1
:1052F800D0E700BF78E4032010B50446FFF7C6FFE7
:105308000023237010BDF0B593B01F4600238DF81D
:1053180024308DF825300378019206460C460BB1EF
:1053280000203DE00B7813F0700FF9D013782F2B85
:1053380012D1019B1A782F2A02D101330193F8E781
:10534800A1681AB93046FFF702FE29E009A8FFF75D
:10535800FEFD0028E4D009AC01AA03A9019800F0D9
:10536800FFF80028DCD0019B1B789BB1002303AA1F
:105378002146304600F036FA0028D1D035460FCD08
:1053880009AC0FC40FCD0FC42B6823603046FFF75C
:10539800B3FFE0E73B4603AA2146304600F022FA75
:1053A80013B0F0BD2DE9F047037889461907044684
:1053B800904608D583789A0705D51B070BD5E16970
:1053C800FFF7ADFE38B9637843F0010363704FF01F
:1053D800FF30BDE8F0876369DB439845F3D846465C
:1053E8004FF0000A6369002E00F08180A0684279BE
:1053F80012EA5325C3F308071CD1DFB9216971B13B
:1054080004F1100200F009FC0028DCDB40F08E807B
:105418002046FFF742FD002840F08880D3E7236A42
:105428003BB92046FFF739FD0028CCD02369236219
:1054380000E023612169A06800F0E9FB291817B989
:10544800B6F5007F21D2C7F50075B54228BF3546AD
:1054580037B96369E269934234BF0122052200E04B
:105468000122A068243000F0AEFB0028ABD03844FD
:105478002A4649462F4403F050F8B7F5007F30D14B
:10548800A068243000F078FB17E0B6F5806FA068BC
:1054980015D30279521B730AD2B2934228BF13461E
:1054A800C26A91424FEA432502D31A44914237D344
:1054B800A7684A46386800F079FF90B983E7C36A5D
:1054C800994202BF4FF0FF3380F824A0C362A3685B
:1054D8004A46186800F0F8FE00283FF474AF4FF40D
:1054E800007563692B446361A944761B7AE7E26916
:1054F800934201D9E36102E00F4B1B681BB1A3780B
:1055080043F00403A37094F90230002B02DB4046F9
:10551800BDE8F0872046FFF7B9FE0028F7D152E72B
:105528004FF0FF3280F824A0C262C1E72169A06869
:1055380000F06DFB014683E778E4032001F00EB824
:10554800411E00F10A020020430843EAC01011F886
:10555800013F53FA80F08A42C0B2F5D1704700008B
:105568002DE9F0470378202B00F1010401D12046F2
:10557800F8E7704F886005462C1A2E4615F8013B4F
:105588000BB32F2B01D1031917E05C2B02D100209C
:10559800BDE8F087A3F12204E4B21D2C03D827FA52
:1055A80004F4E407F3D403F0BF043C2CEFD0203B11
:1055B8005E2BE1D9EBE72F2D05D11E4613F8015BD1
:1055C800202DF8D1F9E7166003199842C0EB0308BB
:1055D80009D013F8012D2E2AF7D0202AF5D0B8F1DA
:1055E800FF0FD4DC01E04FF00008C1F8048001F19E
:1055F8000C0301F11702202403F8014F9342FBD159
:1056080003461A1A13F8014B2E2CFAD0202CF8D086
:10561800B2FA82F4640908F1FF36731C07D1002737
:105628004FF0070E3D46BA464FF0080909E0835D82
:105638002E2BF4D0013EF0E7835C202B04D100240C
:1056480001324245F8DB4BE02E2B02D1B242F6D1B3
:1056580003E0222B17D07C2B15D0A3F12A0CBCF128
:10566800050F01D82D2B0ED1A3F13A0CBCF1050F73
:1056780009D9A3F15B0CBCF1020F04D9A3F1210CE9
:10568800BCF15D0F02D9B2420ED149E0B24247D017
:10569800754521D8A3F1610CBCF1190F08D8203B3E
:1056A800DBB249EA07070AE0754515D800245F23ED
:1056B800A3F1410CBCF1190F98BF49EA0A0A05F198
:1056C800010C5FFA8CFC0D44BCF1060F6B7301D81A
:1056D80081F80CC06546B3E7BEF10A0F17D1002464
:1056E8004B7B202B3FF453AF3CB11AEA070F18BF8E
:1056F80002270F700120BDE8F0870B7B012008709E
:1057080019447E234B7331238B73BDE8F087B24273
:10571800E5DC32464FF00A0E08254FF010098EE7F7
:10572800BEF10A0FDBD032464FF00A0E08254FF0C3
:10573800100985E7010100312DE9F84391F80C9033
:1057480006460D4602247E2701F10D086968AA68FD
:1057580063189BB21144914206D012F8010B03EB77
:10576800431343409BB2F6E7B9F1030F28BF4FF04C
:10577800030909F10402D2B203F00F01A818013A93
:105788000929D2B294BF30313731914541734FEA7C
:105798001313F1D305EB090300215F733046FFF7BC
:1057A800BEFC01213046FFF79DFC014628B9707800
:1057B800B0FA80F04009BDE8F88303784BB1C37AAA
:1057C8001B07EED40B22404602F098FE0028E8D1D1
:1057D80002E00120BDE8F8830134A4B2642CB5D1FD
:1057E800BDE8F8832DE9F04F9B460B7889B013F09C
:1057F800700F05900E46914601D10020A0E1059B4F
:105808001B78002BF9D15368029313789B0700F09B
:105818008D81029B0D270C33B3FBF7F70137FFB2DD
:1058280000213046FFF77BFC4FF0000809F10D021C
:10583800CDF80C80434644464546CDF81080069284
:105848007269079301213046C2F34F1AFFF74AFCE9
:10585800079B20B97378002B00F09080CDE7027881
:10586800E52A00D042B9002C08BFD046BC423CBF54
:105878000134E4B222B981E0BC4238BF002403E01D
:10588800E52A01D10025DBE72E2AFBD0C17A0F29B2
:1058980052D13DB95106D3D5437B039302F01F057E
:1058A8002B4607E0013BDBB29A42EBD1427B0399DE
:1058B8009142E7D15A1E4FF00D0C0CFB02FC029AE4
:1058C8006245DFD94FF0000EBEF1040F5FFA8EF289
:1058D80004D800EB4E02B2F801200CE00A2A95BF6A
:1058E8000EF1FF320EF1010200EB420200EB420220
:1058F80094BFD28892880299614503D1002A18BFC3
:1059080000259DE7FF2ABDD8D2B2A2F1410119298D
:10591800D9F8081011F80C1098BF20320CF1010AC0
:10592800A1F1410C98BFD2B2BCF1190F9CBF203134
:10593800C9B29142A6D1FBE00907A3D44DB1012B0E
:105948007FF45BAFFFF7FCFD039B83427FF455AF09
:105958000FE00B220699079302F0D0FD079B002861
:105968007FF46EAF99F80020D20702D50122049285
:1059780066E71BF4006F00F0D1803EE71BF4007F60
:105988003FF43BAF0BF00303013B012B3FF635AF70
:10599800002C08BFD046BC4202D3049BCBB91FE001
:1059A80000213046FFF79EFB10B973785BB124E7FE
:1059B8000134E4B2EFE7B3681B79012BEDD810345A
:1059C800E4B2A742E9D93046FFF772FA0028F2D1CB
:1059D80013E749463046FFF7AFFE00283FF40DAF06
:1059E8004FEA48113046FFF79AFB00283FF405AF0D
:1059F8007D1EEDB22C464FF0000A4FF00F0841E033
:105A080000213046FFF76EFB074600283FF4F5AE4D
:105A1800B26892F82430AC4243F0010382F8243093
:105A28000CBF44F040022246027080F80B8080F8D8
:105A38000CA009F10D000392FFF782FD039A787319
:105A480087F81AA087F81BA002F01F020D23013A5D
:105A5800D9F808E05A4300230299914215D91EF853
:105A68000210042B5FFA83FC03F1010013D807EB43
:105A78004303A3F801100D2802F101020346EBD1FC
:105A8800013CE4B2002CBBD10EE014BF4FF0FF3153
:105A9800002189B2E5E7BCF10A0F94BF07EB430385
:105AA80007EB40039980E6E7736921463046C3F364
:105AB8004F1AFFF717FB074600283FF49EAE202237
:105AC800214602F035FD4B4653F80D2F3A605A68CF
:105AD8007A601A893A819B7ABB7299F8003003F090
:105AE80018033B73184B1B682BB107F10E0107F124
:105AF8001000984706E021233B7428237B74082371
:105B0800BC73FB733B8A7B823B83FB89FB82B26855
:105B180092F8243043F0010382F8243000955B4664
:105B2800524631460598FFF743FB09E0012777E61F
:105B38000EF1010EBEF10D0F3FF482AED446C3E65E
:105B480009B0BDE8F08F00BF78E4032000F006BD7F
:105B580070B505460C46084649B102F019FD2B6898
:105B6800024621462846DB68BDE87040184770BDEC
:105B780000F0F4BC00F0F2BC70B50378DA07044614
:105B88001ED54368816800F10C063246186800F09B
:105B98009BFB054608B9002513E023789B0704D42E
:105BA800237823F0010323700BE06368A068196968
:105BB80032460144186800F087FB0028F0D1EAE774
:105BC8000125284670BD70B583688B4204460E4691
:105BD800154614D0FFF7D0FF08B9002070BD6B0739
:105BE80003D500232370A66009E0636804F10C0262
:105BF8003146186800F0DEFA0028F2D1EDE7237884
:105C0800204605F003051D4300F80C5B70BD837941
:105C180040690239994008447047012970B5054622
:105C28000C46164602D84FF0FF3070BDC369994242
:105C3800F9D8C379202B10D18169022201EBD41144
:105C480000F50C70FFF7BFFF0028ECD004F07F04CC
:105C580050F8243023F070430FE0102BE3D1836910
:105C6800C1F307210222194400F50C70FFF7ABFFBE
:105C78000028D8D0E4B230F81430EA6993429ABFC9
:105C880033600120002070BD012938B50C46154647
:105C980001D8002038BDC3699942FAD8C379202BAE
:105CA8000ED18169032201EBD41100F50C70FFF7C6
:105CB8008AFF0028EDD004F07F0440F824500FE05C
:105CC800102BE6D18369C1F307210322194400F59B
:105CD8000C70FFF778FF0028DBD0E4B220F81450EE
:105CE800012038BD2DE9F341C4688C4205460E46B3
:105CF800904607D20C460027EB6901349C4203D931
:105D0800CFB9EC680127F7E7A64214D001AA2146CB
:105D18002846FFF782FF00280DDBEDD0019B002B02
:105D2800EAD107B1EC606FF0704221462846FFF7D0
:105D3800ABFF074608B900270BE016B9C8F80040C2
:105D480007E0224631462846FFF79EFF0028F5D196
:105D5800F1E7384602B0BDE8F08173B505460C4658
:105D680001AA21462846FFF758FF061E01DA00203F
:105D78000FE0002221462846FFF786FF0028F6D0CC
:105D8800EB689C429CBF04F1FF34EC60019C002E40
:105D9800E6D102B070BD70B5012304460022C3608D
:105DA8004FF0FF33C2710D46A06280F82420C36211
:105DB800C4F8340280F83022C0F83832A1B104297E
:105DC8005DD811462430FFF7FEFE002857D000EBBF
:105DD800051393F8AE315B0651D11B3500EB051561
:105DE800D5F80650002D4AD00022294604F1240097
:105DF800FFF7E9FE002842D0B0F80B30B3F5007F7A
:105E08003DD1037C022B3AD1C389002B37D0417B8B
:105E180021714B1E63710023A371092601238B4254
:105E280007D0013E2BD0A2795B000132DBB2A27110
:105E3800F5E7C28A02B9426A2261C6892E44A66180
:105E4800B0F81130238106EB42012162B0F811202D
:105E5800520102F2FF1201EB62226261B0F81330C4
:105E680003B9036AAD1A2B44A57923FA05F56B1C0F
:105E7800E36140F6F4739D4203D80C23E3710020DC
:105E880070BD4FF6F4739D4285BFC36A2362102329
:105E98002023E371012070BD00F060BB00F05EBB01
:105EA80000F05CBB00F05ABB00F058BB70B50E4C5C
:105EB8000E46154600F042FB2368C01A0B4B984269
:105EC80008D900F043FB0A4B186000F0D3FC00F03F
:105ED80035FB206000F03AFB80B2801BA842D4BF9B
:105EE8000020012070BD00BF7CE40320A0860100D3
:105EF80018E7032038B5057A04464DB9406800F024
:105F08007DFA63682946187D01F005FC0123237298
:105F180038BD10B5037A04466BB143680121187D7A
:105F280001F0F9FBFF21606800F09AFA606800F060
:105F380079FA0023237210BDF8B504460D461646BB
:105F480000F004FB87B2606800F06FFAFF28607207
:105F580009D14FF47A7239462046FFF7A7FF002887
:105F6800F1D055230BE0FE2801D0502307E032463C
:105F78002946606800F05EFA607230B160232046FE
:105F88002370FFF7C6FF0020F8BD606800F04DFAE7
:105F9800606800F04AFA0120F8BD70B504460E4664
:105FA80000F0D4FA85B2324629462046FFF77EFF34
:105FB80030B9606800F039FAFF28F4D1012070BDCB
:105FC800002070BDF7B5037A019204460D460BB95F
:105FD800FFF790FF25B14FF496712046FFF7DDFFDC
:105FE80045F04001606800F03BFA0DF107060DF13D
:105FF800030716F80119606800F032FABE42F8D1BA
:10600800002D0CBF95218721606800F029FA60688F
:1060180000F00BFA0B25606800F007FA03066072BF
:1060280003D5013D15F0FF05F5D103B0F0BD70B5FE
:1060380004460D46164637210022FFF7C3FF3246B5
:1060480029462046BDE87040FFF7BCBF2DE9F04166
:1060580000250572057085724160044690461E460B
:1060680000F074FA41460746606800F0CBF96368AF
:106078004F4A1D724FF00108DA605D7483F8108092
:106088002046FFF737FF63684146187D01F043FB60
:106098000A25FF216068013D00F0E2F915F0FF05CF
:1060A800F7D163682946187D01F035FB0A250022DF
:1060B80011462046FFF786FF0128804612D0013D91
:1060C80015F0FF0501D1202357E0FD21606800F09D
:1060D800C7F94FF40278606800F0A7F9B8F1010831
:1060E800F9D1E4E74FF4D57208212046FFF76AFF9B
:1060F800052802D184F80A800FE00425606800F0C2
:1061080094F9013D15F0FF056072F7D1AA2802D174
:106118000223A37201E025232FE0A37A022B0CBFF0
:106128004FF080450025BFB22A4629212046FFF7B7
:106138007EFF024648B14FF4FA6239462046FFF71F
:10614800B5FE0028F0D0432317E0A37A022B0ED027
:106158002046FFF7DEFE6368B0683479317B727BD6
:106168005A74D8601C7219740120BDE8F0813A2174
:106178002046FFF727FF38B1372320462370FFF763
:10618800C8FE0020BDE8F081606800F04EF900F01C
:10619800C000C02804BF0323A372606800F045F95B
:1061A800606800F042F9606800F03FF9D0E700BF8E
:1061B80090D0030038B5837A032B18BF49021546DF
:1061C8000A4611210446FFF7FDFE10B13023237063
:1061D8000BE029464FF400722046FFF7ADFE054656
:1061E80018B12046FFF795FE03E02046FFF791FE21
:1061F8000025284638BD10B5837A032B0A4618BFF8
:106208004A0212210446FFF7DDFE30B13123204651
:106218002370FFF77EFE002010BD012010BD10B5D1
:1062280000220C210446FFF7CDFE30B1282320467A
:106238002370FFF76EFE002010BD2046FFF769FEB1
:10624800012010BDF8B5054616461F46FFF7D3FFD7
:1062580098B10024A3B29F4206EB442108D94FF419
:1062680000722846FFF768FE01340028F2D104E0E6
:106278002846BDE8F840FFF7D2BF0020F8BD38B582
:1062880004461546406800F0EBF84FF400722946C2
:10629800606800F0E9F8FF21606800F0E1F8FF218C
:1062A800606800F0DDF8606800F0BFF8607200F028
:1062B8001F00052806D0572320462370FFF729FE24
:1062C800002038BD012038BD70B5837A032B18BF74
:1062D800490215460A4618210446FFF773FE06468A
:1062E80008B132231DE02A46FE212046FFF7C7FFEA
:1062F800C0B14FF4FA612046FFF74FFE054608B9D2
:106308005A230EE032460D212046FFF75BFE38B9CE
:10631800606800F08AF818B92046FFF7FAFD05E032
:10632800292323702046FFF7F4FD0025284670BD79
:1063380038B50D464FF4FA610446FFF72EFE10B942
:106348005B23237005E02A46FC212046FFF797FFD0
:1063580018B92046FFF7DDFD002038BD10B5837A57
:10636800032B0A4618BF4A0219210446FFF72AFEE2
:1063780030B1332320462370FFF7CBFD002010BD3A
:10638800012010BD38B54FF4FA610446FFF705FE49
:10639800054620B1FD21606800F062F801E056234F
:1063A80023702046FFF7B5FD284638BDF8B50546E9
:1063B80016461F46FFF7D2FF70B10024BC4206EB19
:1063C8004421284604D0FFF7B3FF28B10134F5E78C
:1063D800BDE8F840FFF7D6BF2846FFF79AFD002032
:1063E800F8BD00F0BBB800F0B9B800F0B7B80000CD
:1063F800014B01221A70704780E40320011D0068D8
:1064080000F01EBF10B504460175006800F0FAFEE2
:10641800207D012101F06EF9207D0121BDE81040A9
:1064280001F079B9006800F0F2BEFF21006800F0C1
:1064380077BF000037B5084B00930025074C00686C
:10644800257013460A46294600F070FF2378002B72
:10645800FCD0002003B030BDF9630D0080E40320B8
:10646800006800F05DBF000037B5074B00930025BA
:10647800064C0068257013462A4600F057FF23781B
:10648800002BFCD003B030BDF9630D0080E403207D
:1064980000F064B800F062B800F060B808B5024BCC
:1064A8001B689B68019308BD4802030008B5024BAE
:1064B8001B68DB68019308BD4802030008B5024B5E
:1064C8001B681B69019308BD4802030008B5024B0D
:1064D8001B685B69019308BD4802030008B5024BBD
:1064E8001B681B6B019308BD4802030008B5024BEB
:1064F8001B689B6B019308BD4802030008B5024B5B
:106508001B681B6C019308BD4802030008B5024BC9
:106518001B685B6C019308BD4802030008B5024B79
:106528001B685B68019308BD1802030008B5024B9D
:106538001B68DB68019308BD1802030008B5024B0D
:106548001B681B69019308BD1802030008B5024BBC
:106558001B685B69019308BD1802030008B5024B6C
:106568001B681B68019308BD2C02030008B5024B89
:106578001B689B68019308BD2C02030008B5024BF9
:106588001B68DB68019308BD2C02030008B5024BA9
:106598001B681B69019308BD2C02030008B5024B58
:1065A8001B681B6A019308BD2C02030008B5024B47
:1065B8001B685B6A019308BD2C02030008B5024BF7
:1065C8001B68DB68019308BD2802030008B5024B6D
:1065D8001B685B69019308BD2802030008B5024BDC
:1065E8001B689B69019308BD2802030008B5024B8C
:1065F8001B68DB69019308BD2802030008B5024B3C
:106608001B681B6A019308BD2802030008B5024BEA
:106618001B685B6A019308BD2802030008B5024B9A
:106628001B689B6A019308BD2802030008B5024B4A
:106638001B68DB6A019308BD2802030008B5024BFA
:106648001B681B6B019308BD2802030008B5024BA9
:106658001B685B6B019308BD2802030008B5024B59
:106668001B681B6C019308BD2802030008B5024B88
:106678001B685B69019308BD6402030008B5024BFF
:106688001B689B68019308BD6802030008B5024BAC
:106698001B68DB68019308BD6802030008B5024B5C
:1066A8001B681B68019308BD3002030008B5024B44
:1066B8001B685B69019308BD3002030008B5024BF3
:1066C8001B68DB69019308BD3002030008B5024B63
:1066D8001B681B6A019308BD3002030008B5024B12
:1066E8001B685B6A019308BD3002030008B5024BC2
:1066F8001B689B6A019308BD3002030008B5024B72
:106708001B689B6B019308BD3002030008B5024B60
:106718001B68DB6B019308BD3002030008B5024B10
:106728001B681B68019308BD3C02030008B5024BB7
:106738001B68DB68019308BD3C02030008B5024BE7
:106748001B681B69019308BD3C02030008B5024B96
:106758001B685B69019308BD3C02030008B5024B46
:106768001B689B69019308BD3C02030008B5024BF6
:106778001B68DB69019308BD3C02030008B5024BA6
:106788001B681B6A019308BD3C02030008B5024B55
:106798001B689B6A019308BD3C02030008B5024BC5
:1067A8001B68DB6A019308BD3C02030008B5024B75
:1067B8001B681B68019308BD4C02030008B5024B17
:1067C8001B685B68019308BD4C02030008B5024BC7
:1067D8001B681B69019308BD4C02030008B5024BF6
:1067E8001B685B69019308BD4C02030008B5024BA6
:1067F8001B689B69019308BD4C02030008B5024B56
:106808001B68DB69019308BD4C02030008B5024B05
:106818001B681B6A019308BD4C02030008B5024BB4
:106828001B685B6B019308BD6002030008B5024B4F
:106838001B685B68019308BD2002030008B5024B82
:106848001B685B69019308BD2002030008B5034B70
:106858001B68D3F88830019308BD000020020300AC
:1068680008B5034B1B68D3F89430019308BD0000AA
:106878002002030008B5024B1B689B68019308BD02
:106888004402030008B5024B1B68DB6B019308BD8B
:106898004402030008B5024B1B685B68019308BDFE
:1068A8004002030008B5024B1B689B68019308BDB2
:1068B8004002030008B5024B1B68DB68019308BD62
:1068C8004002030008B5024B1B681B69019308BD11
:1068D8004002030008B5024B1B685B69019308BDC1
:1068E8004002030008B5024B1B689B69019308BD71
:1068F8004002030008B5024B1B68DB69019308BD21
:106908004002030008B5024B1B681B6A019308BDCF
:106918004002030008B5024B1B681B6B019308BDBE
:106928004002030008B5024B1B685B6B019308BD6E
:106938004002030008B5024B1B681B68019308BDA1
:106948001C02030008B5024B1B685B68019308BD75
:106958001C02030008B5024B1B685B6A019308BD63
:106968001C0203000021FFF769BF0022114640689E
:10697800FFF7A8BF002211464068FFF7C3BF0022F7
:1069880011464068FFF7CEBF00224068FFF7C2BF3C
:10699800002281F001014068FFF7ACBF00231A46CE
:1069A80019464068FFF79EBF00231A4619464068FB
:1069B800FFF790BF002211464068FFF773BF00221F
:1069C80002214068FFF776BF00231A464068FFF7A8
:1069D80061BF000038B50C4D282422460021284606
:1069E80001F0A6FD4FF0FF336B602C80074D0423A8
:1069F80028466B60064B40F8083B2246002101F010
:106A080097FD2C8138BD00BFB4E4032084E4032043
:106A1800E0870D0010B58368044613B103220146D0
:106A28009847204610BD002211464068FFF76ABF0C
:106A3800002211464068FFF775BF00224068FFF743
:106A480069BF002281F001014068FFF753BF0023AE
:106A58001A4619464068FFF745BF00231A461946EB
:106A68004068FFF737BF002211464068FFF72ABF8A
:106A7800002211464068FFF715BF00220221406836
:106A8800FFF718BF00231A464068FFF703BF00004E
:106A9800024B03225A60024A1A607047DCE4032062
:106AA80014880D007047F8B5064615460C468F1831
:106AB800BC4206D0336814F8011B9B6830469847DF
:106AC800F6E72846F8BD0022007CFFF797BD0021B5
:106AD800007CFFF79BBD0021007CFFF79FBD0021D4
:106AE800007CFFF7A3BD0021007CFFF7A7BD10B510
:106AF8000446FDF7CEFA204610BD000010B5044646
:106B08004FF47A730846A3600021044B2074616037
:106B18002360FFF7A3FD204610BD00BF48880D0085
:106B280000231A461946007CFFF748BD13B5002418
:106B3800007C0094FFF74AFDC0B202B010BD0123EB
:106B4800D2B2C9B2FFF7F2BF0022007CFFF746BD00
:106B5800C9B2FFF7F9BF0022007CFFF747BD01214A
:106B6800FFF7F9BF0021007CFFF770BDFFF71EBDDE
:106B7800FFF714BD704710B50446FDF78AFA2046A2
:106B880010BDF0B5037D062B8DB00E4600F104074D
:106B98004FF0000402D000F1080518E00CAD3946AA
:106BA80005F8304D2F232A460A20FFF75FFD2846B7
:106BB80001F0EEFC33680246DB6829463046984708
:106BC8000FE024B12E21304600F082F9044415F874
:106BD800011D0A22304600F0C7F9BD420444F0D135
:106BE80020460DB0F0BD000010B5054B044611223B
:106BF80040F8043B002101F09BFC204610BD00BF7B
:106C080070880D000346074A10B543F8042B01F1BC
:106C1800100251F8044B43F8044B9142F9D10A7819
:106C28001A7010BD70880D0010B59DF8084044EA30
:106C3800032343EA024242EA0161042341600375E7
:106C480010BD37B50D788B784A78C97800912946F8
:106C5800FFF7EAFF03B030BD014B024A1A607047E4
:106C6800E4E4032032890D00002211464068FFF752
:106C780049BE002211464068FFF754BE0022406812
:106C8800FFF748BE002281F001014068FFF732BEDD
:106C980000231A4619464068FFF724BE00231A4607
:106CA80019464068FFF716BE002211464068FFF7F4
:106CB80009BE002211464068FFF7F4BD00220221F8
:106CC8004068FFF7F7BD00231A464068FFF7E2BDAA
:106CD80010B103685B681847704738B50446006808
:106CE800D0B1FFF7DBFBB8B9237C1BB9206808B12A
:106CF800FFF7E4FB656855B1AB681BB10322294671
:106D0800284698472846FDF7C4F9002363602068A1
:106D1800FFF7DCFB0023236038BD000038B50B4BC0
:106D280003600446D0F8CC0108B1FDF7B4F9D4F8F3
:106D3800C4512DB12846FFF7D0FF2846FDF7A9F921
:106D4800A06808B1FFF7C4FF204638BD60890D0070
:106D580038B50D4C0D4B23600025022304F5E47073
:106D68006360A560C4F8C451C4F8C851FFF7CEFBEE
:106D7800074BC4F8CC5123602046064A0649BDE8B3
:106D8800384000F023BD00BFE8E4032094890D00DB
:106D980060890D0038DF0320256D0D0000231A4699
:106DA8004068FFF777BD002202214068FFF782BDE7
:106DB800002211464068FFF775BD00221146406861
:106DC800FFF780BD00231A4619464068FFF782BDC9
:106DD80000231A4619464068FFF784BD002281F057
:106DE80001014068FFF786BD00224068FFF792BDA9
:106DF800002211464068FFF795BD00221146406801
:106E0800FFF780BD70B58CB014460646FFF7ECFE60
:106E18000CAB0022114643F8302D2046FFF736FC14
:106E2800014658BB009B4BB35A68022A0ED00A2A67
:106E380024D15C69112201A801F07AFB06238DF8A0
:106E4800143001AD04F10803183405E059693046DF
:106E58000431FFF7F6FE11E0186859682A4603C2A4
:106E68000833A3421546F7D101A906A807ADFFF7D5
:106E7800C9FE0FCD341D0FC42B6823700098FFF78F
:106E8800FDFB30460CB070BD024B034A1A6000226D
:106E98005A607047B8E6032094890D00F8B5064695
:106EA8000D468F180024BD420CD0336815F8011B1D
:106EB8009B6830469847002801DB0444F3E7002C20
:106EC80008BF04462046F8BD08B5FEF741FE08BDD8
:106ED80003689B68184708B5FEF73AFE08BD38B541
:106EE8000D210546FFF7F4FF0A2104462846FFF75F
:106EF800EFFF204438BD38B50546FEF729FE0446A5
:106F08002846FFF7ECFF204438BDFFF7F4BF30B543
:106F18008BB00B4600218DF82410012A98BF0A2255
:106F28000DF12304B3FBF2F505FB123303F0FF0365
:106F3800092B94BF30333733DBB2214604F80139CB
:106F48002B46002DEED1FEF703FE0BB030BD10B47A
:106F58002AB903685DF8044B9B68C9B21847D2B2D6
:106F68005DF8044BFFF7D3BFFFF7F1BF38B505460F
:106F7800FFF7EDFF04462846FFF7B1FF204438BD70
:106F88002DE9F04107460E4615462AB90368C9B2ED
:106F98009B68BDE8F04118470A2A02D1002901DAA6
:106FA80004E0D2B2BDE8F041FFF7B1BF2D21FFF7F1
:106FB8008FFF2A46044671423846FFF7A8FF20444F
:106FC800BDE8F0812DE9F04757EC106B82460D467D
:106FD80010EE102A3B4610EE100A394601F096F9D9
:106FE80008B1484912E027F000494FF0FF32464BFC
:106FF8003046494601F08AF968B94FF0FF32424BF2
:107008003046494601F064F928B940495046FEF730
:107018009FFDBDE8F0874FF060423D4B3046394652
:1070280001F06AF908B13B49F0E74FF060423A4B8A
:107038003046394601F042F90028F4D100220023F5
:107048003046394601F03AF940B12D215046FFF754
:107058003FFF07F1004304461F4600E004462F495E
:107068004FF0000800205FFA88F39D4206D90022FD
:107078002B4B00F0DBFF08F10108F4E732463B46F2
:1070880000F0F8FC0F46064601F07EF90A22014698
:1070980080465046FFF73BFF04447DB3404600F06E
:1070A80025FE02460B463046394600F0E1FC06460E
:1070B8000F4650461B49FEF74BFD0444184B00226F
:1070C8003046394600F088FE0F46064601F034F98E
:1070D8000A22014680465046FFF752FF04444046C4
:1070E80000F014FE02460B463046394600F0C0FC5C
:1070F800013D15F0FF0506460F46DFD12046BDE8E5
:10710800F08700BFC0890D00FFFFEF7FC8890D0021
:10711800FFFFEF41C4890D00FFFFEFC10000E03F12
:10712800000024408A870D00C9B2FFF74BBF0CB49A
:107138002DE9F04387B000AF07F13804054654F84D
:10714800049B3C600E4623464A461421381DFFF72F
:1071580001FC132805D8391D2846FEF7F9FC04461A
:1071680013E000F1080323F00703E846ADEB030D35
:10717800411C23464A4668463C60FFF7EBFB6946DC
:107188002846FEF7E5FC0446C5461EB12846FFF72B
:10719800A6FE044420461C37BD46BDE8F04302B0B5
:1071A800704710B50446FFF735FC204610BD0000B7
:1071B8000348044A04490023836000F007BB00BF6A
:1071C800C0E6032038DF0320AB710D00704710B50F
:1071D8000446FCF75EFF204610BD000070B5084B62
:1071E8000360044600250E4640F80C5FFFF776F969
:1071F80030462671FFF762FAA560204670BD00BFD1
:10720800D4890D004FF6FF710079FFF747BAC068BF
:10721800FFF774B9400830B5186000241868884230
:10722800E5B206D90134082C02D040081860F5E709
:107238000725024B5B5D137030BD00BFDC890D0074
:107248002DE9F04380468FB0C0680F46FFF74EF92E
:1072580098F804401422002109A801F069F90B23C9
:107268002046002209A9ADF82430FFF737FA9DF827
:107278002D404CB19DF82C502DB90C9E9DF83490A2
:107288009DF8354003E00024A146264601253B79B8
:107298000DB1002B40D19D420BD1BA68B24208D142
:1072A8008DF820908DF82140BDF82010BA899142C0
:1072B80032D023BB8DF80F300DF10F0204ABB96843
:1072C8000A98FFF7A7FF3B7905B113BBAB4209D07A
:1072D80000213B7B01917C7B9DF80F2098F80400EE
:1072E800009413E0BB68B342F2D38DF820908DF878
:1072F8002140BDF82020BB899A42E9D109E000234A
:1073080098F80400019300931A460121FFF7FEF94B
:1073180002E0049BB342DBD100200FB0BDE8F0834C
:1073280008B50079FFF7C2F9C0B208BD30B587B01B
:1073380004460A9D00790095FFF7D8F93DB902A9DE
:107348002079FFF7DBF99DF81430DB07F7D407B095
:1073580030BD0079FFF7BAB910B50446FFF7F6F863
:10736800E060236820465B699847002808DAFFF741
:10737800EDF8E368C01AA3689842F2D34FF0FF30E3
:1073880010BD2DE9F8438046894616467BB1D718CB
:107398001546BD42A5EB06040AD04046FFF7DCFFC0
:1073A800002805DB484503D005F8010BF1E71C462A
:1073B8002046BDE8F8830000044B00204FF6FF721A
:1073C800187058809A80FFF731BA00BFD0E60320C2
:1073D800024B1A68024B1A60704700BFCCDE0320CC
:1073E800D8E60320704741747047007CFFF7CEB998
:1073F800007CFFF7A3B9007CFFF7B0B9007CFFF76A
:10740800A5B9007CFFF7B2B910B50446FCF741FEF8
:10741800204610BD70B5457C04460E4625B9007C53
:10742800FFF7B4F9002805DD3146207CBDE870403F
:10743800FFF77CB9284670BD10B5044608461146CA
:10744800002262604FF47A72A260054A226001222B
:10745800207462741A46FFF761F9204610BD00BF18
:10746800188A0D000023007CFFF798B90022FFF767
:10747800F9BF007CFFF782B9F8B5194C25684DB9FA
:107488008420FCF704FE064618B18422294601F040
:107498004FF82660134D2E684EB98420FCF7F7FD8F
:1074A800074618B18422314601F042F82F600E4F8A
:1074B800396811F0010611D13846FCF7EEFD68B1C4
:1074C80022682B6809483146FFF7B6FF3846FCF7B3
:1074D800E9FD074A0749054800F078F90348F8BD6F
:1074E800F8E60320F0E60320F4E60320DCE60320B8
:1074F80038DF0320ED730D00417470477047002199
:10750800007CFFF773B90121007CFFF76FB9007C9D
:10751800FFF764B9007CFFF759B938B50446007C19
:107528000D46FFF75BF9002801DC607C20B1294695
:10753800207CFFF763F9012038BD007CFFF766B9AE
:1075480010B50446FCF7A5FD204610BD10B504464D
:10755800002363604FF47A73A360054B2360012313
:107568000846217463741146FFF720F9204610BDC0
:10757800488A0D000022007CFFF720B910B51422BC
:107588000446002100F0D4FF204610BD30B50E4D52
:1075980087B001A8FFF7F2FF296811F0010410D1A4
:1075A8002846FCF77AFD60B101AA21460748FFF793
:1075B800CDFF2846FCF776FD054A0649034800F04A
:1075C80005F9024807B030BDFCE6032000E70320B8
:1075D80038DF032005750D0008B50C4B33B1FFF7F4
:1075E800D5FF03681B699847002809DC084B63B17D
:1075F800FFF742FF03681B699847002803DC08BDB2
:10760800AFF30080F2E7AFF3008008BD0000000090
:107618000000000008B5FFF7DFFFFEF797FF014BFA
:10762800186008BD18E7032007B5002300931A4621
:107638006FF07701FFF714F903B05DF804FB000061
:1076480007B543880A2B08D0502B09D1094B1B6872
:107658003BB103B05DF804EB1847FFF7E5FF06E020
:10766800002300931A466FF07701FFF7F9F803B08B
:107678005DF804FB14E7032010B5FEF74FFF04463E
:1076880000F05EFF074B13B12046AFF300800021E6
:107698000448FFF7F7F800210348BDE81040FFF75A
:1076A800D5B800BF0000000049760D0010B50446AB
:1076B8000F48FFF74EFE28B1A4F10B03022B01D8A7
:1076C800002010BD00F040F8FFF74CFA08B1012C7B
:1076D800F6D9FFF7D1FEFFF7CCFE18B1A4F10903E4
:1076E800012BEDD9232C8CBF0020012010BD00BF39
:1076F80034E70320232838B504460D460AD8FF2965
:1077080008D0FFF7D3FF28B129462046BDE8384006
:10771800FEF72CBF38BD38B504460D46FEF72EFFE0
:10772800FF2810D0062804D84D2323FA00F0C307F9
:1077380009D42046FFF7BAFF28B129462046BDE8FC
:107748003840FEF723BF38BD38B50B4D296811F016
:1077580001040FD12846FCF7A0FC58B12146074880
:10776800FFF7CCF92846FCF79DFC054A0549034874
:1077780000F02CF8014838BD1CE7032020E703205F
:1077880038DF0320AD6A0D0070B50C4C0C4E0D4D62
:1077980000212046FFF722FD20460B4C32462946A1
:1077A80000F014F801212046FFF718FD324629465B
:1077B8002046BDE8704000F009B800BF34E7032058
:1077C80038DF0320D5710D0044E703200B4601463E
:1077D800184600F085BE0000244B1A68D0075CBF2D
:1077E80001221A60224B1A68D1075CBF01221A6075
:1077F800204B1A68D2075CBF01221A601E4B1A6818
:10780800D0075CBF01221A601C4B1A68D1075CBF05
:1078180001221A601A4B1A68D2075CBF01221A604B
:10782800184B1A68D0075CBF01221A60164B1A68F9
:10783800D1075CBF01221A60144B1A68D2075CBFDB
:1078480001221A60124B1A68D0075CBF01221A6025
:10785800104B1A68D1075CBF01221A600E4B1A68D8
:10786800D2075CBF01221A60704700BF80E703207F
:107878007CE7032078E7032074E7032070E7032000
:107888006CE7032068E7032064E7032060E7032030
:107898005CE7032058E7032054E70320184B1A68D5
:1078A800D1075CBF01221A60164B1A68D2075CBF69
:1078B80001221A60144B1A68D0075CBF01221A60B3
:1078C800124B1A68D1075CBF01221A60104B1A6864
:1078D800D2075CBF01221A600E4B1A68D0075CBF42
:1078E80001221A600C4B1A68D1075CBF01221A608A
:1078F8000A4B1A68D2075CBF01221A60704700BFA2
:10790800A0E703209CE7032098E7032094E70320DF
:1079180090E703208CE7032088E7032084E703200F
:10792800184B1A68D1075CBF01221A60164B1A68F7
:10793800D2075CBF01221A60144B1A68D0075CBFDB
:1079480001221A60124B1A68D1075CBF01221A6023
:10795800104B1A68D2075CBF01221A600E4B1A68D6
:10796800D0075CBF01221A600C4B1A68D1075CBFB4
:1079780001221A600A4B1A68D2075CBF01221A60FA
:10798800704700BFC0E70320BCE70320B8E7032027
:10799800B4E70320B0E70320ACE70320A8E70320FF
:1079A800A4E70320244B1A68D0075CBF01221A60A1
:1079B800224B1A68D1075CBF01221A60204B1A6853
:1079C800D2075CBF01221A601E4B1A68D0075CBF41
:1079D80001221A601C4B1A68D1075CBF01221A6089
:1079E8001A4B1A68D2075CBF01221A60184B1A6832
:1079F800D0075CBF01221A60164B1A68D1075CBF1A
:107A080001221A60144B1A68D2075CBF01221A605F
:107A1800124B1A68D0075CBF01221A60104B1A6813
:107A2800D1075CBF01221A600E4B1A68D2075CBFEF
:107A380001221A60704700BFF0E70320ECE703203B
:107A4800E8E70320E4E70320E0E70320DCE703207E
:107A5800D8E70320D4E70320D0E70320CCE70320AE
:107A6800C8E70320C4E7032081F0004102E000BF1B
:107A780083F0004330B54FEA41044FEA430594EAE6
:107A8800050F08BF90EA020F1FBF54EA000C55EA21
:107A9800020C7FEA645C7FEA655C00F0E2804FEAF2
:107AA8005454D4EB5555B8BF6D420CDD2C4480EAD4
:107AB800020281EA030382EA000083EA010180EA04
:107AC800020281EA0303362D88BF30BD11F0004F52
:107AD8004FEA01314FF4801C4CEA113102D0404288
:107AE80061EB410113F0004F4FEA03334CEA1333C3
:107AF80002D0524263EB430394EA050F00F0A780DB
:107B0800A4F10104D5F1200E0DDB02FA0EFC22FAD5
:107B180005F2801841F1000103FA0EF2801843FAC9
:107B280005F359410EE0A5F120050EF1200E012ABA
:107B380003FA0EFC28BF4CF0020C43FA05F3C018F8
:107B480051EBE37101F0004507D54FF0000EDCF171
:107B5800000C7EEB00006EEB0101B1F5801F1BD31A
:107B6800B1F5001F0CD349085FEA30004FEA3C0C1E
:107B780004F101044FEA445212F5800F80F09A8014
:107B8800BCF1004F08BF5FEA500C50F1000041EB18
:107B9800045141EA050130BD5FEA4C0C404141EB1C
:107BA800010111F4801FA4F10104E9D191F0000F43
:107BB80004BF01460020B1FA81F308BF2033A3F1C6
:107BC8000B03B3F120020CDA0C3208DD02F1140CBD
:107BD800C2F10C0201FA0CF021FA02F10CE002F1F8
:107BE8001402D8BFC2F1200C01FA02F120FA0CFCF1
:107BF800DCBF41EA0C019040E41AA2BF01EB04513A
:107C0800294330BD6FEA04041F3C1CDA0C340EDC37
:107C180004F11404C4F1200220FA04F001FA02F37A
:107C280040EA030021FA04F345EA030130BDC4F138
:107C38000C04C4F1200220FA02F001FA04F340EA2D
:107C48000300294630BD21FA04F0294630BD94F0DE
:107C5800000F83F4801306BF81F480110134013DC5
:107C68004EE77FEA645C18BF7FEA655C29D094EA36
:107C7800050F08BF90EA020F05D054EA000C04BFB4
:107C88001946104630BD91EA030F1EBF002100209F
:107C980030BD5FEA545C05D14000494128BF41F03E
:107CA800004130BD14F580043CBF01F5801130BDA2
:107CB80001F0004545F0FE4141F470014FF000002D
:107CC80030BD7FEA645C1ABF194610467FEA655CDE
:107CD8001CBF0B46024650EA013406BF52EA033580
:107CE80091EA030F41F4002130BD00BF90F0000F6E
:107CF80004BF0021704730B54FF4806404F13204AA
:107D08004FF000054FF0000150E700BF90F0000F62
:107D180004BF0021704730B54FF4806404F1320489
:107D280010F0004548BF40424FF000013EE700BF59
:107D380042004FEAE2014FEA31014FEA02701FBFE9
:107D480012F07F4393F07F4F81F06051704792F0BB
:107D5800000F14BF93F07F4F704730B54FF4607435
:107D680001F0004521F0004120E700BF50EA010280
:107D780008BF704730B54FF000050AE050EA01022D
:107D880008BF704730B511F0004502D5404261EB9D
:107D980041014FF4806404F132045FEA915C3FF4DE
:107DA800DCAE4FF003025FEADC0C18BF03325FEA77
:107DB800DC0C18BF033202EBDC02C2F1200300FA2C
:107DC80003FC20FA02F001FA03FE40EA0E0021FA51
:107DD80002F11444C1E600BF70B54FF0FF0C4CF43B
:107DE800E06C1CEA11541DBF1CEA135594EA0C0FF1
:107DF80095EA0C0F00F0DEF82C4481EA030621EA2C
:107E08004C5123EA4C5350EA013518BF52EA033566
:107E180041F4801143F4801338D0A0FB02CE4FF018
:107E28000005E1FB02E506F00042E0FB03E54FF048
:107E38000006E1FB03569CF0000F18BF4EF0010E40
:107E4800A4F1FF04B6F5007F64F5407404D25FEA3C
:107E58004E0E6D4146EB060642EAC62141EA5551EF
:107E68004FEAC52040EA5E504FEACE2EB4F1FD0C31
:107E780088BFBCF5E06F1ED8BEF1004F08BF5FEAAF
:107E8800500E50F1000041EB045170BD06F0004661
:107E980046EA010140EA020081EA0301B4EB5C040E
:107EA800C2BFD4EB0C0541EA045170BD41F4801106
:107EB8004FF0000E013C00F3AB8014F1360FDEBF2B
:107EC800002001F0004170BDC4F10004203C35DA07
:107ED8000C341BDC04F11404C4F1200500FA05F38A
:107EE80020FA04F001FA05F240EA020001F000422B
:107EF80021F0004110EBD37021FA04F642EB0601A1
:107F08005EEA430E08BF20EAD37070BDC4F10C04CA
:107F1800C4F1200500FA04F320FA05F001FA04F28E
:107F280040EA020001F0004110EBD37041F100017A
:107F38005EEA430E08BF20EAD37070BDC4F1200585
:107F480000FA05F24EEA020E20FA04F301FA05F2ED
:107F580043EA020321FA04F001F0004121FA04F295
:107F680020EA020000EBD3705EEA430E08BF20EA65
:107F7800D37070BD94F0000F0FD101F0004640009F
:107F880041EB010111F4801F08BF013CF7D041EA21
:107F9800060195F0000F18BF704703F00046520025
:107FA80043EB030313F4801F08BF013DF7D043EAF6
:107FB8000603704794EA0C0F0CEA135518BF95EAAC
:107FC8000C0F0CD050EA410618BF52EA4306D1D133
:107FD80081EA030101F000414FF0000070BD50EA52
:107FE800410606BF1046194652EA430619D094EADC
:107FF8000C0F02D150EA013613D195EA0C0F05D1C6
:1080080052EA03361CBF104619460AD181EA030119
:1080180001F0004141F0FE4141F470014FF00000D1
:1080280070BD41F0FE4141F4780170BD70B54FF06C
:10803800FF0C4CF4E06C1CEA11541DBF1CEA1355EC
:1080480094EA0C0F95EA0C0F00F0A7F8A4EB0504CE
:1080580081EA030E52EA03354FEA013100F08880C5
:108068004FEA03334FF0805545EA131343EA12638E
:108078004FEA022245EA111545EA10654FEA002643
:108088000EF000419D4208BF964244F1FD0404F5FC
:10809800407402D25B084FEA3202B61A65EB030558
:1080A8005B084FEA32024FF480104FF4002CB6EB15
:1080B800020E75EB030E22BFB61A754640EA0C0095
:1080C8005B084FEA3202B6EB020E75EB030E22BFD5
:1080D800B61A754640EA5C005B084FEA3202B6EB16
:1080E800020E75EB030E22BFB61A754640EA9C00D5
:1080F8005B084FEA3202B6EB020E75EB030E22BFA5
:10810800B61A754640EADC0055EA060E18D04FEA62
:10811800051545EA16754FEA06164FEAC30343EA02
:1081280052734FEAC2025FEA1C1CC0D111F4801FCF
:108138000BD141EA00014FF000004FF0004CB6E7C8
:1081480011F4801F04BF01430020B4F1FD0C88BF67
:10815800BCF5E06F3FF6AFAEB5EB030C04BFB6EB72
:10816800020C5FEA500C50F1000041EB045170BD65
:108178000EF0004E4EEA113114EB5C04C2BFD4EB92
:108188000C0541EA045170BD41F480114FF0000E16
:10819800013C90E645EA060E8DE60CEA135594EA92
:1081A8000C0F08BF95EA0C0F3FF43BAF94EA0C0F95
:1081B8000AD150EA01347FF434AF95EA0C0F7FF40A
:1081C80025AF104619462CE795EA0C0F06D152EA5E
:1081D80003353FF4FDAE1046194622E750EA410642
:1081E80018BF52EA43067FF4C5AE50EA41047FF453
:1081F8000DAF52EA43057FF4EBAE12E74FF0FF3CB8
:1082080006E000BF4FF0010C02E000BF4FF0010C88
:108218004DF804CD4FEA410C7FEA6C5C4FEA430C01
:1082280018BF7FEA6C5C1BD001B050EA410C0CBF50
:1082380052EA430C91EA030F02BF90EA020F0020B2
:10824800704710F1000F91EA030F58BF994208BF19
:1082580090422CBFD8176FEAE37040F001007047D6
:108268004FEA410C7FEA6C5C02D150EA013C07D12D
:108278004FEA430C7FEA6C5CD6D152EA033CD3D078
:108288005DF8040B704700BF8446104662468C4672
:108298001946634600E000BF01B5FFF7B7FF0028A5
:1082A80048BF10F1000F01BD4DF808EDFFF7F4FFCE
:1082B8000CBF012000205DF808FB00BF4DF808ED59
:1082C800FFF7EAFF34BF012000205DF808FB00BF7C
:1082D8004DF808EDFFF7E0FF94BF012000205DF89E
:1082E80008FB00BF4DF808EDFFF7CEFF94BF012053
:1082F80000205DF808FB00BF4DF808EDFFF7C4FF4C
:1083080034BF012000205DF808FB00BF4FEA410C94
:108318007FEA6C5C02D150EA013C0AD14FEA430C77
:108328007FEA6C5C02D152EA033C02D14FF00000B4
:1083380070474FF0010070474FEA410212F50012F2
:1083480015D211D56FF47873B3EB625212D94FEA94
:10835800C12343F0004343EA505311F0004F23FA7E
:1083680002F018BF404270474FF00000704750EAD3
:10837800013005D111F0004008BF6FF00040704790
:108388004FF00000704700BF4A0011D212F50012EA
:1083980011D20DD56FF47873B3EB62520ED44FEA55
:1083A800C12343F0004343EA505323FA02F07047D5
:1083B8004FF00000704750EA013002D14FF0FF3013
:1083C80070474FF0000070474FEA4102B2F1E043B6
:1083D80024BFB3F5001CDCF1FE5C0DD901F0004CA4
:1083E8004FEAC0024CEA5070B2F1004F40EB8300F4
:1083F80008BF20F00100704711F0804F21D113F120
:108408003872BCBF01F00040704741F480114FEA58
:108418005252C2F11802C2F1200C10FA0CF320FAE1
:1084280002F018BF40F001004FEAC1234FEAD323FE
:1084380003FA0CFC40EA0C0023FA02F34FEA430368
:10844800CCE77FEA625307D150EA01331EBF4FF0F1
:10845800FE4040F44000704701F0004040F0FE400C
:1084680040F40000704700BF38B5002200230446DE
:108478000D46FFF723FF28B920462946BDE83840B6
:1084880000F00AB8204605F1004100F005F8404226
:1084980061EB410138BD00BFD0B500220E4B064646
:1084A8000F46FFF799FCFFF76FFF0446FFF71EFC26
:1084B80000220A4BFFF790FC02460B46304639462D
:1084C800FFF7D6FAFFF760FF2346002242EA0002D0
:1084D80010461946D0BD00BF0000F03D0000F04135
:1084E80010B5054C13462CB10A4601460220AFF3DD
:1084F800008010BD204610BD0000000010B50139F5
:108508000244904207D010F8013B11F8014FA342F2
:10851800F7D0181B10BD002010BD10B5431E0A442B
:10852800914204D011F8014B03F8014FF8E710BD50
:1085380002440346934202D003F8011BFAE770474E
:1085480038B5124B1C68A36B0546D3B91820FEF743
:10855800F1F943F20E33A06303804AF6CD3343802A
:1085680041F2342383804EF26D63C3804DF6EC6391
:108578000381052343810B23838101220023C0E962
:108588000423A36B00221D615A6138BD30DF03202C
:10859800034613F8012B002AFBD1181A013870473B
:1085A800174B2DE9F0411D68AC6D06460F46FCB926
:1085B8005020FEF7BFF9A8658460AB6D0460446085
:1085C8001C61DC60AB6D9C615C61AB6DDC629C62C4
:1085D800AB6D5C631C63AB6DDC639C63AB6D5C640F
:1085E8001C64AB6DDC649C64AB6D1C77AB6D5C622A
:1085F800AA6D394630460123BDE8F04100F002B8C3
:1086080030DF0320F0B548B9106838B9F0BD17F865
:10861800016B5EB1B542FAD12BB1204604460F4634
:1086280014F8015BF3E714600370F0BD4DB91560F1
:108638002846F0BD17F8016BB54207D0002EF9D1D6
:108648001C4623460F4613F8015BF3E715B10021DA
:10865800217000E02B461360F0BD00001D400D00A6
:1086680059400D0085400D0089400D0000000000B4
:108678000000000000000000B5400D0000000000F0
:1086880000000000B3400D000D410D001F410D001A
:1086980019410D004461746130302E637376000017
:1086A8000064656661756C7420004D5342004C533C
:1086B80042003C53504953657474696E6773206473
:1086C800656661756C743E003C535049536574741B
:1086D800696E6773202573256C75202573204D4FAF
:1086E800444525643E002C00496E76616C6964201F
:1086F80072656164696E670020200043616E2774AB
:108708002061636365737320534420636172642E30
:1087180020446F206E6F74207265666F726D61748D
:108728002E004E6F20636172642C2077726F6E6723
:1087380020636869702073656C6563742070696E66
:108748002C206F72205350492070726F626C656DD7
:108758003F005344206572726F72436F64653A201C
:108768003058002C305800496E76616C6964206678
:108778006F726D61742C207265666F726D61742002
:1087880053442E0043616E2774206F70656E20720B
:108798006F6F74206469726563746F72792E004E0E
:1087A8006F206572726F7220666F756E642E00435B
:1087B800616E2774206372656174652066696C65F3
:1087C800206E616D65005344206572726F720000FF
:1087D8000000000000000000D1690D00C7690D000D
:1087E800BD690D0073690D00B1690D00A5690D0023
:1087F80099690D0091690D0087690D007D690D006B
:108808000D6E0D0000000000000000008D6A0D00D4
:10881800836A0D00796A0D006F6A0D00636A0D00A6
:10882800576A0D004B6A0D00436A0D00396A0D0046
:108838002F6A0D000D6E0D00000000000000000002
:10884800AD6A0D00F76A0D00CF6A0D00AF6A0D0022
:10885800D76A0D00DF6A0D00E76A0D00EF6A0D00A8
:1088680000000000000000008B6B0D007D6B0D0008
:108878007F6B0D006C6E00666E00636F646500644C
:10888800657461696C000D0A00253031307520006F
:108898005D20002564002C200028293A2000205B58
:1088A80000636F6465203D2000256900646574617C
:1088B800696C73203D2000626175640053657269BC
:1088C800616C0053657269616C3100747970650080
:1088D800706172616D00636D6400696400686E6444
:1088E800007374726D0066696C74006C766C00615C
:1088F800646448616E646C65720072656D6F76655C
:1089080048616E646C657200656E756D48616E6471
:108918006C657273004A534F4E53747265616D4CA7
:108928006F6748616E646C657200617070006E6F8D
:108938006E6500747261636500696E666F007761C9
:10894800726E0070616E696300616C6C00000000FB
:108958000000000000000000CF6C0D00C56C0D0089
:10896800BB6C0D00B16C0D00A56C0D00996C0D0071
:108978008D6C0D00856C0D007B6C0D00716C0D000D
:108988000D6E0D000000000000000000A56D0D0038
:10899800AF6D0D00B96D0D00C36D0D00CD6D0D00EF
:1089A800D96D0D00E56D0D00F16D0D00F96D0D002F
:1089B800036E0D000D6E0D006E616E006F76660021
:1089C800696E66000000000000000000D5710D000F
:1089D800D7710D0000081018202830385A00252BB0
:1089E8003033643A253032750025592D256D2D25F3
:1089F800645425483A254D3A2553257A0061736316
:108A080074696D65000000000000000000000000AF
:108A1800ED730D0011740D001D740D00A56E0D0091
:108A2800F9730D0005740D00FF730D000B740D0034
:108A3800EF730D00F3730D0000000000000000004C
:108A480005750D0049750D0023750D00A56E0D0007
:108A58001D750D0007750D000F750D0043750D0090
:108A680017750D0001750D000000000000000000E2
:108A780000000000000000000000000000000000EE
:108A880000000000000000000000000000000000DE
:108A980000000000000000000000000000000000CE
:108AA80000000000000000000000000000000000BE
:108AB80000000000000000000000000000000000AE
:108AC800000000000000000043000000C9440D0041
:108AD800AD470D00874A0D008B4A0D00754E0D00FD
:108AE800854E0D0045550D00555B0D00795B0D0059
:108AF8007D5B0D00A15E0D00A55E0D00A95E0D0059
:108B0800AD5E0D00B15E0D00EB630D00EF630D006F
:108B1800F3630D0099640D009D640D00A1640D00C0
:108B2800DD690D00996A0D00616C0D00596D0D002D
:108B3800916E0D00B9710D00C1730D00D9730D0050
:108B480091770D00E1770D00A5780D0029790D00CA
:088B5800AD790D0000000000E2
:108B6000058A0D0000000000708A0D00908A0D003B
:108B7000B08A0D00000000000000000000000000AE
:108B800000000000D08A0D0000000000000000007E
:108B900000000000000000000000000000000000D5
:108BA00000000000000000000000000000000000C5
:108BB00000000000000000000000000000000000B5
:088BC00000000000D0DE0320DC
:108BC800FFFFFFFF00000102030405060708090A6A
:108BD8000B0C0D0E0F101112131415161718191A65
:088BE8001B1C1D1E1F202800AC
:048BF000785634126D
:04000003D0004018D1
:00000001FF
