:02000002D0002C
:1040000000400D00F0750D00000005000D000501D9
:0840100004019301000000000F
:1040180010700D0009480A49884208B505D0094AB8
:10402800824202D0121A02F0ACFF0748074A002168
:10403800121A02F0B1FF014808BD00BF48DF032093
:1040480060750D00B0DF0320B0DF0320F0E7032028
:1040580070B502F069FD074C074BE41AA408002567
:104068001E46A54204D056F8253098470135F8E792
:1040780070BD00BF54750D00DC740D0000F04AB926
:1040880008B500F009FABDE8084002F01BBD01F0D0
:10409800B3BF01F0B9BF01F0B7BF0078B0FA80F044
:1040A800400970470123037070477047083000F0DB
:1040B8000BBD07B502AB012203F8011D08301946F4
:1040C80000F002FD03B05DF804FB00007FB5024676
:1040D80008461379956833B13DB90C4904B0BDE879
:1040E800704002F02DBA0A4B00E00A4B167B0A4CCE
:1040F8000A49527B0292012E08BF21460191009580
:10410800074A002102F09CFA04B070BD66700D00E9
:10411800A6720D0055700D005E700D0062700D00E6
:104128007C700D0010B50446FFF7B3FF204610BDA4
:1041380038B50C4605460B49204602F008FA10220D
:1041480095F86014204602F04BFA0749204602F021
:10415800FEF995F8691420461022BDE8384002F0AF
:1041680041BA00BF9A700D00AB700D0030B585B034
:104178001C4B009313798DF8043093680293137BDA
:104188008DF80C3000F58C65537B8DF80D300446A6
:104198000A466B4600F26C41284601F0E9FAF0B194
:1041A800256004F23C45284600F038FC01212046F1
:1041B80001F083F9014668B12146284600F059FA12
:1041C80068B194F83C3413F0700316BF064B1846D8
:1041D8001D6005E0204601F070F90028ECD10020B0
:1041E80005B030BD2C700D0070E4032010B50B49EC
:1041F8000B4802F0ACF900240A49094802F0A7F973
:10420800E1B20A220648013402F0EAF9042CF3D19B
:104218000348BDE8104002F09EB900BFAF700D0022
:10422800B4DF0320B6700D0013B50024A0B202F06D
:10423800E3FC2DF814000134042CF7D10C4B0D4885
:1042480019680A2202F0BFF900242C210948FFF757
:1042580030FF3DF8141007480A22013402F0EEF945
:10426800042CF2D1034802B0BDE8104002F073B943
:104278006CE40320B4DF032008B5044602F0DEFB3B
:1042880094F86034054693B1104902F07AF994F82D
:104298006034202B03D10E49284602F072F994F8B5
:1042A800603483B129462046FFF742FF0BE0E379EB
:1042B8000BB9084905E094F83C340BB9064900E00D
:1042C800064902F05EF901F083FCFCE7BB700D00C3
:1042D800E2700D0012710D002F710D004A710D0072
:1042E80008B50E46044602F0A9FB0949054602F046
:1042F8002EF93146284602F044F994F860341BB18F
:1043080029462046FFF714FF01F062FCFCE700BFD6
:104318005A710D0030B5514800238FB01A4619461E
:10432800406801F041FE4E4A5168106801AB03C372
:104338001189927A19809A700023ADF80F3002F033
:104348007DFB4FF4165102F067FB02F077FB02F099
:104358006AFB10B901F03CFCF7E74FF47A7001F002
:1043680063FE02F06BFB3F4902F00BF902F066FBBB
:1043780003681B69984710B901F02AFCF6E73A4B25
:1043880005933A4B07930024012305AA0E213848C8
:104398008DF818408DF820308DF82140FFF7E6FEA3
:1043A80010B93348FFF768FF3025002301AA3149C7
:1043B8008DF8144005A88DF8154000F036FB98B12B
:1043C8009DF80930392B03D001338DF80930ECE71B
:1043D8009DF80830392B05D001338DF809508DF838
:1043E8000830E2E7244909E024492548096840F6ED
:1043F800012301AA00F019FB50B922491C48FFF714
:104408006FFF02F01BFB03685B699847002809DB14
:104418000A2001F009FE02F011FB03681B699847A6
:104428000028EED102F00AFB174902F090F802F0DA
:1044380005FB01A902F09BF802F000FB134902F00A
:10444800A0F8FFF7D3FE01F003FC114B114AB0FBB3
:10445800F3F000FB033313600FB030BD80E403209A
:1044680048700D0062710D002C700D0080F0FA028A
:10447800E8DF032024E403207E710D0070E40320AC
:10448800BCDF032095710D009F710D00AC710D000C
:1044980040420F006CE4032010B5194B1A6802F56E
:1044A800742202F510721A601C4601F0D1FB2368D1
:1044B800C01AFAD40A2801DD12490BE0124CFFF7A2
:1044C800B3FE04F1080000F073FA10B1637ADB0759
:1044D80003D50E490E48FFF703FF02F0AFFA036851
:1044E8001B69984758B104F1080000F097FA02F0E8
:1044F800A5FA084902F045F801F06AFBFCE710BD8F
:104508006CE40320C7710D00B4DF0320DF710D00D8
:10451800E8DF0320DA710D0010B501F0A9FB184B94
:1045280018481949642283F86024184AC3F870248B
:104538000122002483F87424154ADC7183F83C4472
:1045480083F83D4483F86A44C3F8784483F87C448C
:1045580083F87D44C3F86C2404720E4B44724460A3
:104568000D4A036002F0A2FB0C4B4FF6FF721C7061
:104578005C809A800320BDE8104001F0B9BC00BF00
:10458800E8DF0320B4DF0320B3400D002C700D00DA
:1045980030E7032038700D00B0DF0320E0DF032090
:1045A80001F066BB10B50446243000F077FE28B150
:1045B80004F50C70BDE8104000F070BE10BD8378A3
:1045C800016943F00403837000F11002806800F071
:1045D8001BBF00002DE9F041037803F020030446D7
:1045E80003F0FF050BB100262EE04269184B9A42F2
:1045F800F9D8FFF7E4FF06460028F4D02169A0683F
:1046080000F097FE0746A06805223946243000F0DE
:104618006CFE80460028E6D029464FF4007202F06E
:10462800BBFC0125A3681A79AA4209D94246E919AF
:10463800186801F0DBF90028D5D00135EDB2F1E7B3
:10464800636903EB422363613046BDE8F08100BF34
:10465800FFFD1F0010B5044680680A462430A16992
:1046680000F043FE20B1A38803F00F0300EB4310D2
:1046780010BD70B5047805460E4684B9242221463B
:1046880002F08AFCAE60F379102B03D0202B06D100
:10469800402300E0202301202B70A87070BD00206B
:1046A80070BD2DE9F74F03780446894615464BB18E
:1046B8008278D10706D50CE05A46216900F03FFE02
:1046C80000283DDA637843F0020363704FF0FF304F
:1046D80097E01A0703D5E36962699B1A07E09A060F
:1046E80008D5A3681A896369C3EB42139BB29D423C
:1046F80028BF1D462E464FF0000804F1100B002E6F
:1047080035D022786369A06812F0200FC3F3080A35
:104718004FEA532102D0036A19441DE090F805803E
:1047280001EA0808BAF1000F10D1B8F1000F0DD155
:10473800002BC1D153064CBF036A236A236105E0ED
:1047480004D1237813F0700F11D1BBE72169A06859
:1047580000F0EFFD08EB0001A068BAF1000F35D1B9
:10476800B6F5007F32D3C36A994202D12EE0A81B66
:1047780047E0B6F5806F1BD3227897064FEA562A92
:1047880006D40279C8EB0202D2B2924528BF9246FB
:1047980099424FEA4A2707D2A06853464A4600681A
:1047A80001F0E2F860B98DE75344994221D3F3E769
:1047B8004A46006801F090F8002883D04FF400774B
:1047C80063693B44B9446361F61B98E700222430CF
:1047D80000F08BFD00283FF475AFCAF50077B742AB
:1047E80028BF374600EB0A013A46484602F0C9FBA3
:1047F800E6E72430019100F051FD01990028CBD162
:1048080060E703B0BDE8F08F37B54369C3F34315DC
:10481800044605B169B901220DF107012046FFF7E9
:1048280040FF40B2012801D0002008E063691F332F
:1048380000E02033A0686361303000EB451003B01E
:1048480030BD2DE9F0410E4601780769044600297C
:1048580039D04569B5423AD00EB9066131E00B0747
:1048680003D5C3699E422ED807E0880605D5A368FC
:104878001B89B6EB431F26D823E0D4F808E09EF83E
:1048880006306A1E03F10900731EC240C3409A42F3
:1048980000D84DB94A064CBFDEF82020226A2261B2
:1048A8001D4604F110080AE09B1AF9E742462169FF
:1048B800A06800F044FD002805F1FF3503DD002D58
:1048C800F4D1666103E027610020BDE8F081012092
:1048D800BDE8F081F8B50F461546002124220446AC
:1048E8001E4602F059FBB868A06005F00F02A580CB
:1048F80000F1300152013B6AE3601144CB7A1D0795
:104908004CD4831893F83B3003F017032370C97A0B
:1049180011F0180F04BF43F0080323709DF81830F6
:10492800E37006F00303012B09D0022B05D0002BFE
:1049380034D1710532D4012302E0032300E00223BD
:10494800A370A1788B0703D5237813F0110F25D115
:104958004BB216F4005F06F0080114BF6FF07F0732
:10496800002719433943A170C36AA361024475053E
:10497800B2F84410B2F84A3043EA014104D581B193
:1049880000F07DFD68B909E02162D36CE36173042E
:104998000CD5E1692046FFF754FF38B90020207094
:1049A800F8BDA37843F00403A370F0E70120F8BD35
:1049B80038B5037804460BB9012038BD83785A0707
:1049C80023D50121FFF746FE054628B9637843F051
:1049D80001036370002038BD0378E52BF6D02378F7
:1049E8001B0744BFE369C361238C4383638C8382C1
:1049F800094B1B682BB100F11601183098472B8B17
:104A08006B82A37823F00403A370A068FFF7CAFDA4
:104A18000028DBD0D0E700BF74E4032010B50446BB
:104A2800FFF7C6FF0023237010BDF0B593B01F46F3
:104A380000238DF824308DF825300378019206463E
:104A48000C460BB100203DE00B7813F0700FF9D045
:104A580013782F2B12D1019B1A782F2A02D10133F8
:104A68000193F8E7A1681AB93046FFF702FE29E07A
:104A780009A8FFF7FEFD0028E4D009AC01AA03A9A4
:104A8800019800F0FFF80028DCD0019B1B789BB14F
:104A9800002303AA2146304600F036FA0028D1D078
:104AA80035460FCD09AC0FC40FCD0FC42B6823605A
:104AB8003046FFF7B3FFE0E73B4603AA21463046FE
:104AC80000F022FA13B0F0BD2DE9F04703788946CB
:104AD80019070446904608D583789A0705D51B0719
:104AE8000BD5E169FFF7ADFE38B9637843F00103F0
:104AF80063704FF0FF30BDE8F0876369DB4398458A
:104B0800F3D846464FF0000A6369002E00F0818012
:104B1800A068427912EA5325C3F308071CD1DFB90C
:104B2800216971B104F1100200F009FC0028DCDBF6
:104B380040F08E802046FFF742FD002840F0888034
:104B4800D3E7236A3BB92046FFF739FD0028CCD0CC
:104B58002369236200E023612169A06800F0E9FB72
:104B6800291817B9B6F5007F21D2C7F50075B542E7
:104B780028BF354637B96369E269934234BF0122D9
:104B8800052200E00122A068243000F0AEFB0028D6
:104B9800ABD038442A4649462F4402F0F2F9B7F51B
:104BA800007F30D1A068243000F078FB17E0B6F51C
:104BB800806FA06815D30279521B730AD2B2934250
:104BC80028BF1346C26A91424FEA432502D31A44CA
:104BD800914237D3A7684A46386800F079FF90B900
:104BE80083E7C36A994202BF4FF0FF3380F824A0DD
:104BF800C362A3684A46186800F0F8FE00283FF42C
:104C080074AF4FF4007563692B446361A944761B44
:104C18007AE7E269934201D9E36102E00F4B1B682E
:104C28001BB1A37843F00403A37094F90230002B5E
:104C380002DB4046BDE8F0872046FFF7B9FE0028B2
:104C4800F7D152E74FF0FF3280F824A0C262C1E7E3
:104C58002169A06800F06DFB014683E774E4032036
:104C680001F006B8411E00F10A020020430843EA99
:104C7800C01011F8013F53FA80F08A42C0B2F5D152
:104C8800704700002DE9F0470378202B00F101045C
:104C980001D12046F8E7704F886005462C1A2E4649
:104CA80015F8013B0BB32F2B01D1031917E05C2B2F
:104CB80002D10020BDE8F087A3F12204E4B21D2C44
:104CC80003D827FA04F4E407F3D403F0BF043C2C18
:104CD800EFD0203B5E2BE1D9EBE72F2D05D11E4607
:104CE80013F8015B202DF8D1F9E7166003199842F3
:104CF800C0EB030809D013F8012D2E2AF7D0202A7B
:104D0800F5D0B8F1FF0FD4DC01E04FF00008C1F88E
:104D1800048001F10C0301F11702202403F8014F6C
:104D28009342FBD103461A1A13F8014B2E2CFAD0E2
:104D3800202CF8D0B2FA82F4640908F1FF36731C0B
:104D480007D100274FF0070E3D46BA464FF0080935
:104D580009E0835D2E2BF4D0013EF0E7835C202B25
:104D680004D1002401324245F8DB4BE02E2B02D15E
:104D7800B242F6D103E0222B17D07C2B15D0A3F139
:104D88002A0CBCF1050F01D82D2B0ED1A3F13A0C3A
:104D9800BCF1050F09D9A3F15B0CBCF1020F04D9D2
:104DA800A3F1210CBCF15D0F02D9B2420ED149E04A
:104DB800B24247D0754521D8A3F1610CBCF1190F57
:104DC80008D8203BDBB249EA07070AE0754515D841
:104DD80000245F23A3F1410CBCF1190F98BF49EAE5
:104DE8000A0A05F1010C5FFA8CFC0D44BCF1060FB0
:104DF8006B7301D881F80CC06546B3E7BEF10A0FA2
:104E080017D100244B7B202B3FF453AF3CB11AEA57
:104E1800070F18BF02270F700120BDE8F0870B7B32
:104E28000120087019447E234B7331238B73BDE82E
:104E3800F087B242E5DC32464FF00A0E08254FF003
:104E480010098EE7BEF10A0FDBD032464FF00A0E8A
:104E580008254FF0100985E7010100312DE9F843D5
:104E680091F80C9006460D4602247E2701F10D08A4
:104E78006968AA6863189BB21144914206D012F877
:104E8800010B03EB431343409BB2F6E7B9F1030F61
:104E980028BF4FF0030909F10402D2B203F00F0151
:104EA800A818013A0929D2B294BF30313731914557
:104EB80041734FEA1313F1D305EB090300215F7324
:104EC8003046FFF7BEFC01213046FFF79DFC014646
:104ED80028B97078B0FA80F04009BDE8F883037803
:104EE8004BB1C37A1B07EED40B22404602F03AF8C6
:104EF8000028E8D102E00120BDE8F8830134A4B21B
:104F0800642CB5D1BDE8F8832DE9F04F9B460B78AA
:104F180089B013F0700F05900E46914601D100201C
:104F2800A0E1059B1B78002BF9D1536802931378F5
:104F38009B0700F08D81029B0D270C33B3FBF7F71D
:104F48000137FFB200213046FFF77BFC4FF0000825
:104F580009F10D02CDF80C80434644464546CDF88C
:104F6800108006927269079301213046C2F34F1AE6
:104F7800FFF74AFC079B20B97378002B00F090805C
:104F8800CDE70278E52A00D042B9002C08BFD04608
:104F9800BC423CBF0134E4B222B981E0BC4238BF14
:104FA800002403E0E52A01D10025DBE72E2AFBD007
:104FB800C17A0F2952D13DB95106D3D5437B03930A
:104FC80002F01F052B4607E0013BDBB29A42EBD10A
:104FD800427B03999142E7D15A1E4FF00D0C0CFB0E
:104FE80002FC029A6245DFD94FF0000EBEF1040FB1
:104FF8005FFA8EF204D800EB4E02B2F801200CE002
:105008000A2A95BF0EF1FF320EF1010200EB4202AF
:1050180000EB420294BFD28892880299614503D17D
:10502800002A18BF00259DE7FF2ABDD8D2B2A2F1F9
:1050380041011929D9F8081011F80C1098BF20322D
:105048000CF1010AA1F1410C98BFD2B2BCF1190FC1
:105058009CBF2031C9B29142A6D1FBE00907A3D475
:105068004DB1012B7FF45BAFFFF7FCFD039B83423F
:105078007FF455AF0FE00B220699079301F072FFFA
:10508800079B00287FF46EAF99F80020D20702D55D
:105098000122049266E71BF4006F00F0D1803EE71E
:1050A8001BF4007F3FF43BAF0BF00303013B012BE4
:1050B8003FF635AF002C08BFD046BC4202D3049B54
:1050C800CBB91FE000213046FFF79EFB10B973787B
:1050D8005BB124E70134E4B2EFE7B3681B79012B35
:1050E800EDD81034E4B2A742E9D93046FFF772FA96
:1050F8000028F2D113E749463046FFF7AFFE0028F3
:105108003FF40DAF4FEA48113046FFF79AFB0028ED
:105118003FF405AF7D1EEDB22C464FF0000A4FF06C
:105128000F0841E000213046FFF76EFB07460028D4
:105138003FF4F5AEB26892F82430AC4243F0010374
:1051480082F824300CBF44F040022246027080F8F6
:105158000B8080F80CA009F10D000392FFF782FD87
:10516800039A787387F81AA087F81BA002F01F0229
:105178000D23013AD9F808E05A43002302999142D5
:1051880015D91EF80210042B5FFA83FC03F1010005
:1051980013D807EB4303A3F801100D2802F101020D
:1051A8000346EBD1013CE4B2002CBBD10EE014BFA6
:1051B8004FF0FF31002189B2E5E7BCF10A0F94BF37
:1051C80007EB430307EB40039980E6E77369214641
:1051D8003046C3F34F1AFFF717FB074600283FF482
:1051E8009EAE2022214601F0D7FE4B4653F80D2FE4
:1051F8003A605A687A601A893A819B7ABB7299F840
:10520800003003F018033B73184B1B682BB107F1F0
:105218000E0107F11000984706E021233B7428236C
:105228007B740823BC73FB733B8A7B823B83FB89BB
:10523800FB82B26892F8243043F0010382F82430EC
:1052480000955B46524631460598FFF743FB09E057
:10525800012777E60EF1010EBEF10D0F3FF482AE85
:10526800D446C3E609B0BDE8F08F00BF74E403205C
:1052780000F0FEBC70B505460C46084649B101F081
:10528800BBFE2B68024621462846DB68BDE8704015
:10529800184770BD00F0ECBC00F0EABC70B50378AC
:1052A800DA0704461ED54368816800F10C063246C9
:1052B800186800F09BFB054608B9002513E0237821
:1052C8009B0704D4237823F0010323700BE0636861
:1052D800A068196932460144186800F087FB002865
:1052E800F0D1EAE70125284670BD70B583688B4286
:1052F80004460E46154614D0FFF7D0FF08B9002023
:1053080070BD6B0703D500232370A66009E06368AE
:1053180004F10C023146186800F0DEFA0028F2D1D8
:10532800EDE72378204605F003051D4300F80C5BE4
:1053380070BD837940690239994008447047012952
:1053480070B505460C46164602D84FF0FF3070BDC2
:10535800C3699942F9D8C379202B10D181690222F7
:1053680001EBD41100F50C70FFF7BFFF0028ECD05B
:1053780004F07F0450F8243023F070430FE0102B22
:10538800E3D18369C1F307210222194400F50C70A7
:10539800FFF7ABFF0028D8D0E4B230F81430EA6940
:1053A80093429ABF33600120002070BD012938B5AF
:1053B8000C46154601D8002038BDC3699942FAD871
:1053C800C379202B0ED18169032201EBD41100F59A
:1053D8000C70FFF78AFF0028EDD004F07F0440F836
:1053E80024500FE0102BE6D18369C1F30721032273
:1053F800194400F50C70FFF778FF0028DBD0E4B201
:1054080020F81450012038BD2DE9F341C4688C42BE
:1054180005460E46904607D20C460027EB69013434
:105428009C4203D9CFB9EC680127F7E7A64214D00C
:1054380001AA21462846FFF782FF00280DDBEDD0A0
:10544800019B002BEAD107B1EC606FF07042214656
:105458002846FFF7ABFF074608B900270BE016B947
:10546800C8F8004007E0224631462846FFF79EFF6D
:105478000028F5D1F1E7384602B0BDE8F08173B5F0
:1054880005460C4601AA21462846FFF758FF061E86
:1054980001DA00200FE0002221462846FFF786FFA8
:1054A8000028F6D0EB689C429CBF04F1FF34EC6006
:1054B800019C002EE6D102B070BD70B501230446F0
:1054C8000022C3604FF0FF33C2710D46A06280F81E
:1054D8002420C362C4F8340280F83022C0F838327D
:1054E800A1B104295DD811462430FFF7FEFE00283B
:1054F80057D000EB051393F8AE315B0651D11B353D
:1055080000EB0515D5F80650002D4AD00022294693
:1055180004F12400FFF7E9FE002842D0B0F80B3070
:10552800B3F5007F3DD1037C022B3AD1C389002B10
:1055380037D0417B21714B1E63710023A37109266B
:1055480001238B4207D0013E2BD0A2795B000132A8
:10555800DBB2A271F5E7C28A02B9426A2261C68942
:105568002E44A661B0F81130238106EB4201216276
:10557800B0F81120520102F2FF1201EB62226261BF
:10558800B0F8133003B9036AAD1A2B44A57923FA8E
:1055980005F56B1CE36140F6F4739D4203D80C23B8
:1055A800E371002070BD4FF6F4739D4285BFC36A56
:1055B800236210232023E371012070BD00F058BB43
:1055C80000F056BB00F054BB00F052BB00F050BBDB
:1055D80070B50E4C0E46154600F03AFB2368C01A0B
:1055E8000B4B984208D900F03BFB0A4B186000F0BF
:1055F800A3FC00F02DFB206000F032FB80B2801B82
:10560800A842D4BF0020012070BD00BF78E4032069
:10561800A086010014E7032038B5057A04464DB981
:10562800406800F07DFA63682946187D01F0CBFADE
:105638000123237238BD10B5037A04466BB1436861
:105648000121187D01F0BFFAFF21606800F09AFA85
:10565800606800F079FA0023237210BDF8B504469B
:105668000D46164600F0FCFA87B2606800F06FFA43
:10567800FF28607209D14FF47A7239462046FFF745
:10568800A7FF0028F1D055230BE0FE2801D05023B6
:1056980007E032462946606800F05EFA607230B171
:1056A800602320462370FFF7C6FF0020F8BD60681E
:1056B80000F04DFA606800F04AFA0120F8BD70B5B4
:1056C80004460E4600F0CCFA85B2324629462046FA
:1056D800FFF77EFF30B9606800F039FAFF28F4D18F
:1056E800012070BD002070BDF7B5037A0192044611
:1056F8000D460BB9FFF790FF25B14FF49671204680
:10570800FFF7DDFF45F04001606800F03BFA0DF15E
:1057180007060DF1030716F80119606800F032FA60
:10572800BE42F8D1002D0CBF95218721606800F09A
:1057380029FA606800F00BFA0B25606800F007FA98
:105748000306607203D5013D15F0FF05F5D103B0DE
:10575800F0BD70B504460D46164637210022FFF706
:10576800C3FF324629462046BDE87040FFF7BCBF5C
:105778002DE9F041002505720570857241600446E7
:1057880090461E4600F06CFA41460746606800F0F5
:10579800CBF963684F4A1D724FF00108DA605D74F7
:1057A80083F810802046FFF737FF63684146187D6D
:1057B80001F009FA0A25FF216068013D00F0E2F9CD
:1057C80015F0FF05F7D163682946187D01F0FBF94C
:1057D8000A25002211462046FFF786FF0128804649
:1057E80012D0013D15F0FF0501D1202357E0FD211E
:1057F800606800F0C7F94FF40278606800F0A7F914
:10580800B8F10108F9D1E4E74FF4D5720821204630
:10581800FFF76AFF052802D184F80A800FE0042503
:10582800606800F094F9013D15F0FF056072F7D14A
:10583800AA2802D10223A37201E025232FE0A37A2C
:10584800022B0CBF4FF080450025BFB22A46292104
:105858002046FFF77EFF024648B14FF4FA62394608
:105868002046FFF7B5FE0028F0D0432317E0A37ABF
:10587800022B0ED02046FFF7DEFE6368B06834794D
:10588800317B727B5A74D8601C7219740120BDE890
:10589800F0813A212046FFF727FF38B13723204609
:1058A8002370FFF7C8FE0020BDE8F081606800F0B3
:1058B8004EF900F0C000C02804BF0323A37260683B
:1058C80000F045F9606800F042F9606800F03FF9BF
:1058D800D0E700BF90D0030038B5837A032B18BFF8
:1058E800490215460A4611210446FFF7FDFE10B18C
:1058F800302323700BE029464FF400722046FFF74F
:10590800ADFE054618B12046FFF795FE03E0204698
:10591800FFF791FE0025284638BD10B5837A032B82
:105928000A4618BF4A0212210446FFF7DDFE30B1CD
:10593800312320462370FFF77EFE002010BD012092
:1059480010BD10B500220C210446FFF7CDFE30B182
:10595800282320462370FFF76EFE002010BD204646
:10596800FFF769FE012010BDF8B5054616461F462B
:10597800FFF7D3FF98B10024A3B29F4206EB44215E
:1059880008D94FF400722846FFF768FE0134002852
:10599800F2D104E02846BDE8F840FFF7D2BF002066
:1059A800F8BD38B504461546406800F0EBF84FF4EA
:1059B80000722946606800F0E9F8FF21606800F08D
:1059C800E1F8FF21606800F0DDF8606800F0BFF8DA
:1059D800607200F01F00052806D057232046237068
:1059E800FFF729FE002038BD012038BD70B5837A45
:1059F800032B18BF490215460A4618210446FFF72B
:105A080073FE064608B132231DE02A46FE212046D1
:105A1800FFF7C7FFC0B14FF4FA612046FFF74FFE0A
:105A2800054608B95A230EE032460D212046FFF7F5
:105A38005BFE38B9606800F08AF818B92046FFF7AD
:105A4800FAFD05E0292323702046FFF7F4FD002521
:105A5800284670BD38B50D464FF4FA610446FFF785
:105A68002EFE10B95B23237005E02A46FC21204650
:105A7800FFF797FF18B92046FFF7DDFD002038BD76
:105A880010B5837A032B0A4618BF4A021921044627
:105A9800FFF72AFE30B1332320462370FFF7CBFDF2
:105AA800002010BD012010BD38B54FF4FA6104463E
:105AB800FFF705FE054620B1FD21606800F062F899
:105AC80001E0562323702046FFF7B5FD284638BD70
:105AD800F8B5054616461F46FFF7D2FF70B10024F9
:105AE800BC4206EB4421284604D0FFF7B3FF28B197
:105AF8000134F5E7BDE8F840FFF7D6BF2846FFF7C1
:105B08009AFD0020F8BD00F0B3B800F0B1B800F07D
:105B1800AFB80000014B01221A7070477CE40320E3
:105B2800011D006800F014BE10B504460175006838
:105B380000F0F0FD207D012101F034F8207D0121E5
:105B4800BDE8104001F03FB8006800F0E8BDFF2153
:105B5800006800F06DBE000037B5084B00930025C3
:105B6800074C0068257013460A46294600F066FE71
:105B78002378002BFCD0002003B030BD1D5B0D0046
:105B88007CE40320006800F053BE000037B5074BE3
:105B980000930025064C0068257013462A4600F03D
:105BA8004DFE2378002BFCD003B030BD1D5B0D00EB
:105BB8007CE4032000F05CB800F05AB800F058B854
:105BC80008B5024B1B689B68019308BD4802030097
:105BD80008B5024B1B68DB68019308BD4802030047
:105BE80008B5024B1B681B69019308BD48020300F6
:105BF80008B5024B1B685B69019308BD48020300A6
:105C080008B5024B1B681B6B019308BD48020300D3
:105C180008B5024B1B689B6B019308BD4802030043
:105C280008B5024B1B681B6C019308BD48020300B2
:105C380008B5024B1B685B6C019308BD4802030062
:105C480008B5024B1B685B68019308BD1802030086
:105C580008B5024B1B681B69019308BD18020300B5
:105C680008B5024B1B685B69019308BD1802030065
:105C780008B5024B1B681B68019308BD2C02030082
:105C880008B5024B1B685B68019308BD2C02030032
:105C980008B5024B1B689B68019308BD2C020300E2
:105CA80008B5024B1B68DB68019308BD2C02030092
:105CB80008B5024B1B681B69019308BD2C02030041
:105CC80008B5024B1B681B6B019308BD2C0203002F
:105CD80008B5024B1B681B6A019308BD2802030024
:105CE80008B5024B1B685B6A019308BD28020300D4
:105CF80008B5024B1B689B6A019308BD2802030084
:105D080008B5024B1B68DB6A019308BD2802030033
:105D180008B5024B1B681B6B019308BD28020300E2
:105D280008B5024B1B685B6B019308BD2802030092
:105D380008B5024B1B681B6C019308BD28020300C1
:105D480008B5024B1B685B69019308BD6402030038
:105D580008B5024B1B689B68019308BD68020300E5
:105D680008B5024B1B68DB68019308BD6802030095
:105D780008B5024B1B681B68019308BD300203007D
:105D880008B5024B1B685B69019308BD300203002C
:105D980008B5024B1B68DB69019308BD300203009C
:105DA80008B5024B1B681B6A019308BD300203004B
:105DB80008B5024B1B685B6A019308BD30020300FB
:105DC80008B5024B1B689B6A019308BD30020300AB
:105DD80008B5024B1B689B6B019308BD300203009A
:105DE80008B5024B1B68DB6B019308BD300203004A
:105DF80008B5024B1B681B68019308BD3C020300F1
:105E080008B5024B1B68DB68019308BD3C02030020
:105E180008B5024B1B681B69019308BD3C020300CF
:105E280008B5024B1B685B69019308BD3C0203007F
:105E380008B5024B1B689B69019308BD3C0203002F
:105E480008B5024B1B68DB69019308BD3C020300DF
:105E580008B5024B1B681B6A019308BD3C0203008E
:105E680008B5024B1B689B6A019308BD3C020300FE
:105E780008B5024B1B681B68019308BD4C02030060
:105E880008B5024B1B685B68019308BD4C02030010
:105E980008B5024B1B681B69019308BD4C0203003F
:105EA80008B5024B1B685B69019308BD4C020300EF
:105EB80008B5024B1B689B69019308BD4C0203009F
:105EC80008B5024B1B68DB69019308BD4C0203004F
:105ED80008B5024B1B681B6A019308BD4C020300FE
:105EE80008B5024B1B685B6A019308BD4C020300AE
:105EF80008B5024B1B685B68019308BD20020300CC
:105F080008B5024B1B685B69019308BD20020300BA
:105F180008B5034B1B68D3F88830019308BD00000F
:105F28002002030008B5034B1B68D3F89430019393
:105F380008BD00002002030008B5024B1B689B68DF
:105F4800019308BD4402030008B5024B1B68DB6BD4
:105F5800019308BD4402030008B5024B1B685B6847
:105F6800019308BD4002030008B5024B1B689B68FB
:105F7800019308BD4002030008B5024B1B68DB68AB
:105F8800019308BD4002030008B5024B1B681B695A
:105F9800019308BD4002030008B5024B1B685B690A
:105FA800019308BD4002030008B5024B1B689B69BA
:105FB800019308BD4002030008B5024B1B68DB696A
:105FC800019308BD4002030008B5024B1B681B6A19
:105FD800019308BD4002030008B5024B1B681B6B08
:105FE800019308BD4002030008B5024B1B685B6BB8
:105FF800019308BD4002030008B5024B1B681B68EB
:10600800019308BD1C02030008B5024B1B685B68BE
:10601800019308BD1C02030008B5024B1B685B6AAC
:10602800019308BD1C0203000021FFF769BF00228D
:1060380011464068FFF7A8BF002211464068FFF7E5
:10604800C3BF002211464068FFF7CEBF0022406858
:10605800FFF7C2BF002281F001014068FFF7ACBF23
:1060680000231A4619464068FFF79EBF00231A46C8
:1060780019464068FFF790BF002211464068FFF7B5
:1060880073BF002202214068FFF776BF00231A463B
:106098004068FFF761BF000038B50C4D2824224640
:1060A8000021284600F078FF4FF0FF336B602C800A
:1060B800074D042328466B60064B40F8083B2246F0
:1060C800002100F069FF2C8138BD00BFB0E4032037
:1060D80080E40320F4710D0010B58368044613B101
:1060E800032201469847204610BD00221146406809
:1060F800FFF76ABF002211464068FFF775BF00220C
:106108004068FFF769BF002281F001014068FFF78E
:1061180053BF00231A4619464068FFF745BF0023BE
:106128001A4619464068FFF737BF002211464068F3
:10613800FFF72ABF002211464068FFF715BF00226B
:1061480002214068FFF718BF00231A464068FFF78E
:1061580003BF0000024B03225A60024A1A607047CC
:10616800D8E4032028720D007047F8B50646154696
:106178000C468F18BC4206D0336814F8011B9B6884
:1061880030469847F6E72846F8BD0022007CFFF71E
:106198009FBD0021007CFFF7A3BD0021007CFFF715
:1061A800A7BD0021007CFFF7ABBD0021007CFFF7F5
:1061B800AFBD10B50446FDF76CFF204610BD0000CA
:1061C80010B504464FF47A730846A3600021044BC7
:1061D800207461602360FFF7ABFD204610BD00BF4F
:1061E8005C720D000021007CFFF79ABD704710B566
:1061F8000446FDF74EFF204610BDF0B5037D062B83
:106208008DB00E4600F104074FF0000402D000F1F3
:10621800080518E00CAD394605F8304D2F232A46FD
:106228000A20FFF78DFD284600F0E6FE3368024697
:10623800DB682946304698470FE024B12E213046C6
:1062480000F082F9044415F8011D0A22304600F0D6
:10625800C7F9BD420444F0D120460DB0F0BD00009E
:1062680010B5054B0446112240F8043B002100F00C
:1062780093FE204610BD00BF84720D000346074AF6
:1062880010B543F8042B01F1100251F8044B43F800
:10629800044B9142F9D10A781A7010BD84720D002E
:1062A80010B59DF8084044EA032343EA024242EA53
:1062B800016104234160037510BD37B50D788B78F3
:1062C8004A78C97800912946FFF7EAFF03B030BD44
:1062D800014B024A1A607047E0E4032048730D003E
:1062E800002211464068FFF76FBE00221146406841
:1062F800FFF77ABE00224068FFF76EBE002281F0E9
:1063080001014068FFF758BE00231A461946406845
:10631800FFF74ABE00231A4619464068FFF73CBEFD
:10632800002211464068FFF72FBE00221146406840
:10633800FFF71ABE002202214068FFF71DBE0023A6
:106348001A464068FFF708BE10B103685B68184733
:10635800704738B504460068D0B1FFF731FCB8B9CA
:10636800237C1BB9206808B1FFF73AFC656855B172
:10637800AB681BB103222946284698472846FDF7F3
:1063880088FE002363602068FFF732FC0023236047
:1063980038BD000038B50B4B03600446D0F8CC017B
:1063A80008B1FDF778FED4F8C4512DB12846FFF79F
:1063B800D0FF2846FDF76DFEA06808B1FFF7C4FFBF
:1063C800204638BD74730D0038B50D4C0D4B236055
:1063D8000025022304F5E4706360A560C4F8C45185
:1063E800C4F8C851FFF724FC074BC4F8CC5123600C
:1063F8002046064A0649BDE8384000F057BC00BFB1
:10640800E4E40320A8730D0074730D00B0DF0320CB
:106418009D630D0000231A464068FFF79DBD0022CA
:1064280002214068FFF7A8BD002211464068FFF727
:106438009BBD002211464068FFF7A6BD00231A46FF
:1064480019464068FFF7A8BD00231A461946406858
:10645800FFF7AABD002281F001014068FFF7ACBD3B
:1064680000224068FFF7B8BD002211464068FFF7D8
:10647800BBBD002211464068FFF7A6BD70B58CB0C1
:1064880014460646FFF7ECFE0CAB0022114643F813
:10649800302D2046FFF764FC014658BB009B4BB3E8
:1064A8005A68022A0ED00A2A24D15C69112201A84E
:1064B80000F072FD06238DF8143001AD04F10803D5
:1064C800183405E0596930460431FFF7F6FE11E04B
:1064D800186859682A4603C20833A3421546F7D1FB
:1064E80001A906A807ADFFF7C9FE0FCD341D0FC4DB
:1064F8002B6823700098FFF72BFC30460CB070BD5A
:10650800024B034A1A6000225A607047B4E603201F
:10651800A8730D00F8B506460D468F180024BD4235
:106528000CD0336815F8011B9B6830469847002843
:1065380001DB0444F3E7002C08BF04462046F8BDFD
:1065480008B5FEF797FE08BD03689B68184708B5AD
:10655800FEF790FE08BD38B50D210546FFF7F4FF9C
:106568000A2104462846FFF7EFFF204438BD38B516
:106578000546FEF77FFE04462846FFF7ECFF204459
:1065880038BDFFF7F4BF30B58BB00B4600218DF84E
:106598002410012A98BF0A220DF12304B3FBF2F557
:1065A80005FB123303F0FF03092B94BF3033373355
:1065B800DBB2214604F801392B46002DEED1FEF757
:1065C80059FE0BB030BD10B42AB903685DF8044B0E
:1065D8009B68C9B21847D2B25DF8044BFFF7D3BF26
:1065E800FFF7F1BF38B50546FFF7EDFF044628462B
:1065F800FFF7B1FF204438BD2DE9F04107460E46AC
:1066080015462AB90368C9B29B68BDE8F041184726
:106618000A2A02D1002901DA04E0D2B2BDE8F04129
:10662800FFF7B1BF2D21FFF78FFF2A4604467142BD
:106638003846FFF7A8FF2044BDE8F081FFF7DCBF2C
:106648000CB42DE9F04387B000AF07F138040546D4
:1066580054F8049B3C600E4623464A461421381DD4
:10666800FFF7DAFC132805D8391D2846FEF702FE85
:10667800044613E000F1080323F00703E846ADEBF6
:10668800030D411C23464A4668463C60FFF7C4FC9C
:1066980069462846FEF7EEFD0446C5461EB1284663
:1066A800FFF759FF044420461C37BD46BDE8F043B8
:1066B80002B0704710B50446FFF70EFD204610BD26
:1066C8000348044A04490023836000F0EFBA00BF7E
:1066D800BCE60320B0DF0320BD660D00704710B58F
:1066E8000446FDF7D6FC204610BD000070B5084BE7
:1066F8000360044600250E4640F80C5FFFF780FA59
:1067080030462671FFF744FBA560204670BD00BFE8
:10671800DC730D004FF6FF710079FFF729BBC068E5
:10672800FFF77EBA400830B5186000241868884220
:10673800E5B206D90134082C02D040081860F5E704
:106748000725024B5B5D137030BD00BFE4730D007D
:106758002DE9F04380468FB0C0680F46FFF758FA1E
:1067680098F804401422002109A800F015FC0B2316
:106778002046002209A9ADF82430FFF719FB9DF83F
:106788002D404CB19DF82C502DB90C9E9DF834909D
:106798009DF8354003E00024A146264601253B79B3
:1067A8000DB1002B40D19D420BD1BA68B24208D13D
:1067B8008DF820908DF82140BDF82010BA899142BB
:1067C80032D023BB8DF80F300DF10F0204ABB9683E
:1067D8000A98FFF7A7FF3B7905B113BBAB4209D075
:1067E80000213B7B01917C7B9DF80F2098F80400E9
:1067F800009413E0BB68B342F2D38DF820908DF873
:106808002140BDF82020BB899A42E9D109E0002344
:1068180098F80400019300931A460121FFF7E0FA63
:1068280002E0049BB342DBD100200FB0BDE8F08347
:1068380008B50079FFF7A4FAC0B208BD30B587B033
:1068480004460A9D00790095FFF7BAFA3DB902A9F6
:106858002079FFF7BDFA9DF81430DB07F7D407B0AD
:1068680030BD0079FFF79CBA044B00204FF6FF7249
:10687800187058809A80FFF73BBB00BFCCE6032016
:10688800024B1A68024B1A60704700BF48DF0320AA
:10689800D4E60320704741747047007CFFF7E0BAE4
:1068A800007CFFF7B5BA007CFFF7C2BA007CFFF79F
:1068B800B7BA007CFFF7C4BA10B50446FDF7E9FB88
:1068C800204610BD70B5457C04460E4625B9007CAF
:1068D800FFF7C6FA002805DD3146207CBDE8704088
:1068E800FFF78EBA284670BD10B504460846114613
:1068F800002262604FF47A72A260054A2260012287
:10690800207462741A46FFF773FA204610BD00BF60
:1069180020740D00007CFFF79BBA0000F8B5194CF5
:1069280025684DB98420FDF7B2FB064618B18422CC
:10693800294600F031FB2660134D2E684EB984209D
:10694800FDF7A5FB074618B18422314600F024FB69
:106958002F600E4F396811F0010611D13846FDF746
:106968009CFB68B122682B6809483146FFF7BCFFD9
:106978003846FDF797FB074A0749054800F096F99E
:106988000348F8BDF4E60320ECE60320F0E6032014
:10699800D8E60320B0DF03209D680D0041747047DE
:1069A80070470021007CFFF783BA0121007CFFF7C4
:1069B8007FBA007CFFF774BA007CFFF769BA38B574
:1069C8000446007C0D46FFF76BFA002801DC607C6A
:1069D80020B12946207CFFF773FA012038BD007CDE
:1069E800FFF776BA10B50446FDF753FB204610BDF5
:1069F80010B50446002363604FF47A73A360054B17
:106A0800236001230846217463741146FFF730FAA6
:106A1800204610BD50740D000022007CFFF730BAEC
:106A2800007CFFF75DBAFFF7FBBF10B514220446E0
:106A3800002100F0B1FA204610BD000030B50E4D1F
:106A480087B001A8FFF7F1FF296811F0010410D100
:106A58002846FDF722FB60B101AA21460748FFF747
:106A6800C7FF2846FDF71EFB054A0649034800F004
:106A78001DF9024807B030BDF8E60320FCE6032004
:106A8800B0DF0320A9690D0008B50C4B33B1FFF73F
:106A9800D5FF03681B699847002809DC084B63B1D8
:106AA800FFF73CFF03681B699847002803DC08BD13
:106AB800AFF30080F2E7AFF3008008BD00000000EC
:106AC8000000000008B5FFF7DFFFFFF7C9F8014B2A
:106AD800186008BD14E7032007B5002300931A4681
:106AE8006FF07701FFF71EFA03B05DF804FB0000B2
:106AF80007B543880A2B08D0502B09D1094B1B68CE
:106B08003BB103B05DF804EB1847FFF7E5FF06E07B
:106B1800002300931A466FF07701FFF703FA03B0DA
:106B28005DF804FB10E7032010B5FFF789F8044669
:106B380000F03AFA074B13B12046AFF3008000216A
:106B48000448FFF701FA00210348BDE81040FFF7A9
:106B5800DFB900BF00000000F96A0D0010B5044657
:106B68000F48FFF77EFE28B1A4F10B03022B01D8D2
:106B7800002010BD00F058F8FFF734FB08B1012CD5
:106B8800F6D9FFF7CBFEFFF7C5FE18B1A4F109034C
:106B9800012BEDD9232C8CBF0020012010BD00BF94
:106BA80030E70320232838B504460D460AD8FF29C4
:106BB80008D0FFF7D3FF28B129462046BDE8384062
:106BC800FFF766B838BD38B504460D46FFF768F8D4
:106BD800FF2810D0062804D84D2323FA00F0C30755
:106BE80009D42046FFF7BAFF28B129462046BDE858
:106BF8003840FFF75DB838BD0D2810B504469CBF76
:106C08000E34A4B22046FFF7A9FF50B10321204655
:106C1800FFF736F8032804D12046BDE81040FFF7F7
:106C28004FB8002010BD000038B50B4D296811F091
:106C380001040FD12846FDF730FA58B1214607481C
:106C4800FFF7BEFA2846FDF72DFA054A054903481D
:106C580000F02CF8014838BD18E703201CE7032092
:106C6800B0DF032071610D0070B50C4C0C4E0D4D5A
:106C780000212046FFF73AFD20460B4C32462946B4
:106C880000F014F801212046FFF730FD324629466E
:106C98002046BDE8704000F009B800BF30E7032087
:106CA800B0DF0320E5660D0040E703200B460146F0
:106CB800184600F049B90000244B1A68D0075CBF99
:106CC80001221A60224B1A68D1075CBF01221A60A0
:106CD800204B1A68D2075CBF01221A601E4B1A6843
:106CE800D0075CBF01221A601C4B1A68D1075CBF31
:106CF80001221A601A4B1A68D2075CBF01221A6077
:106D0800184B1A68D0075CBF01221A60164B1A6824
:106D1800D1075CBF01221A60144B1A68D2075CBF06
:106D280001221A60124B1A68D0075CBF01221A6050
:106D3800104B1A68D1075CBF01221A600E4B1A6803
:106D4800D2075CBF01221A60704700BF7CE70320AE
:106D580078E7032074E7032070E703206CE703203B
:106D680068E7032064E7032060E703205CE703206B
:106D780058E7032054E7032050E70320184B1A680C
:106D8800D1075CBF01221A60164B1A68D2075CBF94
:106D980001221A60144B1A68D0075CBF01221A60DE
:106DA800124B1A68D1075CBF01221A60104B1A688F
:106DB800D2075CBF01221A600E4B1A68D0075CBF6D
:106DC80001221A600C4B1A68D1075CBF01221A60B5
:106DD8000A4B1A68D2075CBF01221A60704700BFCD
:106DE8009CE7032098E7032094E7032090E703201B
:106DF8008CE7032088E7032084E7032080E703204B
:106E0800184B1A68D1075CBF01221A60164B1A6822
:106E1800D2075CBF01221A60144B1A68D0075CBF06
:106E280001221A60124B1A68D1075CBF01221A604E
:106E3800104B1A68D2075CBF01221A600E4B1A6801
:106E4800D0075CBF01221A600C4B1A68D1075CBFDF
:106E580001221A600A4B1A68D2075CBF01221A6025
:106E6800704700BFBCE70320B8E70320B4E703205E
:106E7800B0E70320ACE70320A8E70320A4E703203A
:106E8800A0E70320244B1A68D0075CBF01221A60D0
:106E9800224B1A68D1075CBF01221A60204B1A687E
:106EA800D2075CBF01221A601E4B1A68D0075CBF6C
:106EB80001221A601C4B1A68D1075CBF01221A60B4
:106EC8001A4B1A68D2075CBF01221A60184B1A685D
:106ED800D0075CBF01221A60164B1A68D1075CBF45
:106EE80001221A60144B1A68D2075CBF01221A608B
:106EF800124B1A68D0075CBF01221A60104B1A683F
:106F0800D1075CBF01221A600E4B1A68D2075CBF1A
:106F180001221A60704700BFECE70320E8E703206E
:106F2800E4E70320E0E70320DCE70320D8E70320B9
:106F3800D4E70320D0E70320CCE70320C8E70320E9
:106F4800C4E70320C0E7032010B5054C13462CB155
:106F58000A4601460220AFF3008010BD204610BD4E
:106F68000000000010B501390244904207D010F823
:106F7800013B11F8014FA342F7D0181B10BD0020A8
:106F880010BD10B5431E0A44914204D011F8014BBC
:106F980003F8014FF8E710BD02440346934202D0BC
:106FA80003F8011BFAE7704738B5124B1C68A36B4E
:106FB8000546D3B91820FFF71FF843F20E33A06334
:106FC80003804AF6CD33438041F2342383804EF266
:106FD8006D63C3804DF6EC630381052343810B2366
:106FE800838101220023C0E90423A36B00221D61D1
:106FF8005A6138BDACDF0320034613F8012B002A81
:10700800FBD1181A013870471D400D0059400D007A
:1070180085400D0089400D000000000000000000C0
:1070280000000000D5400D00000000000000000036
:10703800B3400D002D410D00BB400D00B5400D00C3
:107048004461746130302E637376000000646566B5
:1070580061756C7420004D5342004C5342003C5300
:10706800504953657474696E677320646566617509
:107078006C743E003C53504953657474696E677371
:10708800202573256C75202573204D4F44452564B4
:107098003E005344206572726F72436F64653A20F4
:1070A8003058002C3058006D6963726F73002C6182
:1070B80064630043616E27742061636365737320A2
:1070C800534420636172642E20446F206E6F7420D5
:1070D8007265666F726D61742E004E6F2063617207
:1070E800642C2077726F6E672063686970207365FF
:1070F8006C6563742070696E2C206F722053504940
:107108002070726F626C656D3F00496E76616C69C4
:107118006420666F726D61742C207265666F726D83
:1071280061742053442E0043616E2774206F70658C
:107138006E20726F6F74206469726563746F727900
:107148002E004E6F206572726F7220666F756E64C6
:107158002E006572726F723A200054797065206152
:107168006E792063686172616374657220746F2040
:1071780073746172740043616E2774206372656171
:1071880074652066696C65206E616D650066696C62
:10719800652E6F70656E004C6F6767696E67207447
:1071A8006F3A20005479706520616E7920636861B8
:1071B80072616374657220746F2073746F70004D10
:1071C80069737365642064617461207265636F72AA
:1071D8006400446F6E650077726974652065727229
:1071E8006F720000000000000000000095600D00B4
:1071F8008B600D0081600D0037600D0075600D001B
:1072080069600D005D600D0055600D004B600D005C
:1072180041600D0085640D000000000000000000C2
:1072280051610D0047610D003D610D0033610D0096
:1072380027610D001B610D000F610D0007610D0036
:10724800FD600D00F3600D0085640D000000000076
:107258000000000071610D00BB610D0093610D001D
:1072680073610D009B610D00A3610D00AB610D0002
:10727800B3610D00000000000000000003620D0073
:10728800F5610D00F7610D0066006C6E00666E001A
:10729800636F64650064657461696C000D0A00259C
:1072A8003031307520005D20002564002C20002836
:1072B800293A2000205B00636F6465203D2000258B
:1072C800690064657461696C73203D2000626175B2
:1072D800640053657269616C0053657269616C3151
:1072E800007479706500706172616D00636D64008F
:1072F800696400686E64007374726D0066696C740A
:10730800006C766C0061646448616E646C65720040
:1073180072656D6F766548616E646C657200656E46
:10732800756D48616E646C657273004A534F4E53B5
:10733800747265616D4C6F6748616E646C6572004C
:10734800617070006E6F6E650074726163650069CC
:107358006E666F007761726E0070616E69630061BE
:107368006C6C0000000000000000000047630D0086
:107378003D630D0033630D0029630D001D630D008F
:1073880011630D0005630D00FD620D00F3620D0031
:10739800E9620D0085640D00000000000000000097
:1073A8001D640D0027640D0031640D003B640D0061
:1073B80045640D0051640D005D640D0069640D00A5
:1073C80071640D007B640D0085640D0000000000F1
:1073D80000000000E5660D00E7660D0000081018C3
:1073E800202830385A00252B3033643A253032753E
:1073F8000025592D256D2D25645425483A254D3AEB
:107408002553257A0061736374696D650000000077
:1074180000000000000000009D680D00C1680D001C
:10742800CD680D001D650D00A9680D00B5680D003B
:10743800AF680D00BB680D009F680D00A3680D00C4
:107448000000000000000000A9690D00ED690D00B2
:10745800C7690D001D650D00C1690D00AB690D0000
:10746800B3690D00E7690D00BB690D00A5690D0042
:107478000000000000000000000000000000000004
:1074880000000000000000000000000000000000F4
:1074980000000000000000000000000000000000E4
:1074A80000000000000000000000000000000000D4
:1074B80000000000000000000000000000000000C4
:1074C80000000000000000000000000000000000B4
:1074D8004300000021450D00A9450D00694C0D0031
:1074E80079520D009D520D00A1520D00C5550D0099
:1074F800C9550D00CD550D00D1550D00D5550D00C0
:107508000F5B0D00135B0D00175B0D00BD5B0D00DD
:10751800C15B0D00C55B0D00A1600D005D610D0034
:10752800D9620D00D1630D0009650D00C9660D0013
:1075380071680D0089680D00716C0D00C16C0D003B
:10754800856D0D00096E0D008D6E0D0000000000A8
:0875580000000000000000002B
:107560000D740D000000000078740D0098740D007B
:10757000B8740D00000000000000000000000000D2
:1075800000000000D8740D000000000000000000A2
:1075900000000000000000000000000000000000EB
:1075A00000000000000000000000000000000000DB
:1075B00000000000000000000000000000000000CB
:0875C000000000004CDF032075
:1075C800FFFFFFFF00000102030405060708090A80
:1075D8000B0C0D0E0F101112131415161718191A7B
:0875E8001B1C1D1E1F202800C2
:0475F0007856341283
:04000003D0004018D1
:00000001FF
